:020000040000fa
:080000000002040000000000f2
:020000040000fa
:04000800b003000041
:020000040000fa
:04000c00b00300003d
:020000040000fa
:04001000b003000039
:020000040000fa
:04001400b003000035
:020000040000fa
:04001800b003000031
:020000040000fa
:04001c00b00300002d
:020000040000fa
:04002000b003000029
:020000040000fa
:04002400b003000025
:020000040000fa
:04002800b003000021
:020000040000fa
:04002c00b00300001d
:020000040000fa
:04003000b003000019
:020000040000fa
:04003400c8020000fe
:020000040000fa
:04003800b003000011
:020000040000fa
:04003c00b00300000d
:020000040000fa
:04004000b003000009
:020000040000fa
:04004400b003000005
:020000040000fa
:04004800b003000001
:020000040000fa
:04004c00b0030000fd
:020000040000fa
:04005000b0030000f9
:020000040000fa
:04005400ee020000b8
:020000040000fa
:04005800b0030000f1
:020000040000fa
:04005c00b0030000ed
:020000040000fa
:04006000b0030000e9
:020000040000fa
:04006400b0030000e5
:020000040000fa
:04006800b0030000e1
:020000040000fa
:04006c00b0030000dd
:020000040000fa
:04007000b0030000d9
:020000040000fa
:04007400180300006d
:020000040000fa
:04007800b0030000d1
:020000040000fa
:04007c00b0030000cd
:020000040000fa
:04008000b0030000c9
:020000040000fa
:04008400b0030000c5
:020000040000fa
:04008800b0030000c1
:020000040000fa
:04008c00b0030000bd
:020000040000fa
:04009000b0030000b9
:020000040000fa
:04009400b0030000b5
:020000040000fa
:04009800b0030000b1
:020000040000fa
:04009c00b0030000ad
:020000040000fa
:0400a000b0030000a9
:020000040000fa
:0400a400b0030000a5
:020000040000fa
:0400a800b0030000a1
:020000040000fa
:0400ac00b00300009d
:020000040000fa
:0400b000b003000099
:020000040000fa
:0400b400b003000095
:020000040000fa
:0400b800b003000091
:020000040000fa
:0400bc00b00300008d
:020000040000fa
:0400c000b003000089
:020000040000fa
:0400c400b003000085
:020000040000fa
:0400c800b003000081
:020000040000fa
:0400cc00b00300007d
:020000040000fa
:0400d000b003000079
:020000040000fa
:0400d400b003000075
:020000040000fa
:0400d800b003000071
:020000040000fa
:0400dc00b00300006d
:020000040000fa
:0400e000b003000069
:020000040000fa
:0400e400b003000065
:020000040000fa
:0400e800b003000061
:020000040000fa
:0400ec00b00300005d
:020000040000fa
:0400f000b003000059
:020000040000fa
:0400f400b003000055
:020000040000fa
:0400f800b003000051
:020000040000fa
:0400fc00b00300004d
:020000040000fa
:04010000b003000048
:020000040000fa
:04010400b003000044
:020000040000fa
:04010800b003000040
:020000040000fa
:04010c00b00300003c
:020000040000fa
:04011000b003000038
:020000040000fa
:04011400b003000034
:020000040000fa
:04011800b003000030
:020000040000fa
:04011c00b00300002c
:020000040000fa
:04012000b003000028
:020000040000fa
:04012400b003000024
:020000040000fa
:04012800b003000020
:020000040000fa
:04012c00b00300001c
:020000040000fa
:04013000b003000018
:020000040000fa
:04013400b003000014
:020000040000fa
:04013800b003000010
:020000040000fa
:04013c00b00300000c
:020000040000fa
:04014000b003000008
:020000040000fa
:04014400b003000004
:020000040000fa
:040148009803000018
:020000040000fa
:04014c00b0030000fc
:020000040000fa
:04015000b0030000f8
:020000040000fa
:04015400b0030000f4
:020000040000fa
:04015800b0030000f0
:020000040000fa
:04015c00b0030000ec
:020000040000fa
:04016000b0030000e8
:020000040000fa
:04016400b0030000e4
:020000040000fa
:04016800b0030000e0
:020000040000fa
:04020800b00300003f
:020000040000fa
:04020c00b00300003b
:020000040000fa
:04021000b003000037
:020000040000fa
:04021400b003000033
:020000040000fa
:04021800b00300002f
:020000040000fa
:04021c00b00300002b
:020000040000fa
:04022000b003000027
:020000040000fa
:04022400b003000023
:020000040000fa
:04022800b00300001f
:020000040000fa
:04022c00b00300001b
:020000040000fa
:04023000b003000017
:020000040000fa
:04023400b003000013
:020000040000fa
:04023800b00300000f
:020000040000fa
:04023c00b00300000b
:020000040000fa
:04024000b003000007
:020000040000fa
:04024400b003000003
:020000040000fa
:04024800b0030000ff
:020000040000fa
:04024c00b0030000fb
:020000040000fa
:04025000b0030000f7
:020000040000fa
:04025400b0030000f3
:020000040000fa
:04025800b0030000ef
:020000040000fa
:04025c00b0030000eb
:020000040000fa
:04026000b0030000e7
:020000040000fa
:04026400b0030000e3
:020000040000fa
:04026800b0030000df
:020000040000fa
:04026c00b0030000db
:020000040000fa
:04027000b0030000d7
:020000040000fa
:04027400b0030000d3
:020000040000fa
:04027800b0030000cf
:020000040000fa
:04027c00b0030000cb
:020000040000fa
:04028000b0030000c7
:020000040000fa
:04028400b0030000c3
:020000040000fa
:04028800b0030000bf
:020000040000fa
:04028c00b0030000bb
:020000040000fa
:04029000b0030000b7
:020000040000fa
:04029400b0030000b3
:020000040000fa
:04029800b0030000af
:020000040000fa
:04029c00b0030000ab
:020000040000fa
:0402a000b0030000a7
:020000040000fa
:0402a400b0030000a3
:020000040000fa
:0402a800b00300009f
:020000040000fa
:0402ac00b00300009b
:020000040000fa
:0402b000b003000097
:020000040000fa
:0402b400b003000093
:020000040000fa
:0402b800b00300008f
:020000040000fa
:0402bc00b00300008b
:020000040000fa
:0402c000b003000087
:020000040000fa
:0402c400b003000083
:020000040000fa
:0402c800b00300007f
:020000040000fa
:0402cc00b00300007b
:020000040000fa
:0402d000b003000077
:020000040000fa
:0402d400b003000073
:020000040000fa
:0402d800b00300006f
:020000040000fa
:0402dc00b00300006b
:020000040000fa
:0402e000b003000067
:020000040000fa
:0402e400b003000063
:020000040000fa
:0402e800b00300005f
:020000040000fa
:0402ec00b00300005b
:020000040000fa
:0402f000b003000057
:020000040000fa
:0402f400b003000053
:020000040000fa
:0402f800b00300004f
:020000040000fa
:0402fc00b00300004b
:020000040000fa
:04030000b003000046
:020000040000fa
:04030400b003000042
:020000040000fa
:04030800b00300003e
:020000040000fa
:04030c00b00300003a
:020000040000fa
:04031000b003000036
:020000040000fa
:04031400b003000032
:020000040000fa
:04031800b00300002e
:020000040000fa
:04031c00b00300002a
:020000040000fa
:04032000b003000026
:020000040000fa
:04032400b003000022
:020000040000fa
:04032800b00300001e
:020000040000fa
:04032c00b00300001a
:020000040000fa
:04033000b003000016
:020000040000fa
:04033400b003000012
:020000040000fa
:04033800b00300000e
:020000040000fa
:04033c00b00300000a
:020000040000fa
:04034000b003000006
:020000040000fa
:04034400b003000002
:020000040000fa
:04034800b0030000fe
:020000040000fa
:04034c00b0030000fa
:020000040000fa
:04035000b0030000f6
:020000040000fa
:04035400b0030000f2
:020000040000fa
:04035800b0030000ee
:020000040000fa
:04035c00b0030000ea
:020000040000fa
:04036000b0030000e6
:020000040000fa
:04036400b0030000e2
:020000040000fa
:04036800b0030000de
:020000040000fa
:100400004f9520000e9f20000e0188000000000084
:10041000000020000000e000020032000001200087
:100420002002880014000700cf0007000000e00051
:1004300003003a0060bc20000100200002003700e9
:100440000000200001002000810f70000100320038
:1004500014000700000020000000e000020032004d
:100460000000020000000000b20b020000000000cb
:100470000040da000000fe004440a9008012200085
:100480000000e0000300320000002000a00188000e
:100490004440a800000006008a1f78008b1f7800e7
:1004a0000000060091018800800478000000eb0045
:1004b0001a003700e284440032a0b4009905ba0063
:1004c000e284440032a0b4009906ba00e2844400f9
:1004d00032a0b4000006eb00476fde00fd07b2005b
:1004e000636ce10003003a00ebff07000000eb0043
:1004f0000a003700606ce10004003a00005deb0088
:100500008b05e900fdff3e00040037006168e10053
:10051000010032000086eb000b00070019c7ba008b
:100520001905ba000e04e00003003a000a00e000da
:10053000e0ff3a0000000600fe07b2009e018800be
:100540008a047800f5ff3700395dba008b05e900b1
:100550000c003200295dba008b05e900080032006a
:100560000c00e00003003a00e284440032a0b40032
:10057000f5ff370019ddba008b05e900faff3a00f4
:100580008904e800e184440032a0b40000000600c1
:100590003600f800809fbe00829fbe00849fbe0090
:1005a000869fbe003400f80000002000a0018800f3
:1005b0000000fa008460a900d70207000080fa005a
:1005c0003400f9004f03be004f02be004f01be00d1
:1005d0004f00be003600f900004006003600f8006b
:1005e000809fbe00829fbe00849fbe00869fbe008b
:1005f0003400f80000002000a00188000000fa008c
:100600008560a90030118000004078007503070064
:100610000080fa003400f9004f03be004f02be0014
:100620004f01be004f00be003600f900004006003a
:100630003600f800809fbe00829fbe00849fbe00ef
:10064000869fbe003400f80000002000a001880052
:100650000000fa008660a900501680004400de0009
:10066000614060008080fb0029c9bf000080fb0062
:10067000808f50000f003200501680004400de00d2
:100680006140600029e9b7005016800070006000ea
:100690000000e00004003a0011c0b30040932000c5
:1006a000b6030700030037008040eb0040932000b2
:1006b000b2030700101680004400de0061406000b5
:1006c0008080fb002ac9bf000080fb00808f5000a3
:1006d0000f003200101680004400de006140600010
:1006e0002ae9b70010168000700060000000e000ea
:1006f0000400320011c0b300c09320009f03070024
:10070000030037008040eb00c09320009b030700ec
:100710000080fa003400f9004f03be004f02be0013
:100720004f01be004f00be003600f9000040060039
:10073000801f78003400f80000002000a00188002d
:100740000000fa008d00a90010c0b300aee8b700a9
:100750000080fa003400f9004f00780000400600e5
:100760000040da000000fe00000005008001780073
:1007700002003700b15978000201e9000200e000f0
:10078000fcff3a00000006008001780002003700fc
:10079000815978000201e9000200e000fcff3a0004
:1007a00000000600020037000204e0000b003200e7
:1007b000810178000002780030417800b14f51008b
:1007c000f9ff32001000200014427800934f5200cd
:1007d000030031000080eb00000006000000eb0089
:0407e000000006000f
:020000040000fa
:1007e40073790000732000007265000073650000d7
:1007f400740d00000a0000006d6100006320000019
:100804007265000073650000740d00000a000000aa
:100814006d61000063200000736500007420000017
:1008240064650000766100006464000072200000ca
:1008340030300000314100004433000045450000e1
:100844000d0a0000006d00006163000020730000c9
:1008540065740000206e0000776b0000736b00006d
:100864006579000020320000423700004531000065
:1008740035310000363200003841000045440000a4
:10088400324100003641000042460000373100008a
:100894003538000038300000394300004634000089
:1008a40046330000430d00000a0000006d610000a3
:1008b4006320000073650000742000006170000074
:1008c400707300006b650000792000003242000064
:1008d4003745000031350000313600003238000061
:1008e400414500004432000041360000414200000e
:1008f4004637000031350000383800003039000038
:100904004346000034460000334300000d0a000053
:10091400006d000061630000206a00006f69000040
:100924006e20000061620000700d00000a000000eb
:100934006d610000632000007365000074200000f6
:1009440061640000722000006f6e00000d0a000058
:10095400006d0000616300002073000061760000f8
:10096400650d00000a0000006d61000063200000b6
:1009740074780000206300006e66000020310000df
:1009840020310000300000006d6100006320000091
:1009940074780000206300006e66000020310000bf
:1009a40020320000300000006d6100006320000070
:1009b40074780000206300006e660000203100009f
:1009c40020330000300000006d610000632000004f
:1009d40074780000206300006e660000203100007f
:1009e40020340000300000006f6b00000d0a00008e
:1009f400006f00006b0d00000a61000063630000db
:100a04006570000074650000640d00000a000000b9
:100a14006f6b00000d0a00006d610000635f000051
:100a2400747800005f6f00006b0d00000a00000086
:020000040000fa
:100a34000200fa00004f7800c0922000017d2000df
:100a440021009800c20320008000eb00d08e20001b
:100a54004cff07001e417800518a2000824878002c
:100a64001e80fb00e50f50002e003200e50f500001
:100a74000c003c00e20f50001b003200e20f50005b
:100a840003003c00e10f5000120032006600370002
:100a9400e30f500019003200e40f50001c00320034
:100aa40061003700eb0f50002d003200eb0f5000b7
:100ab40003003c00e60f50001f0032005a003700cc
:100ac400ec0f50002b003200ed0f500031003200cb
:100ad40055003700d08e2000c2002000213f28009e
:100ae40021ff070050003700d08e2000c2002000f4
:100af400e13f28001cff07004b003700d08e200088
:100b0400b2012000a140280017ff0700460037006b
:100b1400d08e2000320320005142280012ff07002b
:100b240041003700d08e2000320320008145280088
:100b34000dff07003c003700d08e2000f20020009b
:100b4400b148280008ff0700c09220000153270085
:100b54002100980010c0b300a6e8b70032003700a7
:100b6400d08e200012012000a1492800fefe0700bb
:100b74002d003700d08e2000b2002000b14a28009a
:100b8400f9fe0700c092200081382100210098005e
:100b940025003700abc8bf000004e00005003200a8
:100ba400d08e200002012000614b2800eefe0700d9
:100bb40017003700acc8bf000004e0000500320095
:100bc400d08e200002012000614c2800e6fe0700c0
:100bd4000f003700adc8bf000004e000050032007c
:100be400d08e200002012000614d2800defe0700a7
:100bf40007003700aec8bf000004e0000400320064
:100c0400d08e200002012000614e2800d6fe07008d
:100c1400c0922000015327002100980010c0b300a7
:100c2400a6e8b7000000000020c0b300afe8b7009a
:100c34000080fa00000006000200fa0010c0b300b1
:100c4400004f7800a5c8bf000080fb00e50f5000ee
:100c540035003200e50f50000c003c00e20f50005c
:100c640019003200e20f500003003c00e10f500075
:100c74001200320069003700e30f50001a003200fe
:100c8400e40f50002000320064003700eb0f5000e6
:100c940035003200eb0f500003003c00e60f50001b
:100ca400290032005d003700ec0f5000360032009e
:100cb400ed0f500040003200580037000040eb00b8
:100cc400004f780055003700f0852000614f280060
:100cd400b3fe07000000e00041003a000040eb00d2
:100ce400004f78004d003700f0852000614f280048
:100cf400abfe07000000e0003b003a000040eb00c0
:100d0400004f780045003700f0852000614f28002f
:100d1400a3fe07000000e00035003a000040eb00ad
:100d2400004f78003d003700f0852000614f280017
:100d34009bfe07000000e0002f003a000040eb009b
:100d4400004f780035003700f0852000b14f2800af
:100d540093fe07000000e00029003a000040eb0089
:100d6400004f78002d003700f0852000614f2800e7
:100d74008bfe07000000e00023003a000040eb0077
:100d8400004f780025003700f0852000614f2800cf
:100d940083fe07000000e0001d003a000040eb0065
:100da400004f780020c0b300a4e8b70010c0b3001f
:100db400aae8b70019003700f0852000a1502800e8
:100dc40077fe07000000e00013003a000040eb004b
:100dd400004f780020c0b300a4e8b7000f0037002c
:100de400000000000d003700000000000b00370079
:100df4000000000009003700000000000700370071
:100e04000000000005003700000000000300370068
:100e14000000000001003700000000001e407800c0
:100e24000080fa00000006000000fa00a5c8bf0018
:100e34000040e800a5e8b700a5c8bf000080fb009b
:100e4400e40f500020003200e40f50000c003c007e
:100e5400e10f500013003200e10f500003003c008a
:100e64000000e0002a00320026003700e20f5000a4
:100e74000f003200e30f5000100032002100370051
:100e8400e60f500016003200e60f50001100350046
:100e9400eb0f500015003200ec0f5000160032002a
:100ea4001800370010c0b300e1fe07001900370036
:100eb40020c0b300defe07001600370030c0b300c8
:100ec400dbfe07001300370040c0b300d8fe070064
:100ed4001000370050c0b300d5fe07000d003700e6
:100ee40060c0b300d2fe07000a003700b0c0b300f0
:100ef400cffe070007003700c0c0b300ccfe0700d8
:100f040004003700a568ef0000000000010037006e
:100f1400000000000080fa00000006000000fa0053
:100f2400a4c8bf000080fb00e10f5000070032009e
:100f3400e10f500026003400e20f50000b00320095
:100f4400e30f50001e0032002c003700afc8bf0072
:100f54000004e00020003a00aac8bf000004e0003a
:100f64001f003a00b0ff070024003700afc8bf00dd
:100f74000004e0001c003a00aac8bf00e14f500082
:100f84001b003a00acc8bf000004e00009003a00ae
:100f9400abc8bf000004e00006003a00aec8bf00c2
:100fa4000004e00003003a00adc8bf000004e00004
:100fb4001100320030c0b300a4e8b7000f003700be
:100fc400d0c0b3009afe0700000000000b003700f9
:100fd400000000000900370000000000070037008f
:100fe4000000000005003700000000000300370087
:100ff4000000000001003700000000000080fa003b
:10100400000006000000fa00113a8000f08f2f0063
:10101400808060000050200001007000103a8800b9
:101024004247a9004227a9004207a90045e7a900b1
:10103400213a8000f0ff280000806000203a8800f8
:101044004567a900213a8000f08f2f0000806000de
:10105400203a8800e024ef00e224ef0005e1a80034
:1010640021088000f0cf2f00008060000090a000d5
:101074002008880021088000f0fc2f000080600018
:10108400200888000421a80021e2a90021a2a800c8
:101094002342a800c222ef00ca22ef00c022ef00c0
:1010a400c822ef00c082a800c882a800c9e2a80034
:1010b4006e00a8006e20a8006200a8006220a800ac
:1010c4008460a9009460a8008560a9009560a800c8
:1010d4008660a9009660a8008d00a9009d00a80064
:1010e400c262a800cb22a900cb02a9000080fa00aa
:1010f400000006000000fa00a068ef00a468ef00fa
:10110400aa68ef00a568ef00af68ef000080fa005e
:10111400000006000000fa00104580000000e8000e
:1011240010458800a0c8bf000080fb00e20f5000fb
:101134002b003200e20f500005003c000000e000ec
:101144000a003200e10f5000170032005c00370043
:10115400e40f50003e003200e40f50002e00350032
:10116400e50f50004800320055003700114580005b
:10117400301f2000808f500001003600a228ef00ad
:1011840011458000900f2000808f500003003e0026
:10119400cb22a800cb02a9004c003700cb22a90027
:1011a400cb02a80049003700cb22a90011458000da
:1011b400703e2000808f500001003600a228ef000e
:1011c40011458000301f2000808f500002003e0037
:1011d400cb02a8003d003700cb02a9003b0037003a
:1011e400cb02a90011458000703e2000808f500082
:1011f40001003600a228ef001145800030062000cf
:10120400808f500002003e00cb22a8002f00370040
:10121400cb22a9002d003700cb22a9001145800064
:10122400f0a52e00808f500001003600a228ef00a8
:101234001145800030062000808f500002003e00df
:10124400cb02a80021003700cb02a9001f00370001
:10125400cb02a90011458000703e2000808f500011
:1012640001003600a228ef0011458000301f200045
:10127400808f500002003e00cb22a80013003700ec
:10128400cb22a90011003700cb02a9001145800030
:10129400301f2000808f500001003600a228ef008c
:1012a4001145800030062000808f500002003e006f
:1012b400cb22a80005003700cb22a9000300370089
:1012c400a228ef00cb22a900cb02a9000080fa00db
:1012d400000006000000fa00a0c8bf000080fb0068
:1012e400e20f500007003200e20f500007003c00fc
:1012f4000000e00007003a0010c0b300a4e8b70003
:101304000500370000000000030037000000000063
:1013140001003700000000000080fa000000060011
:101324000000fa000080fa00000006000200fa0043
:10133400004f78001e80fb00e10f50000d003200ca
:10134400e20f5000140032000000e0001b003a00dd
:10135400a7c8bf000040e800a7e8b700a7c8bf00bf
:10136400e24f500017003600af68ef00a568ef00a9
:1013740019003700a8c8bf000040e800a8e8b7007b
:10138400a8c8bf00e24f500010003600af68ef005d
:10139400a568ef0010003700a9c8bf000040e800ae
:1013a400a9e8b700a9c8bf00e24f50000900360001
:1013b400af68ef00a568ef000700370000000000e9
:1013c40005003700000000000300370000000000a3
:1013d40001003700000000000080fa000000060051
:1013e4000200fa00004f780010c0b300afe8b70065
:1013f400b0c8bf000081fb00018b200081004100c8
:101404001e417800924098000040e800b0e8b70020
:101414001e407800ea4f50000a003a00a6c8bf00f8
:10142400e14f500002003a00a668ef0005003700c3
:101434008040eb00c09220004f00070030c0b30092
:10144400afe8b700018b200091407800b0c3b3002f
:1014540080cf500007003600b068ef008040eb00fa
:10146400c092200044000700af68ef0010c0b30032
:10147400aeff07000080fa00000006000200fa0038
:101484000040eb00004f78000f0037001e80fb0087
:10149400c104200080804000008a200000804000b9
:1014a400104090000080fb00201188000000000024
:1014b4001111800000102000008060000000e00096
:1014c400fbff3a001e4fe8001e80fb00c104200011
:1014d40080804000008a200000804000104090007e
:1014e4000004e000e9ff3a000080fa000000060072
:1014f4000000fa00afc8bf000080fb00e10f5000fd
:1015040018003200e10f500018003400e20f5000c0
:1015140003003200e30f50000800320014003700cb
:10152400d6ff070010c0b300afe8b70011c0b30086
:10153400c0922000100007000d003700befd070018
:101544000000e0000500320020c0b300afe8b7009f
:1015540020c0b30075ff070005003700af68ef0037
:101564000300370000000000010037000000000005
:101574000080fa00000006000400fa00000f780062
:10158400214798001e0078008000eb0011009800ad
:101594001e007800ae409000014878001e007800dc
:1015a4008040eb00114098000080fa000000060023
:1015b4000400fa00000f7800214798001e0078000c
:1015c40010407800e14f500015003a001e007800ea
:1015d400100090008000e8001e00780011009800c0
:1015e4001e007800900090001e00780020009000fb
:1015f400808f50000d0039001e0078008000eb0041
:10160400110098001e00780011c0b300114098002a
:101614001e007800ae4090000148780003003700b7
:101624001e0078008000eb00110098000080fa0092
:10163400000006000000fa008040eb00c092200089
:10164400dbff07008040eb0040932000d8ff070039
:101654008040eb00c0932000d5ff07000080fa0013
:10166400000006000000fa00c0922000017d200066
:1016740021009800409320001100200021009800d0
:10168400c0932000510020002100980040942000c5
:101694000184230021009800c0942000410120000f
:1016a400210098000080fa00000006000000fa0003
:1016b400c092200010409000e14f500007003a0013
:1016c400c09220008040eb001140980020c0b3007d
:1016d400afe8b7000000eb0014ff070040932000c0
:1016e40010409000e14f500007003a004093200062
:1016f4008040eb001140980040c0b300a0e8b70060
:1017040010c0b300ace8b700c093200010409000b4
:10171400e14f500007003a00c09320008040eb00e6
:101724001140980020c0b300a0e8b70010c0b30077
:10173400ade8b7004094200010409000e14f500005
:1017440005003a00409420008040eb0011409800ce
:1017540010c0b300abe8b7000080fa000000060038
:101764000000fa0027fe070062fe0700bdff070025
:101774000060fe00d7fe0700e8fd07005cff0700dd
:08178400caff0700faff37005d
:020000040000fa
:10178c00a00800008c000000000000002c090000e4
:10179c00280000000000000000080000a00000006d
:0817ac00000000000000000035
:020000040000fa
:0200000401f009
:04000000ffff0000fe
:020000040000fa
:0200000401f009
:04000800ffff0000f6
:020000040000fa
:0200000401f009
:04000c005fff000092
:020000040000fa
:0200000401f009
:04001000fbff0000f2
:020000040000fa
:0200000401f009
:040014005fff00008a
:020000040000fa
:0200000401f009
:04001800fcff0000e9
:020000040000fa
:0200000401f009
:04001c00feff0000e3
:00000001FF
