:020000040000fa
:080000000002040000000000f2
:020000040000fa
:0400080016030000db
:020000040000fa
:04000c0016030000d7
:020000040000fa
:0400100016030000d3
:020000040000fa
:0400140016030000cf
:020000040000fa
:0400180016030000cb
:020000040000fa
:04001c0016030000c7
:020000040000fa
:0400200016030000c3
:020000040000fa
:0400240016030000bf
:020000040000fa
:0400280016030000bb
:020000040000fa
:04002c0016030000b7
:020000040000fa
:0400300016030000b3
:020000040000fa
:04003400c8020000fe
:020000040000fa
:0400380016030000ab
:020000040000fa
:04003c0016030000a7
:020000040000fa
:0400400016030000a3
:020000040000fa
:04004400160300009f
:020000040000fa
:04004800160300009b
:020000040000fa
:04004c001603000097
:020000040000fa
:040050001603000093
:020000040000fa
:04005400dc020000ca
:020000040000fa
:04005800160300008b
:020000040000fa
:04005c001603000087
:020000040000fa
:040060001603000083
:020000040000fa
:04006400160300007f
:020000040000fa
:04006800160300007b
:020000040000fa
:04006c001603000077
:020000040000fa
:040070001603000073
:020000040000fa
:04007400f202000094
:020000040000fa
:04007800160300006b
:020000040000fa
:04007c001603000067
:020000040000fa
:040080001603000063
:020000040000fa
:04008400160300005f
:020000040000fa
:04008800160300005b
:020000040000fa
:04008c001603000057
:020000040000fa
:040090001603000053
:020000040000fa
:04009400160300004f
:020000040000fa
:04009800160300004b
:020000040000fa
:04009c001603000047
:020000040000fa
:0400a0001603000043
:020000040000fa
:0400a400160300003f
:020000040000fa
:0400a800160300003b
:020000040000fa
:0400ac001603000037
:020000040000fa
:0400b0001603000033
:020000040000fa
:0400b400160300002f
:020000040000fa
:0400b800160300002b
:020000040000fa
:0400bc001603000027
:020000040000fa
:0400c0001603000023
:020000040000fa
:0400c400160300001f
:020000040000fa
:0400c800160300001b
:020000040000fa
:0400cc001603000017
:020000040000fa
:0400d0001603000013
:020000040000fa
:0400d400160300000f
:020000040000fa
:0400d800160300000b
:020000040000fa
:0400dc001603000007
:020000040000fa
:0400e0001603000003
:020000040000fa
:0400e40016030000ff
:020000040000fa
:0400e80016030000fb
:020000040000fa
:0400ec0016030000f7
:020000040000fa
:0400f00016030000f3
:020000040000fa
:0400f40016030000ef
:020000040000fa
:0400f80016030000eb
:020000040000fa
:0400fc0016030000e7
:020000040000fa
:0401000016030000e2
:020000040000fa
:0401040016030000de
:020000040000fa
:0401080016030000da
:020000040000fa
:04010c0016030000d6
:020000040000fa
:0401100016030000d2
:020000040000fa
:0401140016030000ce
:020000040000fa
:0401180016030000ca
:020000040000fa
:04011c0016030000c6
:020000040000fa
:0401200016030000c2
:020000040000fa
:0401240016030000be
:020000040000fa
:0401280016030000ba
:020000040000fa
:04012c0016030000b6
:020000040000fa
:0401300016030000b2
:020000040000fa
:0401340016030000ae
:020000040000fa
:0401380016030000aa
:020000040000fa
:04013c0016030000a6
:020000040000fa
:0401400016030000a2
:020000040000fa
:04014400160300009e
:020000040000fa
:0401480004030000ac
:020000040000fa
:04014c001603000096
:020000040000fa
:040150001603000092
:020000040000fa
:04015400160300008e
:020000040000fa
:04015800160300008a
:020000040000fa
:04015c001603000086
:020000040000fa
:040160001603000082
:020000040000fa
:04016400160300007e
:020000040000fa
:04016800160300007a
:020000040000fa
:0402080016030000d9
:020000040000fa
:04020c0016030000d5
:020000040000fa
:0402100016030000d1
:020000040000fa
:0402140016030000cd
:020000040000fa
:0402180016030000c9
:020000040000fa
:04021c0016030000c5
:020000040000fa
:0402200016030000c1
:020000040000fa
:0402240016030000bd
:020000040000fa
:0402280016030000b9
:020000040000fa
:04022c0016030000b5
:020000040000fa
:0402300016030000b1
:020000040000fa
:0402340016030000ad
:020000040000fa
:0402380016030000a9
:020000040000fa
:04023c0016030000a5
:020000040000fa
:0402400016030000a1
:020000040000fa
:04024400160300009d
:020000040000fa
:040248001603000099
:020000040000fa
:04024c001603000095
:020000040000fa
:040250001603000091
:020000040000fa
:04025400160300008d
:020000040000fa
:040258001603000089
:020000040000fa
:04025c001603000085
:020000040000fa
:040260001603000081
:020000040000fa
:04026400160300007d
:020000040000fa
:040268001603000079
:020000040000fa
:04026c001603000075
:020000040000fa
:040270001603000071
:020000040000fa
:04027400160300006d
:020000040000fa
:040278001603000069
:020000040000fa
:04027c001603000065
:020000040000fa
:040280001603000061
:020000040000fa
:04028400160300005d
:020000040000fa
:040288001603000059
:020000040000fa
:04028c001603000055
:020000040000fa
:040290001603000051
:020000040000fa
:04029400160300004d
:020000040000fa
:040298001603000049
:020000040000fa
:04029c001603000045
:020000040000fa
:0402a0001603000041
:020000040000fa
:0402a400160300003d
:020000040000fa
:0402a8001603000039
:020000040000fa
:0402ac001603000035
:020000040000fa
:0402b0001603000031
:020000040000fa
:0402b400160300002d
:020000040000fa
:0402b8001603000029
:020000040000fa
:0402bc001603000025
:020000040000fa
:0402c0001603000021
:020000040000fa
:0402c400160300001d
:020000040000fa
:0402c8001603000019
:020000040000fa
:0402cc001603000015
:020000040000fa
:0402d0001603000011
:020000040000fa
:0402d400160300000d
:020000040000fa
:0402d8001603000009
:020000040000fa
:0402dc001603000005
:020000040000fa
:0402e0001603000001
:020000040000fa
:0402e40016030000fd
:020000040000fa
:0402e80016030000f9
:020000040000fa
:0402ec0016030000f5
:020000040000fa
:0402f00016030000f1
:020000040000fa
:0402f40016030000ed
:020000040000fa
:0402f80016030000e9
:020000040000fa
:0402fc0016030000e5
:020000040000fa
:0403000016030000e0
:020000040000fa
:0403040016030000dc
:020000040000fa
:0403080016030000d8
:020000040000fa
:04030c0016030000d4
:020000040000fa
:0403100016030000d0
:020000040000fa
:0403140016030000cc
:020000040000fa
:0403180016030000c8
:020000040000fa
:04031c0016030000c4
:020000040000fa
:0403200016030000c0
:020000040000fa
:0403240016030000bc
:020000040000fa
:0403280016030000b8
:020000040000fa
:04032c0016030000b4
:020000040000fa
:0403300016030000b0
:020000040000fa
:0403340016030000ac
:020000040000fa
:0403380016030000a8
:020000040000fa
:04033c0016030000a4
:020000040000fa
:0403400016030000a0
:020000040000fa
:04034400160300009c
:020000040000fa
:040348001603000098
:020000040000fa
:04034c001603000094
:020000040000fa
:040350001603000090
:020000040000fa
:04035400160300008c
:020000040000fa
:040358001603000088
:020000040000fa
:04035c001603000084
:020000040000fa
:040360001603000080
:020000040000fa
:04036400160300007c
:020000040000fa
:040368001603000078
:020000040000fa
:100400008f8c20000e9f20000e018800000000004d
:10041000000020000000e000020032000001200087
:100420002002880014000700820007000000e0009e
:1004300003003a00c08d20000100200002003700b8
:100440000000200001002000810f70000100320038
:1004500014000700000020000000e000020032004d
:100460000000020000000000ea0802000000000096
:100470000040da000000fe004440a9000010200007
:100480000000e0000300320000002000a00188000e
:100490004440a800000006008a1f78008b1f7800e7
:1004a0000000060091018800800478000000eb0045
:1004b0001a003700e284440032a0b4009905ba0063
:1004c000e284440032a0b4009906ba00e2844400f9
:1004d00032a0b4000006eb00476fde00fd07b2005b
:1004e000636ce10003003a00ebff07000000eb0043
:1004f0000a003700606ce10004003a00005deb0088
:100500008b05e900fdff3e00040037006168e10053
:10051000010032000086eb000b00070019c7ba008b
:100520001905ba000e04e00003003a000a00e000da
:10053000e0ff3a0000000600fe07b2009e018800be
:100540008a047800f5ff3700395dba008b05e900b1
:100550000c003200295dba008b05e900080032006a
:100560000c00e00003003a00e284440032a0b40032
:10057000f5ff370019ddba008b05e900faff3a00f4
:100580008904e800e184440032a0b40000000600c1
:100590003400f800881f780008002000a8018800b7
:1005a0004f0478000000fa008460a9000080fa007f
:1005b0003400f900004006003400f800881f78007d
:1005c00008002000a80188004f0478000000fa000d
:1005d0008560a9008560a9000080fa003400f90058
:1005e000004006003400f800881f78000800200052
:1005f000a80188004f0478000000fa000080fa008b
:100600003400f900004006003400f800881f78002c
:1006100008002000a80188004f0478000000fa00bc
:100620000080fa003400f900004006000040da00c3
:100630000000fe0000000500800178000200370085
:10064000b15978000201e9000200e000fcff3a0025
:1006500000000600020037000204e0000b00320038
:10066000810178000002780030417800b14f5100dc
:10067000f9ff32001000200014427800934f52001e
:10068000030031000080eb00000006000000eb00da
:040690000000060060
:020000040000fa
:100694007379000073200000726500007365000028
:1006a400740d00000a0000006d610000632000006a
:1006b4007265000073650000740d00000a000000fc
:1006c4006d61000063200000736500007420000069
:1006d400646500007661000064640000722000001c
:1006e4003030000031410000443300004545000033
:1006f4000d0a0000006d000061630000207300001b
:1007040065740000206e0000776b0000736b0000be
:1007140065790000203200004237000045310000b6
:1007240035310000363200003841000045440000f5
:1007340032410000364100004246000037310000db
:1007440035380000383000003943000046340000da
:1007540046330000430d00000a0000006d610000f4
:1007640063200000736500007420000061700000c5
:10077400707300006b6500007920000032420000b5
:1007840037450000313500003136000032380000b2
:10079400414500004432000041360000414200005f
:1007a4004637000031350000383800003039000089
:1007b4004346000034460000334300000d0a0000a5
:1007c400006d000061630000206a00006f69000092
:1007d4006e20000061620000700d00000a0000003d
:1007e4006d61000063200000736500007420000048
:1007f40061640000722000006f6e00000d0a0000aa
:10080400006d000061630000207300006176000049
:10081400650d00000a0000006d6100006320000007
:1008240074780000207500006e6300006e6600009e
:10083400203100002031000032330000414200002a
:10084400430d00000a0000006f6b00000d0a000059
:10085400006f00006b0d00000a610000636300007c
:100864006570000074650000640d00000a0000005b
:100874006f6b00000d0a00006d610000635f0000f3
:10088400747800005f6f00006b0d00000a00000028
:020000040000fa
:100894000000fa00a04080008000eb00d20020009d
:1008a40003002000820f5000838f58005e003e003a
:1008b400006001000d0037001300370019003700f5
:1008c4001f003700250037002b0037005600370083
:1008d4005500370054003700530037002f0037000d
:1008e400350037003b0037004300370010822000fa
:1008f400c2002000a13428004eff07002000200081
:10090400c04088004d00370010822000c200200043
:100914006135280047ff070020002000c040880000
:100924004600370010822000b20120002136280042
:1009340040ff070020002000c04088003f0037002f
:100944001082200032032000d137280039ff07002d
:1009540020002000c04088003800370010822000aa
:1009640032032000013b280032ff07002000200052
:10097400c04088003100370010822000f2002000bf
:10098400313e28002bff0700e0012000c040880012
:1009940010c0b30020e8b700280037001082200000
:1009a40012012000213f280022ff07002000200020
:1009b400c04088002100370010822000b2002000cf
:1009c400314028001bff070050002000c040880071
:1009d4001a0037001082200082012000e140280024
:1009e40014ff0700e0012000c040880010c0b300dd
:1009f40020e8b700110037001cc8bf00e14f5000c9
:100a040006003a00e0012000c040880010c0b30096
:100a140020e8b7001c68ef0008003700c168ef0049
:100a24001e28ef00050037001428ef00c168ef000e
:100a3400d0ff2f00f0408800000000000080fa0082
:100a4400000006000000fa00108620006142280021
:100a5400fffe07000000e00002003a0010c0b300ef
:100a6400010037000040eb000080fa00000006009f
:100a74000000fa00a0408000e40f5000280032007b
:100a8400e40f500009003e00e10f50001500320051
:100a9400e10f500011003900e20f5000160032003f
:100aa400e30f5000190032003a003700ea0f5000fb
:100ab40027003200ea0f500003003e00e50f50000b
:100ac4001c00320033003700eb0f500025003200c9
:100ad400ed0f5000280032002e0037001e28ef00d2
:100ae40040003700d7ff07000004e0002e0032006a
:100af4001e28ef003b003700d2ff07000004e0008f
:100b04002b0032001e28ef0036003700cdff07000f
:100b14000004e000280032001e28ef0031003700f6
:100b2400c8ff07000004e000250032001e28ef0083
:100b34002c00370010862000b1422800c4fe0700b4
:100b44000000e00020003a001e28ef0025003700d6
:100b5400bcff07000004e0001d0032001e28ef0067
:100b640020003700b7ff07000004e0001a0032003d
:100b74001e28ef001b00370010862000a143280028
:100b8400b3fe07000000e00015003a001e28ef0045
:100b9400140037001428ef00d0ff2f00f040880025
:100ba400000000000f003700000000000d003700b7
:100bb400000000000b0037000000000009003700af
:100bc40000000000070037000000000005003700a7
:100bd400000000000300370000000000010037009f
:100be400000000000080fa00000006000200fa0085
:100bf40016c8bf000004e0001c003a0010c0b30097
:100c040016e8b70010c0b300c1e8b7002068ef00d1
:100c1400c1c8bf00e14f500027003a000000eb00bc
:100c2400000f780005003700108620001e004000e9
:100c34008040eb00014878001e0fe800f00320001c
:100c44009e007800808f5000f7ff3600008020005f
:100c54008000eb0031009800108220003b01070067
:100c640010002000f04088001300370016c8bf00b1
:100c7400e14f500010003a00008020001040900026
:100c8400e14f500006003a000080eb00f04088007d
:100c9400008020008040eb001140980006003700df
:100ca400c04080000000e00003003a001668ef0036
:100cb400e0ff2f00f04088000080fa0000000600ea
:100cc4000600fa00000f7800110798002207980028
:100cd400f0408000e10f500015003200f040800029
:100ce4000000e00007003a009e007800a140880060
:100cf4001a68ef00e0012000904088001668ef00b9
:100d04000b0037001ac8bf000040e8001ae8b7001b
:100d14001ac8bf008080fb002e009000808f500016
:100d2400030039009e009000a14088001a68ef007b
:100d34000080fa00000006000000fa00abff070084
:100d4400a04080008000eb00d200200003002000bf
:100d5400820f5000838f580041003e000060010064
:100d64000d00370011003700150037001900370057
:100d74001d003700210037003900370038003700e4
:100d840037003700360037002100370025003700d0
:100d9400290037002d003700520020008000eb00ae
:100da40010002000c6ff07002f003700320020008b
:100db4008000eb0020002000c1ff07002a0037005c
:100dc400320020008000eb0030002000bcff070050
:100dd40025003700320020008000eb004000200096
:100de400b7ff070020003700320020008000eb002e
:100df40050002000b2ff07001b0037003200200023
:100e04008000eb00a0002000adff070016003700b3
:100e1400320020008000eb00b0002000a8ff070093
:100e240011003700320020008000eb00d0002000c9
:100e3400a3ff07000c003700320020008000eb0005
:100e4400200020009eff070007003700320020002a
:100e54008000eb00d000200099ff0700020037005b
:100e64001428ef00000000000080fa0000000600d3
:100e74000000fa00113a8000f08f2f00808060009b
:100e84000050200001007000103a88004247a90079
:100e94004227a9004207a90045e7a900213a80009a
:100ea400f0ff280000806000203a88004567a90010
:100eb400213a8000f08f2f0000806000203a8800e3
:100ec400e024ef00e224ef0005e1a80021088000ff
:100ed400f0cf2f00008060000090a0002008880060
:100ee40021088000f0fc2f000080600020088800aa
:100ef4000421a80021e2a90021a2a8002342a800fd
:100f0400c222ef00ca22ef00c022ef00c822ef0085
:100f1400c082a800c882a800c9e2a8006e00a80088
:100f24006e20a8006200a8006220a8008460a900c6
:100f34009460a8008560a9009560a8008660a90057
:100f44009660a8008d00a9009d00a8000080fa000a
:100f5400000006000000fa000808a9000080200034
:100f64008040eb00114098001668ef001428ef0051
:100f7400f0702200904088001c68ef00a000200060
:100f8400804088000080fa00000006000000fa009b
:100f9400204680000000e80020468800c2c8bf0048
:100fa4000080fb00e20f50002b003200e20f5000e3
:100fb40005003c000000e0000a003200e10f500090
:100fc400170032005c003700e40f50003e0032008e
:100fd400e40f50002e003500e50f500048003200a9
:100fe4005500370021468000301f2000808f5000bc
:100ff40001003600c428ef0021468000900f200035
:10100400808f500003003e00cb22a800cb02a90031
:101014004c003700cb22a900cb02a80049003700be
:10102400cb22a90021468000703e2000808f500012
:1010340001003600c428ef0021468000301f200044
:10104400808f500002003e00cb02a8003d00370014
:10105400cb02a9003b003700cb02a9002146800047
:10106400703e2000808f500001003600c428ef003d
:101074002146800030062000808f500002003e0090
:10108400cb22a8002f003700cb22a9002d00370067
:10109400cb22a90021468000f0a52e00808f5000ad
:1010a40001003600c428ef002146800030062000ed
:1010b400808f500002003e00cb02a80021003700c0
:1010c400cb02a9001f003700cb02a90021468000f3
:1010d400703e2000808f500001003600c428ef00cd
:1010e40021468000301f2000808f500002003e0007
:1010f400cb22a80013003700cb22a900110037002f
:10110400cb02a90021468000301f2000808f5000b0
:1011140001003600c428ef0021468000300620007c
:10112400808f500002003e00cb22a800050037004b
:10113400cb22a90003003700c428ef00cb22a9006a
:10114400cb02a9000080fa00000006000600fa00a5
:10115400200798000000eb00000f78000e00370015
:101164002e0090001e004000904078002147980017
:101174002e4090000080fb00201188000000000039
:101184001111800000102000008060000000e000c9
:10119400fbff3a001e0fe8002e0090001e004000e6
:1011a400104078000004e000edff3a000080fa00ef
:0411b4000000060031
:020000040000fa
:1011b800c20800000600000000000000000800004f
:0c11c800c2000000000000000000000059
:020000040000fa
:1011d4000000fa0026ff07005eff07006bff070010
:0411e400feff3700d3
:020000040000fa
:0200000401f009
:04000000ffff0000fe
:020000040000fa
:0200000401f009
:04000800ffff0000f6
:020000040000fa
:0200000401f009
:04000c005fff000092
:020000040000fa
:0200000401f009
:04001000fbff0000f2
:020000040000fa
:0200000401f009
:040014005fff00008a
:020000040000fa
:0200000401f009
:04001800fcff0000e9
:020000040000fa
:0200000401f009
:04001c00feff0000e3
:00000001FF
