:020000040000fa
:080000000002040000000000f2
:020000040000fa
:040008005a04000096
:020000040000fa
:04000c0022040000ca
:020000040000fa
:0400100030040000b8
:020000040000fa
:040014003e040000a6
:020000040000fa
:040018004c04000094
:020000040000fa
:04001c005a04000082
:020000040000fa
:040020005a0400007e
:020000040000fa
:040024005a0400007a
:020000040000fa
:040028005a04000076
:020000040000fa
:04002c005a04000072
:020000040000fa
:040030005a0400006e
:020000040000fa
:04003400c8020000fe
:020000040000fa
:040038005a04000066
:020000040000fa
:04003c005a04000062
:020000040000fa
:040040005a0400005e
:020000040000fa
:04004400f4020000c2
:020000040000fa
:040048005a04000056
:020000040000fa
:04004c005a04000052
:020000040000fa
:040050005a0400004e
:020000040000fa
:040054005203000053
:020000040000fa
:040058005a04000046
:020000040000fa
:04005c005a04000042
:020000040000fa
:040060005a0400003e
:020000040000fa
:040064005a0400003a
:020000040000fa
:040068005a04000036
:020000040000fa
:04006c005a04000032
:020000040000fa
:040070005a0400002e
:020000040000fa
:040074007c03000009
:020000040000fa
:040078005a04000026
:020000040000fa
:04007c005a04000022
:020000040000fa
:040080005a0400001e
:020000040000fa
:040084005a0400001a
:020000040000fa
:040088005a04000016
:020000040000fa
:04008c005a04000012
:020000040000fa
:040090005a0400000e
:020000040000fa
:040094005a0400000a
:020000040000fa
:040098005a04000006
:020000040000fa
:04009c005a04000002
:020000040000fa
:0400a0005a040000fe
:020000040000fa
:0400a4005a040000fa
:020000040000fa
:0400a8005a040000f6
:020000040000fa
:0400ac005a040000f2
:020000040000fa
:0400b0005a040000ee
:020000040000fa
:0400b4005a040000ea
:020000040000fa
:0400b8005a040000e6
:020000040000fa
:0400bc005a040000e2
:020000040000fa
:0400c0005a040000de
:020000040000fa
:0400c4005a040000da
:020000040000fa
:0400c8005a040000d6
:020000040000fa
:0400cc005a040000d2
:020000040000fa
:0400d0005a040000ce
:020000040000fa
:0400d4005a040000ca
:020000040000fa
:0400d8005a040000c6
:020000040000fa
:0400dc005a040000c2
:020000040000fa
:0400e0005a040000be
:020000040000fa
:0400e4005a040000ba
:020000040000fa
:0400e8005a040000b6
:020000040000fa
:0400ec005a040000b2
:020000040000fa
:0400f0005a040000ae
:020000040000fa
:0400f4005a040000aa
:020000040000fa
:0400f8005a040000a6
:020000040000fa
:0400fc005a040000a2
:020000040000fa
:040100005a0400009d
:020000040000fa
:040104005a04000099
:020000040000fa
:040108005a04000095
:020000040000fa
:04010c005a04000091
:020000040000fa
:040110005a0400008d
:020000040000fa
:040114005a04000089
:020000040000fa
:040118005a04000085
:020000040000fa
:04011c005a04000081
:020000040000fa
:040120005a0400007d
:020000040000fa
:040124005a04000079
:020000040000fa
:040128005a04000075
:020000040000fa
:04012c005a04000071
:020000040000fa
:040130005a0400006d
:020000040000fa
:040134005a04000069
:020000040000fa
:040138005a04000065
:020000040000fa
:04013c005a04000061
:020000040000fa
:040140005a0400005d
:020000040000fa
:040144005a04000059
:020000040000fa
:040148000e040000a1
:020000040000fa
:04014c005a04000051
:020000040000fa
:040150005a0400004d
:020000040000fa
:040154005a04000049
:020000040000fa
:040158005a04000045
:020000040000fa
:04015c005a04000041
:020000040000fa
:040160005a0400003d
:020000040000fa
:040164005a04000039
:020000040000fa
:040168005a04000035
:020000040000fa
:040208005a04000094
:020000040000fa
:04020c005a04000090
:020000040000fa
:040210005a0400008c
:020000040000fa
:040214005a04000088
:020000040000fa
:040218005a04000084
:020000040000fa
:04021c005a04000080
:020000040000fa
:040220005a0400007c
:020000040000fa
:040224005a04000078
:020000040000fa
:040228005a04000074
:020000040000fa
:04022c005a04000070
:020000040000fa
:040230005a0400006c
:020000040000fa
:040234005a04000068
:020000040000fa
:040238005a04000064
:020000040000fa
:04023c005a04000060
:020000040000fa
:040240005a0400005c
:020000040000fa
:040244005a04000058
:020000040000fa
:040248005a04000054
:020000040000fa
:04024c005a04000050
:020000040000fa
:040250005a0400004c
:020000040000fa
:040254005a04000048
:020000040000fa
:040258005a04000044
:020000040000fa
:04025c005a04000040
:020000040000fa
:040260005a0400003c
:020000040000fa
:040264005a04000038
:020000040000fa
:040268005a04000034
:020000040000fa
:04026c005a04000030
:020000040000fa
:040270005a0400002c
:020000040000fa
:040274005a04000028
:020000040000fa
:040278005a04000024
:020000040000fa
:04027c005a04000020
:020000040000fa
:040280005a0400001c
:020000040000fa
:040284005a04000018
:020000040000fa
:040288005a04000014
:020000040000fa
:04028c005a04000010
:020000040000fa
:040290005a0400000c
:020000040000fa
:040294005a04000008
:020000040000fa
:040298005a04000004
:020000040000fa
:04029c005a04000000
:020000040000fa
:0402a0005a040000fc
:020000040000fa
:0402a4005a040000f8
:020000040000fa
:0402a8005a040000f4
:020000040000fa
:0402ac005a040000f0
:020000040000fa
:0402b0005a040000ec
:020000040000fa
:0402b4005a040000e8
:020000040000fa
:0402b8005a040000e4
:020000040000fa
:0402bc005a040000e0
:020000040000fa
:0402c0005a040000dc
:020000040000fa
:0402c4005a040000d8
:020000040000fa
:0402c8005a040000d4
:020000040000fa
:0402cc005a040000d0
:020000040000fa
:0402d0005a040000cc
:020000040000fa
:0402d4005a040000c8
:020000040000fa
:0402d8005a040000c4
:020000040000fa
:0402dc005a040000c0
:020000040000fa
:0402e0005a040000bc
:020000040000fa
:0402e4005a040000b8
:020000040000fa
:0402e8005a040000b4
:020000040000fa
:0402ec005a040000b0
:020000040000fa
:0402f0005a040000ac
:020000040000fa
:0402f4005a040000a8
:020000040000fa
:0402f8005a040000a4
:020000040000fa
:0402fc005a040000a0
:020000040000fa
:040300005a0400009b
:020000040000fa
:040304005a04000097
:020000040000fa
:040308005a04000093
:020000040000fa
:04030c005a0400008f
:020000040000fa
:040310005a0400008b
:020000040000fa
:040314005a04000087
:020000040000fa
:040318005a04000083
:020000040000fa
:04031c005a0400007f
:020000040000fa
:040320005a0400007b
:020000040000fa
:040324005a04000077
:020000040000fa
:040328005a04000073
:020000040000fa
:04032c005a0400006f
:020000040000fa
:040330005a0400006b
:020000040000fa
:040334005a04000067
:020000040000fa
:040338005a04000063
:020000040000fa
:04033c005a0400005f
:020000040000fa
:040340005a0400005b
:020000040000fa
:040344005a04000057
:020000040000fa
:040348005a04000053
:020000040000fa
:04034c005a0400004f
:020000040000fa
:040350005a0400004b
:020000040000fa
:040354005a04000047
:020000040000fa
:040358005a04000043
:020000040000fa
:04035c005a0400003f
:020000040000fa
:040360005a0400003b
:020000040000fa
:040364005a04000037
:020000040000fa
:040368005a04000033
:020000040000fa
:10040000af8f20000e9f20000e018800000000002a
:10041000000020000000e000020032000001200087
:100420002002880014000700240107000000e000fb
:1004300003003a00e0032100010020000200370021
:100440000000200001002000810f70000100320038
:1004500014000700000020000000e000020032004d
:1004600000000200000000002c100200000000004c
:100470000040da000000fe004440a90020182000df
:100480000000e0000300320000002000a00188000e
:100490004440a800000006008a1f78008b1f7800e7
:1004a0000000060091018800800478000000eb0045
:1004b0001a003700e284440032a0b4009905ba0063
:1004c000e284440032a0b4009906ba00e2844400f9
:1004d00032a0b4000006eb00476fde00fd07b2005b
:1004e000636ce10003003a00ebff07000000eb0043
:1004f0000a003700606ce10004003a00005deb0088
:100500008b05e900fdff3e00040037006168e10053
:10051000010032000086eb000b00070019c7ba008b
:100520001905ba000e04e00003003a000a00e000da
:10053000e0ff3a0000000600fe07b2009e018800be
:100540008a047800f5ff3700395dba008b05e900b1
:100550000c003200295dba008b05e900080032006a
:100560000c00e00003003a00e284440032a0b40032
:10057000f5ff370019ddba008b05e900faff3a00f4
:100580008904e800e184440032a0b40000000600c1
:100590003600f800809fbe00829fbe00849fbe0090
:1005a000869fbe003400f80000002000a0018800f3
:1005b0000000fa008460a9000021ef000040eb0079
:1005c000d7030700560507000080fa003400f90041
:1005d0004f03be004f02be004f01be004f00be00e1
:1005e0003600f900004006003600f800809fbe008b
:1005f000829fbe00849fbe00869fbe003400f8002c
:1006000000002000a00188000000fa0084e0a9009a
:1006100050c0b30006e1b70010c0b300c00307002c
:1006200000c8bf000004e00016003a00114080003e
:10063000700c2000808f5000010036000228ef006f
:100640001140800010c0b30032062000828f50009d
:10065000010036000040eb008100e80011408800f6
:100660000004e00004003200cb22a80000000000db
:10067000cb02a90003003700cb22a9000000000034
:10068000cb02a8000080fa003400f9004f03be003e
:100690004f02be004f01be004f00be003600f90001
:1006a000004006003600f800809fbe00829fbe001a
:1006b000849fbe00869fbe003400f800000020002a
:1006c000a00188000000fa008560a90030118000b8
:1006d00000407800eb0507000080fa003400f900c4
:1006e0004f03be004f02be004f01be004f00be00d0
:1006f0003600f900004006003600f800809fbe007a
:10070000829fbe00849fbe00869fbe003400f8001a
:1007100000002000a00188000000fa008660a90007
:10072000101680004400de00614060008080fb0005
:100730008fc8bf000080fb00808f50000f00320088
:10074000101680004400de00614060008fe8b700b2
:1007500010168000700060000000e00004003a0005
:1007600011c0b300a08a20003e0307000300370039
:100770008040eb00a08a20003a030700501680005a
:100780004400de00614060008080fb0090c8bf0034
:100790000080fb00808f500018003200501680004f
:1007a0004400de006140600090e8b7005016800011
:1007b000700060000000e0000700320011c0b300cc
:1007c000208b2000270307008040eb00a08b200037
:1007d00024030700090037008040eb00208b200035
:1007e000200307000fc8bf000004e00003003a0028
:1007f00011c0b300a08b20001a0307000080fa008c
:100800003400f9004f03be004f02be004f01be008e
:100810004f00be003600f900004006003400f8002a
:10082000881f780008002000a80188004f04780085
:100830000000fa008d00a9000080fa003400f900e1
:10084000004006003400f800881f780008002000ef
:10085000a80188004f0478000000fa00ffff37006d
:100860003400f800881f780008002000a8018800e4
:100870004f0478000000fa00ffff37003400f80052
:10088000881f780008002000a80188004f04780025
:100890000000fa00ffff37003400f800881f7800de
:1008a00008002000a80188004f0478000000fa002a
:1008b000ffff37000040da000000fe0000000500e6
:1008c0008001780002003700b15978000201e90088
:1008d0000200e000fcff3a00000006008001780002
:1008e00002003700815978000201e9000200e000af
:1008f000fcff3a0000000600020037000204e0009e
:100900000b0032008101780000027800304178004d
:10091000b14f5100f9ff320010002000144278005e
:10092000934f5200030031000080eb0000000600ee
:080930000000eb0000000600ce
:020000040000fa
:100938007379000073200000726500007365000081
:10094800740d00000a0000006d61000063200000c3
:100958007265000073650000740d00000a00000055
:100968006d610000632000007365000074200000c2
:100978006465000076610000646400007220000075
:10098800303000003141000044330000454500008c
:100998000d0a0000006d0000616300002073000074
:1009a80065740000206e0000776b0000736b000018
:1009b8006579000020320000423700004531000010
:1009c800353100003632000038410000454400004f
:1009d8003241000036410000424600003731000035
:1009e8003538000038300000394300004634000034
:1009f80046330000430d00000a0000006d6100004e
:100a0800632000007365000074200000617000001e
:100a1800707300006b65000079200000324200000e
:100a2800374500003135000031360000323800000b
:100a380041450000443200004136000041420000b8
:100a480046370000313500003838000030390000e2
:100a58004346000034460000334300000d0a0000fe
:100a6800006d000061630000206a00006f690000eb
:100a78006e20000061620000700d00000a00000096
:100a88006d610000632000007365000074200000a1
:100a980061640000722000006f6e00000d0a000003
:100aa800006d0000616300002073000061760000a3
:100ab800650d00000a0000006d6100006320000061
:100ac80074780000206300006e660000203100008a
:100ad80020310000300d00000a0000006d610000a8
:100ae8006320000074780000206300006e66000038
:100af8002031000020320000300d00000a00000004
:100b08006d6100006320000074780000206300001d
:100b18006e6600002031000020330000300d000018
:100b28000a0000006d610000632000007478000076
:100b3800206300006e6600002031000020340000b1
:100b4800300d00000a0000006d6100006320000005
:100b58007061000075730000650d00000a00000058
:100b680072610000646900006f2000007478000062
:100b780020310000300d00000a0000007261000002
:100b8800646900006f2000007478000020320000c3
:100b9800300d00000a000000726100006469000066
:100ba8006f2000007478000020330000300d000032
:100bb8000a00000072610000646900006f200000f4
:100bc8007478000020340000300d00000a00000096
:100bd8006f6b00000d0a0000006f00006b0d000035
:100be8000a6100006363000065700000746500001e
:100bf800640d00000a0000006f6b00000d0a000081
:100c08006d610000635f0000747800005f6f000092
:100c18006b0d00000a000000343200003934000077
:100c28003936000037320000343500000d0a000064
:040c380000000000b8
:020000040000fa
:100c3c000000fa0006c8bf00e44f500018003a004c
:100c4c0010c8bf000080fb00e10f50000c00320008
:100c5c00e10f500003003c000000e00006003200f1
:100c6c000d003700e20f500007003200e30f500078
:100c7c0007003200080037001168ef00060037004b
:100c8c001268ef00040037001368ef000200370011
:100c9c001468ef000000000030c0b30006e8b70095
:100cac000080fa00000006000200fa00004f7800f5
:100cbc0020892000017d200021009800c203200023
:100ccc008000eb003085200001ff07001e417800fa
:100cdc0071802000824878001e80fb006101b90001
:100cec000080eb008080eb00020040008380480015
:100cfc00a200200003002000820f5000838f5800b8
:100d0c009a003e00006001000a0037000e00370018
:100d1c0012003700160037001a0037002800370081
:100d2c002c0037001c003700320037005d00370004
:100d3c006400370030852000c2002000c149280023
:100d4c00dcfe07008a00370030852000c20020003e
:100d5c00814a2800d7fe0700850037003085200027
:100d6c00b2012000414b2800d2fe07008000370062
:100d7c003085200032032000f14c2800cdfe070006
:100d8c007b003700308520003203200021502800e2
:100d9c00c8fe07007600370030852000f2002000e6
:100dac0051532800c3fe0700208920008138210000
:100dbc002100980010c0b30008e8b7006c003700a1
:100dcc00308520001201200041542800b9fe070094
:100ddc006700370030852000b200200051552800f4
:100dec00b4fe0700208920008138210021009800e2
:100dfc005f00370011c8bf000004e000060032009d
:100e0c00308520002201200001562800a9fe070091
:100e1c001068ef001d00370012c8bf000004e0008e
:100e2c0007003200308520002201200021572800c5
:100e3c00a0fe070010c0b30010e8b7001300370085
:100e4c0013c8bf000004e00007003200308520000a
:100e5c00220120004158280096fe070020c0b30054
:100e6c0010e8b7000900370014c8bf000004e00008
:100e7c000600320030852000220120006159280034
:100e8c008cfe070030c0b30010e8b70020892000aa
:100e9c00813821002100980010c0b30008e8b70089
:100eac003300370030852000c2002000815a280012
:100ebc0080fe07002089200001712200210098008b
:100ecc002b00370011c8bf000004e0000600320000
:100edc0030852000e2002000415b280075fe0700f1
:100eec001068ef001d00370012c8bf000004e000be
:100efc000700320030852000e2002000215c280031
:100f0c006cfe070010c0b30010e8b70013003700e8
:100f1c0013c8bf000004e000070032003085200039
:100f2c00e2002000015d280062fe070020c0b30033
:100f3c0010e8b7000900370014c8bf000004e00037
:100f4c000600320030852000e2002000e15d280020
:100f5c0058fe070030c0b30010e8b700208920000d
:100f6c0081382100210098000100370000000000aa
:100f7c0020c0b30015e8b7000080fa00000006009e
:100f8c000200fa0010c0b300004f780007c8bf0081
:100f9c000080fb006101b9000080eb008080eb0059
:100fac000200400083804800a200200003002000c3
:100fbc00820f5000838f58007c003e0000600100bf
:100fcc000a0037000c003700130037001a003700f6
:100fdc0021003700340037003b0037002600370073
:100fec00500037005a003700650037000040eb0016
:100ffc00004f78008200370070812000c15e28000d
:10100c003afe07000000e0006a003a000040eb00e6
:10101c00004f78007a00370070812000c15e2800f4
:10102c0032fe07000000e00064003a000040eb00d4
:10103c00004f78007200370070812000c15e2800dc
:10104c002afe07000000e0005e003a000040eb00c2
:10105c00004f78006a00370070812000c15e2800c4
:10106c0022fe07000000e00058003a000040eb00b0
:10107c00004f78006200370070812000115f28005b
:10108c001afe07000000e00052003a000040eb009e
:10109c00004f780030c0b30006e8b70010c0b300b2
:1010ac000de8b7005600370070812000c15e2800a3
:1010bc000efe07000000e00048003a000040eb0084
:1010cc00004f78004e00370070812000c15e280070
:1010dc0006fe07000000e00042003a000040eb0072
:1010ec00004f780030c0b30006e8b70010c0b30062
:1010fc000ce8b7000fc8bf000004e00006003a007f
:10110c0011c0b300a08c2000d300070010c0b300a6
:10111c0000e8b7003a00370030c0b30000e8b70071
:10112c00370037007081200001602800effd0700b8
:10113c000000e0002d003a000040eb00004f78006a
:10114c00bbfe070030c0b30006e8b7002c00370028
:10115c007081200001612800e4fd07000000e00020
:10116c0024003a0030c0b30006e8b70010c0b3004a
:10117c000ee8b7000040eb00004f7800200037006d
:10118c0070812000c15e2800d8fd07000000e0003f
:10119c001a003a00a6fe070030c0b30006e8b700fc
:1011ac000040eb00004f78001500370000000000f5
:1011bc001300370000000000110037000000000091
:1011cc000f003700000000000d0037000000000089
:1011dc000b00370000000000090037000000000081
:1011ec000700370000000000050037000000000079
:1011fc000300370000000000010037000000000071
:10120c001e4078000080fa00000006000000fa0082
:10121c0007c8bf000040e80007e8b70007c8bf00d8
:10122c000080fb00e30f500018003200e30f500069
:10123c0007003c00e10f50000e003200e10f50009f
:10124c000f003c000000e000220032001e003700be
:10125c00e50f500013003200e50f50000e00350072
:10126c00e60f500012003200e70f5000130032005e
:10127c001500370010c0b3008bfe070016003700b6
:10128c0020c0b30088fe07001300370030c0b30045
:10129c0085fe07001000370040c0b30082fe070037
:1012ac000d00370050c0b3007ffe07000a00370066
:1012bc0060c0b3007cfe07000700370070c0b300ad
:1012cc0079fe0700040037000768ef0000000000fb
:1012dc0001003700000000000080fa00000006004a
:1012ec000000fa0015c8bf000004e00051003a00ed
:1012fc0006c8bf000080fb00e20f50002700320040
:10130c00e20f500005003c000000e0000800320035
:10131c00e10f50001f0032004d003700e30f50006a
:10132c0021003200e40f5000390032004800370031
:10133c0012c8bf000004e00009003a0011c8bf0049
:10134c000004e00006003a0014c8bf000004e000ee
:10135c0003003a0013c8bf000004e000370032005d
:10136c00a08e2000104078000004e00035003a0008
:10137c0011c0b300a08e200037000700c262a90084
:10138c0000000000c9c2a9002342a8000e68ef00ab
:10139c002f0037009dff07002d00370080c0b300e1
:1013ac0041fe07002a00370012c8bf000004e0000d
:1013bc0009003a0011c8bf000004e00006003a0022
:1013cc0014c8bf000004e00003003a0013c8bf00bb
:1013dc000004e0000600320040c0b30006e8b7008d
:1013ec008040eb00208e20001b0007001800370007
:1013fc00208e2000104078000004e00013003a001a
:10140c0011c0b300208e200013000700100037001d
:10141c000ec8bf000004e00003003a00a0c0b300f7
:10142c0021fe07000a003700b0c0b3001efe070003
:10143c000700370000000000050037000000000026
:10144c00030037000000000001003700000000001e
:10145c000080fa00000006000400fa00000f78007b
:10146c00214798001e0078008000eb0011009800c6
:10147c001e007800ae409000014878001e007800f5
:10148c008040eb00114098000080fa00000006003c
:10149c000400fa00000f7800214798001e00780025
:1014ac0010407800e14f500015003a001e00780003
:1014bc00100090008000e8001e00780011009800d9
:1014cc001e007800900090001e0078002000900014
:1014dc00808f50000d0039001e0078008000eb005a
:1014ec00110098001e00780011c0b3001140980044
:1014fc001e007800ae4090000148780003003700d1
:10150c001e0078008000eb00110098000080fa00ab
:10151c00000006000200fa00004f78001e80fb005d
:10152c000000e00003003200e10f50000e0032001a
:10153c00290037008040eb00208c2000d4ff0700ee
:10154c008040eb00a08c2000d1ff07008040eb0016
:10155c00a0892000ceff07008040eb00208a2000ed
:10156c00cbff07001c0037008040eb0020892000d7
:10157c00c7ff07008040eb00a08a2000c4ff0700d3
:10158c008040eb00208b2000c1ff07008040eb0067
:10159c00a08b2000beff07008040eb00208d2000b8
:1015ac00bbff07008040eb00a08d2000b8ff0700b8
:1015bc008040eb00208e2000b5ff07008040eb0040
:1015cc00a08e2000b2ff07008040eb00208f20008f
:1015dc00afff0700000000000080fa0000000600ca
:1015ec000000fa0020892000017d200021009800d5
:1015fc00a08920006100200021009800208a200092
:10160c006100200021009800a08a20002103200006
:10161c0021009800208b2000c15d20002100980043
:10162c00a08b200081bb200021009800208c200082
:10163c00011c220021009800a08c200061002000d9
:10164c0021009800208d20004106200021009800e8
:10165c00a08d20004106200021009800208e200043
:10166c00411f200021009800a08e2000813e200008
:10167c0021009800208f20002103200021009800d9
:10168c000080fa00000006000000fa00208920000b
:10169c0010409000e14f500007003a0020892000d4
:1016ac008040eb001140980020c0b30015e8b70053
:1016bc000040eb00bd010700a08a20001040900004
:1016cc00e14f50000b003a00a08a20008040eb0054
:1016dc001140980040c0b30000e8b70010c0b30040
:1016ec0012e8b70005e1a80011c0b300a0892000e2
:1016fc0059ff0700208b200010409000e14f500054
:10170c000c003a00208b20008040eb001140980028
:10171c000f68ef0020c0b30000e8b70010c0b300a2
:10172c0013e8b70005e1a80011c0b300208a20001f
:10173c0049ff0700a08b200010409000e14f5000a3
:10174c000b003a00a08b20008040eb001140980069
:10175c0010c0b3000fe8b7008040eb00a08c200055
:10176c003dff070030c0b30000e8b70005e1a8005a
:10177c00a089200010409000e14f50000b003a006f
:10178c00a08920008040eb00114098000fc8bf00da
:10179c00e14f500003003a0030c0b30000e8b7003e
:1017ac000200370060c0b30000e8b700208a2000b8
:1017bc0010409000e14f50000b003a00208a2000ae
:1017cc008040eb00114098000fc8bf00e14f500063
:1017dc0003003a0030c0b30000e8b7000200370045
:1017ec0060c0b30000e8b700208c200010409000cf
:1017fc00e14f500005003a00208c20008040eb00a7
:10180c001140980010c0b30011e8b700a08c200064
:10181c0010409000e14f50000a003a00a08c2000cc
:10182c008040eb001140980020c0b30000e8b700e6
:10183c0010c0b30013e8b70011c0b300208a200019
:10184c0005ff0700208d200010409000e14f500054
:10185c000f003a00208d20008040eb0011409800d2
:10186c0005c8bf000004e00002003a00cb22a8002b
:10187c000400370005c8bf00e14f500001003a00da
:10188c00cb02a80011c0b300a08d2000f2fe07000f
:10189c00a08d200010409000e14f50000f003a0046
:1018ac00a08d20008040eb0011409800cb22a900b5
:1018bc0000000000cb02a90004c8bf000040e900f2
:1018cc0004e8b70004c8bf000004e00003003200c5
:1018dc0011c0b300208d2000dffe0700208e2000f9
:1018ec0010409000e14f500008003a00208e20007c
:1018fc008040eb0011409800c262a800000000007c
:10190c002342a900c9c2a8000668ef00a08e2000df
:10191c0010409000e14f50000b003a00a08e2000c8
:10192c008040eb00114098000cc8bf00e14f500004
:10193c0003003a0030c0b30006e8b70002003700dd
:10194c0010c0b30006e8b700208f200010409000b4
:10195c00e14f500004003a00208f20008040eb0043
:10196c00114098000040fe000080fa0000000600c4
:10197c000000fa00113a8000007020000100700095
:10198c00103a880045e7a900213a8000f08f2f001b
:10199c0000806000203a8800e024ef00e224ef0091
:1019ac00c222ef00ca22ef00c062a900c902a9003e
:1019bc00c922a900c9c2a90005e1a800210880001c
:1019cc00f0cf2f00008060000090a000200888005d
:1019dc0021088000f0fc2f00008060000040a00077
:1019ec00200888000421a8000021ef00e0752900e0
:1019fc00100888000a41a8005108800070f82f00d8
:101a0c00008060005008880051088000c0ff2f0043
:101a1c00008060000010a0005008880050c0b30087
:101a2c0006e1b70021e2a8002162a8002062a8000c
:101a3c002342a80000012000401188006e00a8007d
:101a4c006e20a8006200a8006220a80057e7a8003a
:101a5c0056a7a800b13a800000ff2f00008060005c
:101a6c006000b300b03a88008460a9009460a800bc
:101a7c0084e0a90094e0a8008560a9009560a80006
:101a8c008660a9009660a8008d00a9009d00a800a2
:101a9c00c262a90000000000cb22a90000000000d7
:101aac00cb02a9000080fa00000006000000fa003a
:101abc000068ef000668ef000c68ef000d68ef009f
:101acc000768ef001568ef00101680004400de0078
:101adc00614060008fe8b700501680004400de00c3
:101aec006140600090e8b700501680007000600004
:101afc000000e00002003a0010c0b3000fe8b7008d
:101b0c0011c0b300a08e200053fe07000080fa0025
:101b1c00000006000000fa0000c8bf000080fb00b7
:101b2c00e30f50002f003200e30f500007003c0081
:101b3c00e10f50000c003200e10f50001a003c0085
:101b4c000000e0005c00320056003700e50f50004a
:101b5c0043003200e50f500032003500e60f500014
:101b6c004e0032004f003700104080000000e800ab
:101b7c0010408800104080000000e000500032004f
:101b8c000228ef0020c0b30004e8b70010c0b30077
:101b9c0005e8b700cb02a80011c0b300a08d20004f
:101bac002dfe07004f003700104080000000e800b9
:101bbc0010408800104080000000e000420032001d
:101bcc000228ef0050c0b30004e8b7000568ef002e
:101bdc00cb22a80011c0b300a08d20001efe070070
:101bec0040003700104080000000e80010408800e2
:101bfc00104080000000e000350032000228ef00a9
:101c0c0010c0b30004e8b70010c0b30005e8b7007b
:101c1c00cb02a80011c0b300a08d20000efe07005f
:101c2c0030003700104080000000e80010408800b1
:101c3c00104080000000e000270032000228ef0076
:101c4c0020c0b30004e8b7000568ef00cb22a80061
:101c5c0011c0b300a08d2000fffd0700210037004c
:101c6c00104080000000e800104088001040800008
:101c7c000000e0001a0032000228ef00a0c0b30000
:101c8c0004e8b7000568ef00cb22a80011c0b30030
:101c9c00a08d2000f0fd07001200370005e1a9001f
:101cac00100037000228ef00cb22a9000000000032
:101cbc00cb02a9000b003700000000000900370020
:101ccc00000000000700370000000000050037008e
:101cdc000000000003003700000000000100370086
:101cec00000000000080fa00000006000000fa006e
:101cfc00018020009140780001c8bf0080cf5000c7
:101d0c000700320000c8bf0001e8b7000228ef004e
:101d1c00cb22a90000000000cb02a9008460a8001f
:101d2c0010168000680060000000e0001700320010
:101d3c0004c8bf000004e00014003a00a08a200090
:101d4c00104078000004e00010003a00208b2000c6
:101d5c00104078000004e0000c003a00a08b20003a
:101d6c00104078000004e00008003a00208f2000aa
:101d7c00104078000004e00007003a0011c0b300e6
:101d8c00208f2000b4fd0700030037008040eb00db
:101d9c00208f2000b0fd07000080fa000000060034
:101dac000000fa000080fa00000006000200fa00b1
:101dbc00004f78001e80fb00e10f50000f00320036
:101dcc00e20f5000180032000000e00021003a0041
:101ddc0009c8bf000040e80009e8b70009c8bf0007
:101dec00e24f50001d0036000968ef001568ef0047
:101dfc000768ef008efb07001d0037000ac8bf0004
:101e0c000040e8000ae8b7000ac8bf00e24f5000e3
:101e1c00140036000a68ef001568ef000768ef0041
:101e2c0083fb0700120037000bc8bf000040e8001e
:101e3c000be8b7000bc8bf00e24f50000b00360098
:101e4c000b68ef001568ef000768ef0078fb0700e0
:101e5c0007003700000000000500370000000000fc
:101e6c0003003700000000000100370000000000f4
:101e7c000080fa00000006000200fa00004f780013
:101e8c0015c8bf00e14f500024003a0016c8bf002f
:101e9c000081fb0061812000810041001e4178001f
:101eac00924098000040e80016e8b7001e40780009
:101ebc00ea4f50000b003a0008c8bf00e14f500039
:101ecc0002003a000868ef00060037008040eb0083
:101edc002089200060fd07000968ef0030c0b300c6
:101eec0015e8b7006181200091407800b0c3b300c1
:101efc0080cf5000080036001668ef008040eb00e1
:101f0c002089200054fd07001568ef0010c0b300b5
:101f1c00a6ff0700010037000a68ef000080fa00f6
:101f2c00000006000200fa000040eb00004f7800b1
:101f3c000f0037001e80fb00210520008080400030
:101f4c000080200000804000104090000080fb00ca
:101f5c0020118800000000001111800000102000ea
:101f6c00008060000000e000fbff32001e4fe80024
:101f7c001e80fb0021052000808040000080200096
:101f8c0000804000104090000004e000e9ff3a009f
:101f9c000080fa00000006000000fa0015c8bf001f
:101fac000080fb00e10f50001e003200e10f5000da
:101fbc001e003400e20f500003003200e30f50000b
:101fcc00080032001a00370010c0b30015e8b70043
:101fdc00d4ff070011c0b300208920001efd0700ac
:101fec0013003700e6fb07000004e0000500320098
:101ffc0020c0b30015e8b70020c0b3006bff07008a
:10200c00020037001568ef000b68ef001668ef0050
:10201c00c20320008000eb00708120002cfa070026
:10202c000300370000000000010037000000000032
:10203c0010118000620060000000e000010032001e
:10204c002222a9000080fa00000006000000fa001d
:10205c0047fe070062fd070094fe070023ff070000
:10206c009ffc0700ccff070087fd0700fbff370034
:020000040000fa
:10207c000008000092000000000000009208000020
:0c208c00680000000000000000000000e0
:020000040000fa
:0200000401f009
:04000000ffff0000fe
:020000040000fa
:0200000401f009
:04000800ffff0000f6
:020000040000fa
:0200000401f009
:04000c0018ff0000d9
:020000040000fa
:0200000401f009
:04001000dbff000012
:020000040000fa
:0200000401f009
:040014005fff00008a
:020000040000fa
:0200000401f009
:04001800fcff0000e9
:020000040000fa
:0200000401f009
:04001c00feff0000e3
:00000001FF
