:020000040000fa
:080000000002040000000000f2
:020000040000fa
:0400080016040000da
:020000040000fa
:04000c0016040000d6
:020000040000fa
:0400100016040000d2
:020000040000fa
:0400140016040000ce
:020000040000fa
:0400180016040000ca
:020000040000fa
:04001c0016040000c6
:020000040000fa
:0400200016040000c2
:020000040000fa
:0400240016040000be
:020000040000fa
:0400280016040000ba
:020000040000fa
:04002c0016040000b6
:020000040000fa
:0400300016040000b2
:020000040000fa
:04003400c8020000fe
:020000040000fa
:0400380016040000aa
:020000040000fa
:04003c0016040000a6
:020000040000fa
:0400400016040000a2
:020000040000fa
:04004400f6020000c0
:020000040000fa
:04004800160400009a
:020000040000fa
:04004c001604000096
:020000040000fa
:040050001604000092
:020000040000fa
:040054005403000051
:020000040000fa
:04005800160400008a
:020000040000fa
:04005c001604000086
:020000040000fa
:040060001604000082
:020000040000fa
:04006400160400007e
:020000040000fa
:04006800160400007a
:020000040000fa
:04006c001604000076
:020000040000fa
:040070001604000072
:020000040000fa
:040074007e03000007
:020000040000fa
:04007800160400006a
:020000040000fa
:04007c001604000066
:020000040000fa
:040080001604000062
:020000040000fa
:04008400160400005e
:020000040000fa
:04008800160400005a
:020000040000fa
:04008c001604000056
:020000040000fa
:040090001604000052
:020000040000fa
:04009400160400004e
:020000040000fa
:04009800160400004a
:020000040000fa
:04009c001604000046
:020000040000fa
:0400a0001604000042
:020000040000fa
:0400a400160400003e
:020000040000fa
:0400a800160400003a
:020000040000fa
:0400ac001604000036
:020000040000fa
:0400b0001604000032
:020000040000fa
:0400b400160400002e
:020000040000fa
:0400b800160400002a
:020000040000fa
:0400bc001604000026
:020000040000fa
:0400c0001604000022
:020000040000fa
:0400c400160400001e
:020000040000fa
:0400c800160400001a
:020000040000fa
:0400cc001604000016
:020000040000fa
:0400d0001604000012
:020000040000fa
:0400d400160400000e
:020000040000fa
:0400d800160400000a
:020000040000fa
:0400dc001604000006
:020000040000fa
:0400e0001604000002
:020000040000fa
:0400e40016040000fe
:020000040000fa
:0400e80016040000fa
:020000040000fa
:0400ec0016040000f6
:020000040000fa
:0400f00016040000f2
:020000040000fa
:0400f40016040000ee
:020000040000fa
:0400f80016040000ea
:020000040000fa
:0400fc0016040000e6
:020000040000fa
:0401000016040000e1
:020000040000fa
:0401040016040000dd
:020000040000fa
:0401080016040000d9
:020000040000fa
:04010c0016040000d5
:020000040000fa
:0401100016040000d1
:020000040000fa
:0401140016040000cd
:020000040000fa
:0401180016040000c9
:020000040000fa
:04011c0016040000c5
:020000040000fa
:0401200016040000c1
:020000040000fa
:0401240016040000bd
:020000040000fa
:0401280016040000b9
:020000040000fa
:04012c0016040000b5
:020000040000fa
:0401300016040000b1
:020000040000fa
:0401340016040000ad
:020000040000fa
:0401380016040000a9
:020000040000fa
:04013c0016040000a5
:020000040000fa
:0401400016040000a1
:020000040000fa
:04014400160400009d
:020000040000fa
:0401480002040000ad
:020000040000fa
:04014c001604000095
:020000040000fa
:040150001604000091
:020000040000fa
:04015400160400008d
:020000040000fa
:040158001604000089
:020000040000fa
:04015c001604000085
:020000040000fa
:040160001604000081
:020000040000fa
:04016400160400007d
:020000040000fa
:040168001604000079
:020000040000fa
:0402080016040000d8
:020000040000fa
:04020c0016040000d4
:020000040000fa
:0402100016040000d0
:020000040000fa
:0402140016040000cc
:020000040000fa
:0402180016040000c8
:020000040000fa
:04021c0016040000c4
:020000040000fa
:0402200016040000c0
:020000040000fa
:0402240016040000bc
:020000040000fa
:0402280016040000b8
:020000040000fa
:04022c0016040000b4
:020000040000fa
:0402300016040000b0
:020000040000fa
:0402340016040000ac
:020000040000fa
:0402380016040000a8
:020000040000fa
:04023c0016040000a4
:020000040000fa
:0402400016040000a0
:020000040000fa
:04024400160400009c
:020000040000fa
:040248001604000098
:020000040000fa
:04024c001604000094
:020000040000fa
:040250001604000090
:020000040000fa
:04025400160400008c
:020000040000fa
:040258001604000088
:020000040000fa
:04025c001604000084
:020000040000fa
:040260001604000080
:020000040000fa
:04026400160400007c
:020000040000fa
:040268001604000078
:020000040000fa
:04026c001604000074
:020000040000fa
:040270001604000070
:020000040000fa
:04027400160400006c
:020000040000fa
:040278001604000068
:020000040000fa
:04027c001604000064
:020000040000fa
:040280001604000060
:020000040000fa
:04028400160400005c
:020000040000fa
:040288001604000058
:020000040000fa
:04028c001604000054
:020000040000fa
:040290001604000050
:020000040000fa
:04029400160400004c
:020000040000fa
:040298001604000048
:020000040000fa
:04029c001604000044
:020000040000fa
:0402a0001604000040
:020000040000fa
:0402a400160400003c
:020000040000fa
:0402a8001604000038
:020000040000fa
:0402ac001604000034
:020000040000fa
:0402b0001604000030
:020000040000fa
:0402b400160400002c
:020000040000fa
:0402b8001604000028
:020000040000fa
:0402bc001604000024
:020000040000fa
:0402c0001604000020
:020000040000fa
:0402c400160400001c
:020000040000fa
:0402c8001604000018
:020000040000fa
:0402cc001604000014
:020000040000fa
:0402d0001604000010
:020000040000fa
:0402d400160400000c
:020000040000fa
:0402d8001604000008
:020000040000fa
:0402dc001604000004
:020000040000fa
:0402e0001604000000
:020000040000fa
:0402e40016040000fc
:020000040000fa
:0402e80016040000f8
:020000040000fa
:0402ec0016040000f4
:020000040000fa
:0402f00016040000f0
:020000040000fa
:0402f40016040000ec
:020000040000fa
:0402f80016040000e8
:020000040000fa
:0402fc0016040000e4
:020000040000fa
:0403000016040000df
:020000040000fa
:0403040016040000db
:020000040000fa
:0403080016040000d7
:020000040000fa
:04030c0016040000d3
:020000040000fa
:0403100016040000cf
:020000040000fa
:0403140016040000cb
:020000040000fa
:0403180016040000c7
:020000040000fa
:04031c0016040000c3
:020000040000fa
:0403200016040000bf
:020000040000fa
:0403240016040000bb
:020000040000fa
:0403280016040000b7
:020000040000fa
:04032c0016040000b3
:020000040000fa
:0403300016040000af
:020000040000fa
:0403340016040000ab
:020000040000fa
:0403380016040000a7
:020000040000fa
:04033c0016040000a3
:020000040000fa
:04034000160400009f
:020000040000fa
:04034400160400009b
:020000040000fa
:040348001604000097
:020000040000fa
:04034c001604000093
:020000040000fa
:04035000160400008f
:020000040000fa
:04035400160400008b
:020000040000fa
:040358001604000087
:020000040000fa
:04035c001604000083
:020000040000fa
:04036000160400007f
:020000040000fa
:04036400160400007b
:020000040000fa
:040368001604000077
:020000040000fa
:100400008f8d20000e9f20000e018800000000004c
:10041000000020000000e000020032000001200087
:100420002002880014000700020107000000e0001d
:1004300003003a00c0dd2000010020000200370068
:100440000000200001002000810f70000100320038
:1004500014000700000020000000e000020032004d
:100460000000020000000000c80d020000000000b3
:100470000040da000000fe004440a9008012200085
:100480000000e0000300320000002000a00188000e
:100490004440a800000006008a1f78008b1f7800e7
:1004a0000000060091018800800478000000eb0045
:1004b0001a003700e284440032a0b4009905ba0063
:1004c000e284440032a0b4009906ba00e2844400f9
:1004d00032a0b4000006eb00476fde00fd07b2005b
:1004e000636ce10003003a00ebff07000000eb0043
:1004f0000a003700606ce10004003a00005deb0088
:100500008b05e900fdff3e00040037006168e10053
:10051000010032000086eb000b00070019c7ba008b
:100520001905ba000e04e00003003a000a00e000da
:10053000e0ff3a0000000600fe07b2009e018800be
:100540008a047800f5ff3700395dba008b05e900b1
:100550000c003200295dba008b05e900080032006a
:100560000c00e00003003a00e284440032a0b40032
:10057000f5ff370019ddba008b05e900faff3a00f4
:100580008904e800e184440032a0b40000000600c1
:100590003600f800809fbe00829fbe00849fbe0090
:1005a000869fbe003400f80000002000a0018800f3
:1005b0000000fa008460a900108a26000008880064
:1005c0000040eb00ff020700240407000080fa004f
:1005d0003400f9004f03be004f02be004f01be00c1
:1005e0004f00be003600f900004006003600f8005b
:1005f000809fbe00829fbe00849fbe00869fbe007b
:100600003400f80000002000a00188000000fa007b
:1006100084e0a90050c0b30006e1b70010c0b300e9
:10062000e802070000c8bf000004e00016003a001e
:1006300011408000700c2000808f500001003600b7
:100640000228ef001140800010c0b30032062000e5
:10065000828f5000010036000040eb008100e8006e
:10066000114088000004e00004003200cb22a80002
:1006700000000000cb02a90003003700cb22a90034
:1006800000000000cb02a8000080fa003400f9004e
:100690004f03be004f02be004f01be004f00be0020
:1006a0003600f900004006003600f800809fbe00ca
:1006b000829fbe00849fbe00869fbe003400f8006b
:1006c00000002000a00188000000fa008560a90059
:1006d0003011800000407800b80407000080fa0064
:1006e0003400f9004f03be004f02be004f01be00b0
:1006f0004f00be003600f900004006003600f8004a
:10070000809fbe00829fbe00849fbe00869fbe0069
:100710003400f80000002000a00188000000fa006a
:100720008660a900101680004400de006140600071
:100730008080fb008dc8bf000080fb00808f5000d0
:100740000f003200101680004400de00614060009f
:100750008de8b70010168000700060000000e00017
:1007600004003a0011c0b300808a2000660207002e
:10077000030037008040eb00808a200062020700ff
:10078000501680004400de00614060008080fb0065
:100790008ec8bf000080fb00808f50001100320027
:1007a000501680004400de00614060008ee8b70013
:1007b00050168000700060000000e000040032006d
:1007c00011c0b300008b20004f0207000500370066
:1007d0008040eb00008b20004b02070010c0b300ec
:1007e0000de8b7000080fa003400f9004f03be00a6
:1007f0004f02be004f01be004f00be003600f900a0
:10080000004006003400f800881f7800080020002f
:10081000a80188004f0478000000fa008d00a900ac
:100820000080fa003400f900004006000040da00c1
:100830000000fe0000000500800178000200370083
:10084000b15978000201e9000200e000fcff3a0023
:10085000000006008001780002003700815978000e
:100860000201e9000200e000fcff3a00000006007f
:10087000020037000204e0000b0032008101780022
:100880000002780030417800b14f5100f9ff32008a
:100890001000200014427800934f520003003100f2
:1008a0000080eb00000006000000eb0000000600e6
:020000040000fa
:1008b000737900007320000072650000736500000a
:1008c000740d00000a0000006d610000632000004c
:1008d0007265000073650000740d00000a000000de
:1008e0006d6100006320000073650000742000004b
:1008f00064650000766100006464000072200000fe
:100900003030000031410000443300004545000014
:100910000d0a0000006d00006163000020730000fc
:1009200065740000206e0000776b0000736b0000a0
:100930006579000020320000423700004531000098
:1009400035310000363200003841000045440000d7
:1009500032410000364100004246000037310000bd
:1009600035380000383000003943000046340000bc
:1009700046330000430d00000a0000006d610000d6
:1009800063200000736500007420000061700000a7
:10099000707300006b650000792000003242000097
:1009a0003745000031350000313600003238000094
:1009b0004145000044320000413600004142000041
:1009c000463700003135000038380000303900006b
:1009d0004346000034460000334300000d0a000087
:1009e000006d000061630000206a00006f69000074
:1009f0006e20000061620000700d00000a0000001f
:100a00006d61000063200000736500007420000029
:100a100061640000722000006f6e00000d0a00008b
:100a2000006d00006163000020730000617600002b
:100a3000650d00000a0000006d61000063200000e9
:100a400074780000206300006e6600002031000012
:100a500020310000300000006d61000063200000c4
:100a600074780000206300006e66000020310000f2
:100a700020320000300000006d61000063200000a3
:100a800074780000206300006e66000020310000d2
:100a900020330000300000006d6100006320000082
:100aa00074780000206300006e66000020310000b2
:100ab00020340000300000006f6b00000d0a0000c1
:100ac000006f00006b0d00000a610000636300000e
:100ad0006570000074650000640d00000a000000ed
:100ae0006f6b00000d0a00006d610000635f000085
:100af000747800005f6f00006b0d00000a000000ba
:020000040000fa
:100b00000200fa00004f780000892000017d2000db
:100b100021009800c20320008000eb001085200017
:100b20004cff07001e417800718020008248780049
:100b30001e80fb00e50f50002b003200e50f500037
:100b40000c003c00e20f500018003200e20f500091
:100b500003003c00e10f50000f0032006a00370034
:100b6000e30f500016003200e40f5000190032006d
:100b700065003700e70f50002a003200e70f5000f1
:100b80001e003500e80f50002b003200e90f500026
:100b9000310032005c00370010852000c2002000c8
:100ba0008145280024ff07005700370010852000ea
:100bb000c2002000414628001fff070052003700f6
:100bc00010852000b2012000014728001aff07000d
:100bd0004d0037001085200032032000b148280066
:100be00015ff070048003700108520003203200061
:100bf000e14b280010ff070043003700108520005c
:100c0000f2002000114f28000bff07000089200090
:100c1000015327002100980010c0b30008e8b70076
:100c200039003700108520001201200001502800f3
:100c300001ff07003400370010852000b2002000bb
:100c400011512800fcfe0700008920008138210096
:100c5000210098002c0037000fc8bf000004e000fe
:100c6000060032001085200002012000c15128003a
:100c7000f1fe07000e68ef001d00370010c8bf002e
:100c80000004e0000700320010852000020120006f
:100c9000c1522800e8fe070010c0b3000ee8b700fc
:100ca0001300370011c8bf000004e0000700320045
:100cb0001085200002012000c1532800defe07003d
:100cc00020c0b3000ee8b7000900370012c8bf000b
:100cd0000004e00006003200108520000201200020
:100ce000c1542800d4fe070030c0b3000ee8b7009e
:100cf00000892000015327002100980010c0b30094
:100d000008e8b7000000000020c0b30013e8b700f7
:100d10000080fa00000006000200fa0010c0b300d4
:100d2000004f780007c8bf000080fb00e50f5000af
:100d300032003200e50f50000c003c00e20f500082
:100d400016003200e20f500003003c00e10f50009b
:100d50000f0032006e003700e30f50001700320022
:100d6000e40f50001d00320069003700e70f50000b
:100d700032003200e70f500028003500e80f500025
:100d800036003200e90f50004800320060003700a2
:100d90000040eb00004f78005d00370050812000dc
:100da000c1552800b2fe07000000e00049003a00eb
:100db0000040eb00004f78005500370050812000c4
:100dc000c1552800aafe07000000e00043003a00d9
:100dd0000040eb00004f78004d00370050812000ac
:100de000c1552800a2fe07000000e0003d003a00c7
:100df0000040eb00004f7800450037005081200094
:100e0000c15528009afe07000000e00037003a00b4
:100e10000040eb00004f78003d003700508120007b
:100e20001156280092fe07000000e00031003a0051
:100e30000040eb00004f7800350037005081200063
:100e4000c15528008afe07000000e0002b003a0090
:100e50000040eb00004f78002d003700508120004b
:100e6000c155280082fe07000000e00025003a007e
:100e70000040eb00004f780010c0b30000e8b7005e
:100e800020c0b30006e8b70010c0b3000ce8b700fc
:100e900011c0b300008c20009b000700cb22a900ea
:100ea00000000000cb02a90019003700508120008b
:100eb000015728006efe07000000e00013003a0012
:100ec0000040eb00004f780020c0b30006e8b700f8
:100ed0000f003700000000000d0037000000000088
:100ee0000b00370000000000090037000000000080
:100ef0000700370000000000050037000000000078
:100f0000030037000000000001003700000000006f
:100f10001e4078000080fa00000006000000fa0081
:100f200007c8bf000040e80007e8b70007c8bf00d7
:100f30000080fb00e40f500020003200e40f50005e
:100f40000c003c00e10f500013003200e10f500094
:100f500003003c000000e0002a00320026003700b9
:100f6000e20f50000f003200e30f5000100032007b
:100f700021003700e60f500016003200e60f500047
:100f800011003500e70f500015003200e80f500047
:100f9000160032001800370010c0b300d8fe07005a
:100fa0001900370020c0b300d5fe07001600370037
:100fb00030c0b300d2fe07001300370040c0b300ba
:100fc000cffe07001000370050c0b300ccfe070072
:100fd0000d00370060c0b300c9fe07000a003700eb
:100fe00070c0b300c6fe07000700370080c0b30022
:100ff000c3fe0700040037000768ef000000000090
:1010000001003700000000000080fa000000060028
:101010000000fa0006c8bf000080fb00e10f50008e
:1010200007003200e10f500028003400e20f5000aa
:101030000b003200e30f50001e003200300037007a
:1010400013c8bf000004e00022003a000cc8bf0033
:101050000004e00021003a00b0ff0700280037003c
:1010600013c8bf000004e0001e003a000cc8bf0017
:10107000e14f50001d003a0010c8bf000004e0001e
:1010800009003a000fc8bf000004e00006003a0063
:1010900012c8bf000004e00003003a0011c8bf00fe
:1010a0000004e0001300320030c0b30006e8b700cf
:1010b0001300370013c8bf000004e0000f003a001f
:1010c00090c0b3008efe07000d0037000000000046
:1010d0000b0037000000000009003700000000008e
:1010e0000700370000000000050037000000000086
:1010f000030037000000000001003700000000007e
:101100000080fa00000006000400fa00000f7800da
:10111000214798001e0078008000eb001100980025
:101120001e007800ae409000014878001e00780054
:101130008040eb00114098000080fa00000006009b
:101140000400fa00000f7800214798001e00780084
:1011500010407800e14f500015003a001e00780062
:10116000100090008000e8001e0078001100980038
:101170001e007800900090001e0078002000900073
:10118000808f50000d0039001e0078008000eb00b9
:10119000110098001e00780011c0b30011409800a3
:1011a0001e007800ae409000014878000300370030
:1011b0001e0078008000eb00110098000080fa000b
:1011c000000006000200fa00004f78001e80fb00bd
:1011d0000000e00003003200e10f50000e0032007a
:1011e0001d0037008040eb00808b2000d4ff0700fb
:1011f0008040eb00008c2000d1ff07008040eb0016
:1012000080892000ceff07008040eb00008a20008c
:10121000cbff0700100037008040eb000089200062
:10122000c7ff07008040eb00808a2000c4ff070052
:101230008040eb00008b2000c1ff07008040eb00e6
:10124000808c2000beff07008040eb00008d200056
:10125000bbff0700000000000080fa00000006004d
:101260000000fa0000892000017d20002100980084
:10127000808920002100200021009800008a2000a1
:101280002100200021009800808a200021032000f6
:1012900021009800008b200081bb200021009800d5
:1012a000808b2000011c220021009800008c20006f
:1012b0002100200021009800808c2000810c20005b
:1012c00021009800008d2000810c20002100980052
:1012d0000080fa00000006000000fa0000892000eb
:1012e00010409000e14f500007003a0000892000b4
:1012f0008040eb001140980020c0b30013e8b70015
:101300000040eb007a010700808a20001040900026
:10131000e14f50000a003a00808a20008040eb0034
:101320001140980040c0b30000e8b70010c0b300ff
:1013300010e8b70011c0b3008089200072ff0700d9
:10134000008b200010409000e14f50000b003a004d
:10135000008b20008040eb00114098000d68ef00ea
:1013600020c0b30000e8b70010c0b30011e8b70018
:1013700011c0b300008a200063ff070080892000ad
:1013800010409000e14f50000d003a00808920008d
:101390008040eb001140980060c0b30000e8b70047
:1013a0000dc8bf00e14f500003003a0030c0b30049
:1013b00000e8b7000200370060c0b30000e8b700e3
:1013c000008a200010409000e14f50000b003a00ce
:1013d000008a20008040eb00114098000dc8bf003b
:1013e000e14f500003003a0030c0b30000e8b700fe
:1013f0000200370060c0b30000e8b700808b200017
:1014000010409000e14f500005003a00808b200012
:101410008040eb001140980010c0b3000fe8b70007
:10142000008c200010409000e14f50000a003a006c
:10143000008c20008040eb001140980020c0b300d9
:1014400000e8b70010c0b30011e8b70011c0b30046
:10145000008a20002cff0700808c200010409000a4
:10146000e14f50000f003a00808c20008040eb00dc
:101470001140980005c8bf000004e00002003a00d7
:10148000cb22a8000400370005c8bf00e14f500080
:1014900001003a00cb02a80011c0b300008d20006b
:1014a00019ff0700008d200010409000e14f500010
:1014b0000f003a00008d20008040eb0011409800a2
:1014c000cb22a90000000000cb02a90004c8bf0085
:1014d0000040e90004e8b70004c8bf000004e000d1
:1014e0000300320011c0b300808c200006ff07000b
:1014f0000080fa00000006000000fa00113a8000a7
:101500000070200001007000103a880045e7a90033
:10151000213a8000f08f2f0000806000203a880080
:10152000e024ef00e224ef00c222ef00ca22ef0025
:10153000c022ef00c822ef00c262a800c082a8004b
:10154000c882a800c9e2a80005e1a800210880001f
:10155000f0cf2f00008060000090a00020088800dd
:1015600021088000f0fc2f00008060000040a000f7
:10157000200888000421a800108a2600000888009e
:101580000a41a8005108800070f82f000080600018
:101590005008880051088000c0ff2f0000806000c4
:1015a0000010a0005008880050c0b30006e1b7004a
:1015b00021e2a8002162a8002062a8002342a8001e
:1015c00000012000401188006e00a8006e20a800d5
:1015d0006200a8006220a80057e7a80056a7a8004c
:1015e000b13a800000ff2f00008060006000b3006f
:1015f000b03a88008460a9009460a80084e0a90043
:1016000094e0a8008560a9009560a8008660a90004
:101610009660a8008d00a9009d00a800c262a900e4
:1016200000000000cb22a90000000000cb02a900ae
:101630000080fa00000006000000fa000068ef00d9
:1016400010c0b30006e8b7000c68ef000768ef00b1
:101650001368ef000080fa00000006000000fa00a6
:1016600000c8bf000080fb00e30f50002f003200d5
:10167000e30f500007003c00e10f50000c00320067
:10168000e10f50001a003c000000e0005a00320058
:1016900054003700e50f500043003200e50f5000c2
:1016a00032003500e60f5000550032004d00370083
:1016b000104080000000e8001040880010408000ca
:1016c0000000e000500032000228ef0010c0b3001c
:1016d00004e8b70010c0b30005e8b700cb02a800cb
:1016e00011c0b300008d200087fe07004f003700b7
:1016f000104080000000e80010408800104080008a
:101700000000e000420032000228ef0050c0b300a9
:1017100004e8b7000568ef00cb22a80011c0b300b1
:10172000008d200078fe0700400037001040800048
:101730000000e8001040880010408000e50f5000d5
:10174000350036000228ef0010c0b30004e8b700ef
:1017500010c0b30005e8b700cb02a80011c0b30069
:10176000008d200068fe0700300037001040800028
:101770000000e80010408800104080000000e000f9
:10178000270032000228ef0020c0b30004e8b700b1
:101790000568ef00cb22a80011c0b300008d200027
:1017a00059fe070021003700104080000000e800cb
:1017b00010408800104080000000e0001a00320055
:1017c0000228ef00a0c0b30004e8b7000568ef00ee
:1017d000cb22a80011c0b300008d20004afe0700f4
:1017e000120037000228ef00cb22a9000000000001
:1017f000cb02a9000d003700000000000b003700ed
:10180000000000000900370000000000070037005a
:101810000000000005003700000000000300370052
:101820000000000001003700000000000080fa0006
:10183000000006000000fa00000000000180200007
:101840009140780001c8bf0080cf500005003200f1
:1018500000c8bf0001e8b7008460a800108a260015
:10186000000888000080fa00000006000000fa006e
:101870000080fa00000006000000fa0006c8bf0061
:10188000e34f500018003a000ec8bf000080fb0074
:10189000e10f50000c003200e10f500003003c004b
:1018a0000000e000060032000d003700e20f50009b
:1018b00007003200e30f5000070032000800370035
:1018c0000f68ef00060037001068ef0004003700d3
:1018d0001168ef00020037001268ef0000000000fe
:1018e00020c0b30006e8b7000080fa000000060040
:1018f0000200fa00004f78001e80fb00e10f50004c
:101900000f003200e20f5000180032000000e0002b
:1019100021003a0009c8bf000040e80009e8b7000c
:1019200009c8bf00e24f50001d0036000968ef00f3
:101930001368ef000768ef00cfff07001d003700b6
:101940000ac8bf000040e8000ae8b7000ac8bf00a4
:10195000e24f5000140036000a68ef001368ef00f1
:101960000768ef00c4ff0700120037000bc8bf0074
:101970000040e8000be8b7000bc8bf00e24f500082
:101980000b0036000b68ef001368ef000768ef00ec
:10199000b9ff07000700370000000000050037000e
:1019a00000000000030037000000000001003700c5
:1019b000000000000080fa00000006000200fa00ab
:1019c000004f780013c8bf00e14f500024003a00d8
:1019d00014c8bf000081fb0041812000810041004c
:1019e0001e417800924098000040e80014e8b700db
:1019f0001e407800ea4f50000b003a0008c8bf00b4
:101a0000e14f500002003a000868ef00060037007e
:101a10008040eb0000892000bbfd07000968ef0053
:101a200030c0b30013e8b700418120009140780036
:101a3000b0c3b30080cf5000080036001468ef0038
:101a40008040eb0000892000affd07001368ef0025
:101a500010c0b300a6ff0700010037000a68ef00be
:101a60000080fa00000006000200fa000040eb00cf
:101a7000004f78000f0037001e80fb00010520009a
:101a800080804000008020000080400010409000d6
:101a90000080fb0020118800000000001111800070
:101aa00000102000008060000000e000fbff32001a
:101ab0001e4fe8001e80fb000105200080804000d2
:101ac0000080200000804000104090000004e000f2
:101ad000e9ff3a000080fa00000006000000fa006a
:101ae00013c8bf000080fb00e10f50001e00320051
:101af000e10f50001e003400e20f500003003200de
:101b0000e30f5000080032001a00370010c0b30085
:101b100013e8b700d4ff070011c0b300008920000c
:101b200079fd0700130037007bfc07000004e0008c
:101b30000500320020c0b30013e8b70020c0b30096
:101b40006bff0700020037001368ef000b68ef001f
:101b50001468ef00c20320008000eb0050812000d9
:101b60003cfb0700030037000000000001003700c5
:101b70000000000010118000620060000000e00022
:101b8000010032002222a9000080fa0000000600b5
:101b90000000fa0058fe0700a7fe0700b0fd07008e
:101ba0000060fe0023ff070019fd0700cbff0700c0
:081bb000c9fd0700faff370030
:020000040000fa
:101bb80000080000900000000000000090080000ed
:0c1bc800480000000000000000000000c9
:020000040000fa
:0200000401f009
:04000000ffff0000fe
:020000040000fa
:0200000401f009
:04000800ffff0000f6
:020000040000fa
:0200000401f009
:04000c0018ff0000d9
:020000040000fa
:0200000401f009
:04001000dbff000012
:020000040000fa
:0200000401f009
:040014005fff00008a
:020000040000fa
:0200000401f009
:04001800fcff0000e9
:020000040000fa
:0200000401f009
:04001c00feff0000e3
:00000001FF
