:020000040000fa
:080000000002040000000000f2
:020000040000fa
:0400080012040000de
:020000040000fa
:04000c0012040000da
:020000040000fa
:0400100012040000d6
:020000040000fa
:0400140012040000d2
:020000040000fa
:0400180012040000ce
:020000040000fa
:04001c0012040000ca
:020000040000fa
:0400200012040000c6
:020000040000fa
:0400240012040000c2
:020000040000fa
:0400280012040000be
:020000040000fa
:04002c0012040000ba
:020000040000fa
:0400300012040000b6
:020000040000fa
:04003400c8020000fe
:020000040000fa
:0400380012040000ae
:020000040000fa
:04003c0012040000aa
:020000040000fa
:0400400012040000a6
:020000040000fa
:04004400f6020000c0
:020000040000fa
:04004800120400009e
:020000040000fa
:04004c00120400009a
:020000040000fa
:040050001204000096
:020000040000fa
:040054005403000051
:020000040000fa
:04005800120400008e
:020000040000fa
:04005c00120400008a
:020000040000fa
:040060001204000086
:020000040000fa
:040064001204000082
:020000040000fa
:04006800120400007e
:020000040000fa
:04006c00120400007a
:020000040000fa
:040070001204000076
:020000040000fa
:040074007e03000007
:020000040000fa
:04007800120400006e
:020000040000fa
:04007c00120400006a
:020000040000fa
:040080001204000066
:020000040000fa
:040084001204000062
:020000040000fa
:04008800120400005e
:020000040000fa
:04008c00120400005a
:020000040000fa
:040090001204000056
:020000040000fa
:040094001204000052
:020000040000fa
:04009800120400004e
:020000040000fa
:04009c00120400004a
:020000040000fa
:0400a0001204000046
:020000040000fa
:0400a4001204000042
:020000040000fa
:0400a800120400003e
:020000040000fa
:0400ac00120400003a
:020000040000fa
:0400b0001204000036
:020000040000fa
:0400b4001204000032
:020000040000fa
:0400b800120400002e
:020000040000fa
:0400bc00120400002a
:020000040000fa
:0400c0001204000026
:020000040000fa
:0400c4001204000022
:020000040000fa
:0400c800120400001e
:020000040000fa
:0400cc00120400001a
:020000040000fa
:0400d0001204000016
:020000040000fa
:0400d4001204000012
:020000040000fa
:0400d800120400000e
:020000040000fa
:0400dc00120400000a
:020000040000fa
:0400e0001204000006
:020000040000fa
:0400e4001204000002
:020000040000fa
:0400e80012040000fe
:020000040000fa
:0400ec0012040000fa
:020000040000fa
:0400f00012040000f6
:020000040000fa
:0400f40012040000f2
:020000040000fa
:0400f80012040000ee
:020000040000fa
:0400fc0012040000ea
:020000040000fa
:0401000012040000e5
:020000040000fa
:0401040012040000e1
:020000040000fa
:0401080012040000dd
:020000040000fa
:04010c0012040000d9
:020000040000fa
:0401100012040000d5
:020000040000fa
:0401140012040000d1
:020000040000fa
:0401180012040000cd
:020000040000fa
:04011c0012040000c9
:020000040000fa
:0401200012040000c5
:020000040000fa
:0401240012040000c1
:020000040000fa
:0401280012040000bd
:020000040000fa
:04012c0012040000b9
:020000040000fa
:0401300012040000b5
:020000040000fa
:0401340012040000b1
:020000040000fa
:0401380012040000ad
:020000040000fa
:04013c0012040000a9
:020000040000fa
:0401400012040000a5
:020000040000fa
:0401440012040000a1
:020000040000fa
:04014800fe030000b2
:020000040000fa
:04014c001204000099
:020000040000fa
:040150001204000095
:020000040000fa
:040154001204000091
:020000040000fa
:04015800120400008d
:020000040000fa
:04015c001204000089
:020000040000fa
:040160001204000085
:020000040000fa
:040164001204000081
:020000040000fa
:04016800120400007d
:020000040000fa
:0402080012040000dc
:020000040000fa
:04020c0012040000d8
:020000040000fa
:0402100012040000d4
:020000040000fa
:0402140012040000d0
:020000040000fa
:0402180012040000cc
:020000040000fa
:04021c0012040000c8
:020000040000fa
:0402200012040000c4
:020000040000fa
:0402240012040000c0
:020000040000fa
:0402280012040000bc
:020000040000fa
:04022c0012040000b8
:020000040000fa
:0402300012040000b4
:020000040000fa
:0402340012040000b0
:020000040000fa
:0402380012040000ac
:020000040000fa
:04023c0012040000a8
:020000040000fa
:0402400012040000a4
:020000040000fa
:0402440012040000a0
:020000040000fa
:04024800120400009c
:020000040000fa
:04024c001204000098
:020000040000fa
:040250001204000094
:020000040000fa
:040254001204000090
:020000040000fa
:04025800120400008c
:020000040000fa
:04025c001204000088
:020000040000fa
:040260001204000084
:020000040000fa
:040264001204000080
:020000040000fa
:04026800120400007c
:020000040000fa
:04026c001204000078
:020000040000fa
:040270001204000074
:020000040000fa
:040274001204000070
:020000040000fa
:04027800120400006c
:020000040000fa
:04027c001204000068
:020000040000fa
:040280001204000064
:020000040000fa
:040284001204000060
:020000040000fa
:04028800120400005c
:020000040000fa
:04028c001204000058
:020000040000fa
:040290001204000054
:020000040000fa
:040294001204000050
:020000040000fa
:04029800120400004c
:020000040000fa
:04029c001204000048
:020000040000fa
:0402a0001204000044
:020000040000fa
:0402a4001204000040
:020000040000fa
:0402a800120400003c
:020000040000fa
:0402ac001204000038
:020000040000fa
:0402b0001204000034
:020000040000fa
:0402b4001204000030
:020000040000fa
:0402b800120400002c
:020000040000fa
:0402bc001204000028
:020000040000fa
:0402c0001204000024
:020000040000fa
:0402c4001204000020
:020000040000fa
:0402c800120400001c
:020000040000fa
:0402cc001204000018
:020000040000fa
:0402d0001204000014
:020000040000fa
:0402d4001204000010
:020000040000fa
:0402d800120400000c
:020000040000fa
:0402dc001204000008
:020000040000fa
:0402e0001204000004
:020000040000fa
:0402e4001204000000
:020000040000fa
:0402e80012040000fc
:020000040000fa
:0402ec0012040000f8
:020000040000fa
:0402f00012040000f4
:020000040000fa
:0402f40012040000f0
:020000040000fa
:0402f80012040000ec
:020000040000fa
:0402fc0012040000e8
:020000040000fa
:0403000012040000e3
:020000040000fa
:0403040012040000df
:020000040000fa
:0403080012040000db
:020000040000fa
:04030c0012040000d7
:020000040000fa
:0403100012040000d3
:020000040000fa
:0403140012040000cf
:020000040000fa
:0403180012040000cb
:020000040000fa
:04031c0012040000c7
:020000040000fa
:0403200012040000c3
:020000040000fa
:0403240012040000bf
:020000040000fa
:0403280012040000bb
:020000040000fa
:04032c0012040000b7
:020000040000fa
:0403300012040000b3
:020000040000fa
:0403340012040000af
:020000040000fa
:0403380012040000ab
:020000040000fa
:04033c0012040000a7
:020000040000fa
:0403400012040000a3
:020000040000fa
:04034400120400009f
:020000040000fa
:04034800120400009b
:020000040000fa
:04034c001204000097
:020000040000fa
:040350001204000093
:020000040000fa
:04035400120400008f
:020000040000fa
:04035800120400008b
:020000040000fa
:04035c001204000087
:020000040000fa
:040360001204000083
:020000040000fa
:04036400120400007f
:020000040000fa
:04036800120400007b
:020000040000fa
:100400004f9520000e9f20000e0188000000000084
:10041000000020000000e000020032000001200087
:100420002002880014000700000107000000e0001f
:1004300003003a0060cc20000100200002003700d9
:100440000000200001002000810f70000100320038
:1004500014000700000020000000e000020032004d
:100460000000020000000000b20c020000000000ca
:100470000040da000000fe004440a9008012200085
:100480000000e0000300320000002000a00188000e
:100490004440a800000006008a1f78008b1f7800e7
:1004a0000000060091018800800478000000eb0045
:1004b0001a003700e284440032a0b4009905ba0063
:1004c000e284440032a0b4009906ba00e2844400f9
:1004d00032a0b4000006eb00476fde00fd07b2005b
:1004e000636ce10003003a00ebff07000000eb0043
:1004f0000a003700606ce10004003a00005deb0088
:100500008b05e900fdff3e00040037006168e10053
:10051000010032000086eb000b00070019c7ba008b
:100520001905ba000e04e00003003a000a00e000da
:10053000e0ff3a0000000600fe07b2009e018800be
:100540008a047800f5ff3700395dba008b05e900b1
:100550000c003200295dba008b05e900080032006a
:100560000c00e00003003a00e284440032a0b40032
:10057000f5ff370019ddba008b05e900faff3a00f4
:100580008904e800e184440032a0b40000000600c1
:100590003600f800809fbe00829fbe00849fbe0090
:1005a000869fbe003400f80000002000a0018800f3
:1005b0000000fa008460a900108a26000008880064
:1005c0000040eb008d0407001f0307000080fa00c5
:1005d0003400f9004f03be004f02be004f01be00c1
:1005e0004f00be003600f900004006003600f8005b
:1005f000809fbe00829fbe00849fbe00869fbe007b
:100600003400f80000002000a00188000000fa007b
:1006100084e0a90050c0b30006e1b70010c0b300e9
:1006200076040700a0c8bf000004e00016003a00ee
:1006300011458000700c2000808f500001003600b2
:10064000a228ef001145800010c0b3003206200040
:10065000828f5000010036000040eb008100e8006e
:10066000114588000004e00004003200cb22a800fd
:1006700000000000cb02a90003003700cb22a90034
:1006800000000000cb02a8000080fa003400f9004e
:100690004f03be004f02be004f01be004f00be0020
:1006a0003600f900004006003600f800809fbe00ca
:1006b000829fbe00849fbe00869fbe003400f8006b
:1006c00000002000a00188000000fa008560a90059
:1006d0003011800000407800a50307000080fa0078
:1006e0003400f9004f03be004f02be004f01be00b0
:1006f0004f00be003600f900004006003600f8004a
:10070000809fbe00829fbe00849fbe00869fbe0069
:100710003400f80000002000a00188000000fa006a
:100720008660a900501680004400de006140600031
:100730008080fb002ac9bf000080fb00808f500032
:100740000f003200501680004400de00614060005f
:100750002ae9b70050168000700060000000e00039
:1007600004003a0011c0b30040932000f4030700d6
:10077000030037008040eb0040932000f0030700a7
:10078000101680004400de00614060008080fb00a5
:100790002bc9bf000080fb00808f50000f0032008b
:1007a000101680004400de00614060002be9b700b5
:1007b00010168000700060000000e00004003200ad
:1007c00011c0b300c0932000dd0307000300370011
:1007d0008040eb00c0932000d90307000080fa009e
:1007e0003400f9004f03be004f02be004f01be00af
:1007f0004f00be003600f900004006003400f8004b
:10080000881f780008002000a80188004f047800a5
:100810000000fa008d00a9000080fa003400f90001
:10082000004006000040da000000fe000000050065
:100830008001780002003700b15978000201e90018
:100840000200e000fcff3a00000006008001780092
:1008500002003700815978000201e9000200e0003f
:10086000fcff3a0000000600020037000204e0002e
:100870000b003200810178000002780030417800de
:10088000b14f5100f9ff32001000200014427800ef
:10089000934f5200030031000080eb00000006007f
:0808a0000000eb00000006005f
:020000040000fa
:1008a8007379000073200000726500007365000012
:1008b800740d00000a0000006d6100006320000054
:1008c8007265000073650000740d00000a000000e6
:1008d8006d61000063200000736500007420000053
:1008e8006465000076610000646400007220000006
:1008f800303000003141000044330000454500001d
:100908000d0a0000006d0000616300002073000004
:1009180065740000206e0000776b0000736b0000a8
:1009280065790000203200004237000045310000a0
:1009380035310000363200003841000045440000df
:1009480032410000364100004246000037310000c5
:1009580035380000383000003943000046340000c4
:1009680046330000430d00000a0000006d610000de
:1009780063200000736500007420000061700000af
:10098800707300006b65000079200000324200009f
:10099800374500003135000031360000323800009c
:1009a8004145000044320000413600004142000049
:1009b8004637000031350000383800003039000073
:1009c8004346000034460000334300000d0a00008f
:1009d800006d000061630000206a00006f6900007c
:1009e8006e20000061620000700d00000a00000027
:1009f8006d61000063200000736500007420000032
:100a080061640000722000006f6e00000d0a000093
:100a1800006d000061630000207300006176000033
:100a2800650d00000a0000006d61000063200000f1
:100a380074780000206300006e660000203100001a
:100a480020310000300000006d61000063200000cc
:100a580074780000206300006e66000020310000fa
:100a680020320000300000006d61000063200000ab
:100a780074780000206300006e66000020310000da
:100a880020330000300000006d610000632000008a
:100a980074780000206300006e66000020310000ba
:100aa80020340000300000006f6b00000d0a0000c9
:100ab800006f00006b0d00000a6100006363000016
:100ac8006570000074650000640d00000a000000f5
:100ad8006f6b00000d0a00006d610000635f00008d
:100ae800747800005f6f00006b0d00000a000000c2
:020000040000fa
:100af8000200fa00004f7800c0922000017d20001b
:100b080021009800c20320008000eb00e08e200046
:100b18004cff07001e417800518a20008248780067
:100b28001e80fb00e50f50002b003200e50f50003f
:100b38000c003c00e20f500018003200e20f500099
:100b480003003c00e10f50000f0032006a0037003c
:100b5800e30f500016003200e40f50001900320075
:100b680065003700e70f50002a003200e70f5000f9
:100b78001e003500e80f50002b003200e90f50002e
:100b8800310032005c003700e08e2000c2002000f7
:100b98004145280024ff070057003700e08e200059
:100ba800c2002000014628001fff0700520037003e
:100bb800e08e2000b2012000c14628001aff07007d
:100bc8004d003700e08e20003203200071482800d5
:100bd80015ff070048003700e08e20003203200090
:100be800a14b280010ff070043003700e08e2000cb
:100bf800f2002000d14e28000bff0700c092200011
:100c0800015327002100980010c0b300a6e8b700e0
:100c180039003700e08e200012012000c14f280063
:100c280001ff070034003700e08e2000b2002000ea
:100c3800d1502800fcfe0700c09220008138210016
:100c4800210098002c003700acc8bf000004e00069
:100c580006003200e08e20000201200081512800a9
:100c6800f1fe0700ab68ef001d003700adc8bf00fc
:100c78000004e00007003200e08e2000020120009e
:100c880081522800e8fe070010c0b300abe8b700a7
:100c980013003700aec8bf000004e00007003200b0
:100ca800e08e20000201200081532800defe0700ac
:100cb80020c0b300abe8b70009003700afc8bf00d9
:100cc8000004e00006003200e08e2000020120004f
:100cd80081542800d4fe070030c0b300abe8b70049
:100ce800c0922000015327002100980010c0b300d3
:100cf800a6e8b7000000000020c0b300b0e8b700c5
:100d08000080fa00000006000200fa0010c0b300dc
:100d1800004f7800a5c8bf000080fb00e50f500019
:100d280032003200e50f50000c003c00e20f50008a
:100d380016003200e20f500003003c00e10f5000a3
:100d48000f00320068003700e30f50001700320030
:100d5800e40f50001d00320063003700e70f500019
:100d680032003200e70f500028003500e80f50002d
:100d780036003200e90f5000420032005a003700b6
:100d88000040eb00004f780057003700208b200010
:100d980081552800b2fe07000000e00043003a0039
:100da8000040eb00004f78004f003700208b2000f8
:100db80081552800aafe07000000e0003d003a0027
:100dc8000040eb00004f780047003700208b2000e0
:100dd80081552800a2fe07000000e00037003a0015
:100de8000040eb00004f78003f003700208b2000c8
:100df800815528009afe07000000e00031003a0003
:100e08000040eb00004f780037003700208b2000af
:100e1800d155280092fe07000000e0002b003a00a0
:100e28000040eb00004f78002f003700208b200097
:100e3800815528008afe07000000e00025003a00de
:100e48000040eb00004f780027003700208b20007f
:100e58008155280082fe07000000e0001f003a00cc
:100e68000040eb00004f780010c0b300a0e8b700c6
:100e780020c0b300a4e8b70010c0b300aae8b700c8
:100e880019003700208b2000c156280074fe070087
:100e98000000e00013003a000040eb00004f78002b
:100ea80020c0b300a4e8b7000f003700000000001e
:100eb8000d003700000000000b00370000000000a4
:100ec800090037000000000007003700000000009c
:100ed8000500370000000000030037000000000094
:100ee80001003700000000001e4078000080fa0072
:100ef800000006000000fa00a5c8bf000040e80096
:100f0800a5e8b700a5c8bf000080fb00e40f5000ab
:100f180020003200e40f50000c003c00e10f5000ac
:100f280013003200e10f500003003c000000e00015
:100f38002a00320026003700e20f50000f0032006e
:100f4800e30f50001000320021003700e60f500078
:100f580016003200e60f500011003500e70f500070
:100f680015003200e80f5000160032001800370054
:100f780010c0b300defe07001900370020c0b30020
:100f8800dbfe07001600370030c0b300d8fe0700ac
:100f98001300370040c0b300d5fe0700100037002b
:100fa80050c0b300d2fe07000d00370060c0b30088
:100fb800cffe07000a00370070c0b300ccfe070060
:100fc8000700370080c0b300c9fe070004003700df
:100fd800a568ef00000000000100370000000000d5
:100fe8000080fa00000006000000fa00a4c8bf0054
:100ff8000080fb00e10f500007003200e10f5000b5
:1010080028003400e20f50000b003200e30f5000bc
:101018001e00320030003700b0c8bf000004e000f6
:1010280022003a00aac8bf000004e00021003a00ec
:10103800b0ff070028003700b0c8bf000004e00078
:101048001e003a00aac8bf00e14f50001d003a0038
:10105800adc8bf000004e00009003a00acc8bf00fa
:101068000004e00006003a00afc8bf000004e0003a
:1010780003003a00aec8bf000004e00013003200cd
:1010880030c0b300a4e8b70013003700b0c8bf00f1
:101098000004e0000f003a0090c0b30094fe07007f
:1010a8000d003700000000000b00370000000000b2
:1010b80009003700000000000700370000000000aa
:1010c80005003700000000000300370000000000a2
:1010d80001003700000000000080fa000000060050
:1010e8000000fa00113a8000007020000100700032
:1010f800103a880045e7a900213a8000f08f2f00b8
:1011080000806000203a8800e024ef00e224ef002d
:10111800c222ef00ca22ef00c022ef00c822ef006f
:10112800c262a800c082a800c882a800c9e2a800bc
:1011380005e1a80021088000f0cf2f0000806000a2
:101148000090a0002008880021088000f0fc2f00f3
:10115800008060000040a000200888000421a8004a
:10116800108a2600000888000a41a800510880005b
:1011780070f82f0000806000500888005108800037
:10118800c0ff2f00008060000010a00050088800f9
:1011980050c0b30006e1b70021e2a8002162a80010
:1011a8002062a8002342a800000120004011880006
:1011b8006e00a8006e20a8006200a8006220a800a7
:1011c80057e7a80056a7a800b13a800000ff2f00f3
:1011d800008060006000b300b03a88008460a90015
:1011e8009460a80084e0a90094e0a8008560a900a4
:1011f8009560a8008660a9009660a8008d00a900e7
:101208009d00a800c262a90000000000cb22a9002e
:1012180000000000cb02a9000080fa0000000600d0
:101228000000fa00a068ef00a468ef00aa68ef00c9
:10123800a568ef00b068ef000080fa000000060023
:101248000000fa00a0c8bf000080fb00e20f5000b9
:101258001c003200e20f500005003c000000e000d6
:1012680054003200e10f5000080032004d003700f2
:10127800e40f50002f003200e40f50001f0035002b
:10128800e50f50003900320046003700cb22a90094
:1012980011458000703e2000808f5000010036000c
:1012a800a228ef0011458000301f2000808f5000d9
:1012b80002003e00cb02a8003f003700cb02a90085
:1012c8003d003700cb02a90011458000703e200088
:1012d800808f500001003600a228ef0011458000e1
:1012e80030062000808f500002003e00cb22a8006c
:1012f80031003700cb22a9002f003700cb22a900ec
:1013080011458000f0a52e00808f500001003600a6
:10131800a228ef001145800030062000808f500081
:1013280002003e00cb02a80023003700cb02a90030
:1013380021003700cb02a90011458000703e200033
:10134800808f500001003600a228ef001145800070
:10135800301f2000808f500002003e00cb22a800e2
:1013680015003700cb22a90013003700cb02a900d3
:1013780011458000301f2000808f5000010036008a
:10138800a228ef001145800030062000808f500011
:1013980002003e00cb22a80007003700cb22a9009c
:1013a80005003700a228ef00cb22a900cb02a90034
:1013b8000100370000000000104580000000e80030
:1013c800104588000080fa00000006000000fa00be
:1013d800a0c8bf000080fb00e20f500007003200e9
:1013e800e20f500007003c000000e00007003a0050
:1013f80010c0b300a4e8b7000500370000000000e3
:101408000300370000000000010037000000000062
:101418000080fa00000006000000fa000080fa00d0
:10142800000006000000fa00a4c8bf00e34f500007
:1014380018003a00abc8bf000080fb00e10f500065
:101448000c003200e10f500003003c000000e000f7
:10145800060032000d003700e20f5000070032008e
:10146800e30f50000700320008003700ac68ef00b7
:1014780006003700ad68ef0004003700ae68ef00e3
:1014880002003700af68ef000000000020c0b30082
:10149800a4e8b7000080fa00000006000200fa0085
:1014a800004f78001e80fb00e10f50000f00320053
:1014b800e20f5000180032000000e00021003a005e
:1014c800a7c8bf000040e800a7e8b700a7c8bf004a
:1014d800e24f50001d003600a768ef00b068ef002b
:1014e800a568ef00cfff07001d003700a8c8bf00a0
:1014f8000040e800a8e8b700a8c8bf00e24f5000c5
:1015080014003600a868ef00b068ef00a568ef0087
:10151800c4ff070012003700a9c8bf000040e80058
:10152800a9e8b700a9c8bf00e24f50000b00360079
:10153800a968ef00b068ef00a568ef00b9ff0700e1
:101548000700370000000000050037000000000019
:101558000300370000000000010037000000000011
:101568000080fa00000006000200fa00004f780030
:10157800b0c8bf00e14f500023003a00b1c8bf0017
:101588000081fb00218b2000810041009e487800eb
:101598000040e800b1e8b7001e407800ea4f50006c
:1015a8000b003a00a6c8bf00e14f500002003a0005
:1015b800a668ef00060037008040eb00c0922000cc
:1015c8005d000700a768ef0030c0b300b0e8b700bf
:1015d800118b200091407800b0c3b30080cf500039
:1015e80008003600b168ef008040eb00c092200090
:1015f80051000700b068ef0010c0b300a7ff070054
:1016080001003700a868ef000080fa00000006001b
:101618000200fa000040eb00004f78000f0037008e
:101628001e80fb00e104200080804000008a20002a
:1016380000804000104078000080fb0020118800e6
:1016480000000000111180000010200000806000e0
:101658000000e000fbff32001e4fe8001e80fb0088
:10166800e104200080804000008a200000804000c3
:10167800104078000004e000e9ff3a000080fa001a
:10168800000006000000fa00b0c8bf000080fb00a0
:10169800e10f50001e003200e10f50001e00340020
:1016a800e20f500003003200e30f50000800320040
:1016b8001a00370010c0b300b0e8b700d4ff070025
:1016c80011c0b300c09220001b00070013003700b0
:1016d8008dfd07000004e0000500320020c0b300c3
:1016e800b0e8b70020c0b3006cff07000200370065
:1016f800b068ef00a968ef00b168ef00c2032000ee
:101708008000eb00208b20004efc07000300370010
:1017180000000000010037000000000010118000e8
:10172800620060000000e000010032002222a900ef
:101738000080fa00000006000400fa00000f78009c
:10174800214798001e0078008000eb0011009800e7
:101758001e007800ae409000014878001e00780016
:101768008040eb00114098000080fa00000006005d
:101778000400fa00000f7800214798001e00780046
:1017880010407800e14f500015003a001e00780024
:10179800100090008000e8001e00780011009800fa
:1017a8001e007800900090001e0078002000900035
:1017b800808f50000d0039001e0078008000eb007b
:1017c800110098001e00780011c0b3001140980065
:1017d8001e007800ae4090000148780003003700f2
:1017e8001e0078008000eb00110098000080fa00cd
:1017f800000006000200fa00004f78001e80fb007f
:101808000000e00003003200e10f50000800320041
:10181800110037008040eb0040942000d4ff0700ff
:101828008040eb00c0942000d1ff07000a00370079
:101838008040eb00c0922000cdff07008040eb0005
:1018480040932000caff07008040eb00c0932000af
:10185800c7ff0700000000000080fa000000060033
:101868000000fa00c0922000017d200021009800ad
:1018780040932000810c200021009800c093200094
:1018880081bb20002100980040942000011c220008
:1018980021009800c09420006100200021009800d9
:1018a8000080fa00000006000000fa00c092200044
:1018b80010409000e14f500007003a00c09220000d
:1018c8008040eb001140980020c0b300b0e8b7009a
:1018d8000040eb00f1fe070040932000104090000c
:1018e800e14f500007003a00409320008040eb0091
:1018f8001140980040c0b300a0e8b70010c0b30082
:10190800ade8b700c093200010409000e14f5000b0
:1019180007003a00c09320008040eb001140980077
:1019280020c0b300a0e8b70010c0b300aee8b7000d
:101938004094200010409000e14f500005003a000c
:10194800409420008040eb001140980010c0b30084
:10195800ace8b7000080fa00000006000000fa00ba
:10196800dffd07002efe0700bdff07000060fe0038
:1019780096fe07009cfd070042ff0700caff07000c
:04198800faff37002b
:020000040000fa
:10198c00a00800008c000000000000002c090000e2
:10199c00280000000000000000080000a00000006b
:0819ac00000000000000000033
:020000040000fa
:0200000401f009
:04000000ffff0000fe
:020000040000fa
:0200000401f009
:04000800ffff0000f6
:020000040000fa
:0200000401f009
:04000c0018ff0000d9
:020000040000fa
:0200000401f009
:04001000dbff000012
:020000040000fa
:0200000401f009
:040014005fff00008a
:020000040000fa
:0200000401f009
:04001800fcff0000e9
:020000040000fa
:0200000401f009
:04001c00feff0000e3
:00000001FF
