:020000040000fa
:080000000002040000000000f2
:020000040000fa
:04000800cc02000026
:020000040000fa
:04000c00cc02000022
:020000040000fa
:04001000cc0200001e
:020000040000fa
:04001400cc0200001a
:020000040000fa
:04001800cc02000016
:020000040000fa
:04001c00cc02000012
:020000040000fa
:04002000cc0200000e
:020000040000fa
:04002400cc0200000a
:020000040000fa
:04002800cc02000006
:020000040000fa
:04002c00cc02000002
:020000040000fa
:04003000cc020000fe
:020000040000fa
:04003400cc020000fa
:020000040000fa
:04003800cc020000f6
:020000040000fa
:04003c00cc020000f2
:020000040000fa
:04004000cc020000ee
:020000040000fa
:04004400cc020000ea
:020000040000fa
:04004800cc020000e6
:020000040000fa
:04004c00cc020000e2
:020000040000fa
:04005000cc020000de
:020000040000fa
:04005400cc020000da
:020000040000fa
:04005800cc020000d6
:020000040000fa
:04005c00cc020000d2
:020000040000fa
:04006000cc020000ce
:020000040000fa
:04006400cc020000ca
:020000040000fa
:04006800cc020000c6
:020000040000fa
:04006c00cc020000c2
:020000040000fa
:04007000cc020000be
:020000040000fa
:04007400cc020000ba
:020000040000fa
:04007800cc020000b6
:020000040000fa
:04007c00cc020000b2
:020000040000fa
:04008000cc020000ae
:020000040000fa
:04008400cc020000aa
:020000040000fa
:04008800cc020000a6
:020000040000fa
:04008c00cc020000a2
:020000040000fa
:04009000cc0200009e
:020000040000fa
:04009400cc0200009a
:020000040000fa
:04009800cc02000096
:020000040000fa
:04009c00cc02000092
:020000040000fa
:0400a000cc0200008e
:020000040000fa
:0400a400cc0200008a
:020000040000fa
:0400a800cc02000086
:020000040000fa
:0400ac00cc02000082
:020000040000fa
:0400b000cc0200007e
:020000040000fa
:0400b400cc0200007a
:020000040000fa
:0400b800cc02000076
:020000040000fa
:0400bc00cc02000072
:020000040000fa
:0400c000cc0200006e
:020000040000fa
:0400c400cc0200006a
:020000040000fa
:0400c800cc02000066
:020000040000fa
:0400cc00cc02000062
:020000040000fa
:0400d000cc0200005e
:020000040000fa
:0400d400cc0200005a
:020000040000fa
:0400d800cc02000056
:020000040000fa
:0400dc00cc02000052
:020000040000fa
:0400e000cc0200004e
:020000040000fa
:0400e400cc0200004a
:020000040000fa
:0400e800cc02000046
:020000040000fa
:0400ec00cc02000042
:020000040000fa
:0400f000cc0200003e
:020000040000fa
:0400f400cc0200003a
:020000040000fa
:0400f800cc02000036
:020000040000fa
:0400fc00cc02000032
:020000040000fa
:04010000cc0200002d
:020000040000fa
:04010400cc02000029
:020000040000fa
:04010800cc02000025
:020000040000fa
:04010c00cc02000021
:020000040000fa
:04011000cc0200001d
:020000040000fa
:04011400cc02000019
:020000040000fa
:04011800cc02000015
:020000040000fa
:04011c00cc02000011
:020000040000fa
:04012000cc0200000d
:020000040000fa
:04012400cc02000009
:020000040000fa
:04012800cc02000005
:020000040000fa
:04012c00cc02000001
:020000040000fa
:04013000cc020000fd
:020000040000fa
:04013400cc020000f9
:020000040000fa
:04013800cc020000f5
:020000040000fa
:04013c00cc020000f1
:020000040000fa
:04014000cc020000ed
:020000040000fa
:04014400cc020000e9
:020000040000fa
:04014800cc020000e5
:020000040000fa
:04014c00cc020000e1
:020000040000fa
:04015000cc020000dd
:020000040000fa
:04015400cc020000d9
:020000040000fa
:04015800cc020000d5
:020000040000fa
:04015c00cc020000d1
:020000040000fa
:04016000cc020000cd
:020000040000fa
:04016400cc020000c9
:020000040000fa
:04016800cc020000c5
:020000040000fa
:04020800cc02000024
:020000040000fa
:04020c00cc02000020
:020000040000fa
:04021000cc0200001c
:020000040000fa
:04021400cc02000018
:020000040000fa
:04021800cc02000014
:020000040000fa
:04021c00cc02000010
:020000040000fa
:04022000cc0200000c
:020000040000fa
:04022400cc02000008
:020000040000fa
:04022800cc02000004
:020000040000fa
:04022c00cc02000000
:020000040000fa
:04023000cc020000fc
:020000040000fa
:04023400cc020000f8
:020000040000fa
:04023800cc020000f4
:020000040000fa
:04023c00cc020000f0
:020000040000fa
:04024000cc020000ec
:020000040000fa
:04024400cc020000e8
:020000040000fa
:04024800cc020000e4
:020000040000fa
:04024c00cc020000e0
:020000040000fa
:04025000cc020000dc
:020000040000fa
:04025400cc020000d8
:020000040000fa
:04025800cc020000d4
:020000040000fa
:04025c00cc020000d0
:020000040000fa
:04026000cc020000cc
:020000040000fa
:04026400cc020000c8
:020000040000fa
:04026800cc020000c4
:020000040000fa
:04026c00cc020000c0
:020000040000fa
:04027000cc020000bc
:020000040000fa
:04027400cc020000b8
:020000040000fa
:04027800cc020000b4
:020000040000fa
:04027c00cc020000b0
:020000040000fa
:04028000cc020000ac
:020000040000fa
:04028400cc020000a8
:020000040000fa
:04028800cc020000a4
:020000040000fa
:04028c00cc020000a0
:020000040000fa
:04029000cc0200009c
:020000040000fa
:04029400cc02000098
:020000040000fa
:04029800cc02000094
:020000040000fa
:04029c00cc02000090
:020000040000fa
:0402a000cc0200008c
:020000040000fa
:0402a400cc02000088
:020000040000fa
:0402a800cc02000084
:020000040000fa
:0402ac00cc02000080
:020000040000fa
:0402b000cc0200007c
:020000040000fa
:0402b400cc02000078
:020000040000fa
:0402b800cc02000074
:020000040000fa
:0402bc00cc02000070
:020000040000fa
:0402c000cc0200006c
:020000040000fa
:0402c400cc02000068
:020000040000fa
:0402c800cc02000064
:020000040000fa
:0402cc00cc02000060
:020000040000fa
:0402d000cc0200005c
:020000040000fa
:0402d400cc02000058
:020000040000fa
:0402d800cc02000054
:020000040000fa
:0402dc00cc02000050
:020000040000fa
:0402e000cc0200004c
:020000040000fa
:0402e400cc02000048
:020000040000fa
:0402e800cc02000044
:020000040000fa
:0402ec00cc02000040
:020000040000fa
:0402f000cc0200003c
:020000040000fa
:0402f400cc02000038
:020000040000fa
:0402f800cc02000034
:020000040000fa
:0402fc00cc02000030
:020000040000fa
:04030000cc0200002b
:020000040000fa
:04030400cc02000027
:020000040000fa
:04030800cc02000023
:020000040000fa
:04030c00cc0200001f
:020000040000fa
:04031000cc0200001b
:020000040000fa
:04031400cc02000017
:020000040000fa
:04031800cc02000013
:020000040000fa
:04031c00cc0200000f
:020000040000fa
:04032000cc0200000b
:020000040000fa
:04032400cc02000007
:020000040000fa
:04032800cc02000003
:020000040000fa
:04032c00cc020000ff
:020000040000fa
:04033000cc020000fb
:020000040000fa
:04033400cc020000f7
:020000040000fa
:04033800cc020000f3
:020000040000fa
:04033c00cc020000ef
:020000040000fa
:04034000cc020000eb
:020000040000fa
:04034400cc020000e7
:020000040000fa
:04034800cc020000e3
:020000040000fa
:04034c00cc020000df
:020000040000fa
:04035000cc020000db
:020000040000fa
:04035400cc020000d7
:020000040000fa
:04035800cc020000d3
:020000040000fa
:04035c00cc020000cf
:020000040000fa
:04036000cc020000cb
:020000040000fa
:04036400cc020000c7
:020000040000fa
:04036800cc020000c3
:020000040000fa
:100400004f9020000e9f20000e0188000000000089
:10041000000020000000e000020032000001200087
:1004200020028800140007005d0007000000e000c3
:1004300003003a00c02b2100010020000200370019
:100440000000200001002000810f70000100320038
:1004500014000700000020000000e000020032004d
:100460000000020000000000341302000000000041
:100470000040da000000fe004440a90020142000e3
:100480000000e0000300320000002000a00188000e
:100490004440a800000006008a1f78008b1f7800e7
:1004a0000000060091018800800478000000eb0045
:1004b0001a003700e284440032a0b4009905ba0063
:1004c000e284440032a0b4009906ba00e2844400f9
:1004d00032a0b4000006eb00476fde00fd07b2005b
:1004e000636ce10003003a00ebff07000000eb0043
:1004f0000a003700606ce10004003a00005deb0088
:100500008b05e900fdff3e00040037006168e10053
:10051000010032000086eb000b00070019c7ba008b
:100520001905ba000e04e00003003a000a00e000da
:10053000e0ff3a0000000600fe07b2009e018800be
:100540008a047800f5ff3700395dba008b05e900b1
:100550000c003200295dba008b05e900080032006a
:100560000c00e00003003a00e284440032a0b40032
:10057000f5ff370019ddba008b05e900faff3a00f4
:100580008904e800e184440032a0b40000000600c1
:1005900000000000000000000040da000000fe0043
:1005a000000005008001780002003700b159780092
:1005b0000201e9000200e000fcff3a000000060032
:1005c000020037000204e0000b00320081017800d5
:1005d0000002780030417800b14f5100f9ff32003d
:1005e0001000200014427800934f520003003100a5
:1005f0000080eb00000006000000eb000000060099
:10060000881f78000204780008017800e5ff0700e1
:10061000080040004f047800000006000000fa00c7
:10062000881f780000047800ea8157003fb99700de
:100630008800780000302000070007000000e0007c
:10064000020035008040eb00017478004f04780010
:100650000080fa00000006006200fa00889fbe00d9
:100660008a1f780000057800810478000204780071
:100670008300780080f92f000f004000b1030700cd
:100680009a979f00a9979f000000eb00b09f9f00e2
:100690001885fb008a04fb000a05ea004f55de00be
:1006a00050022000808f54000d003200e10f5500f1
:1006b0000b003a000a017800880078002f9097001c
:1006c0009f91970003000100a0979f000000e000a9
:1006d0008e0032003f9897000000e800b09f9f0016
:1006e0000a04440050022000808f540004003200ad
:1006f0000900e000e6ff3a003f98970084003700c9
:100700000000eb00909f9f00809f9f00f0979f004c
:10071000e0979f00d0979f00c0979f000700370089
:10072000e18f20000100500000004000218f2000d8
:1007300061007800df98970001007000d09f9f0053
:100740008804780009047800384578008a00fb00a6
:10075000e08f2000840107000000e000f0ff3a0075
:10076000a1c2b300814f55000e003a00cf88970018
:100770000180e900c08f9f0010007800c09f9f009b
:100780000000e00005003d000000ea00c09f9f005f
:100790005f9897000020a000d09f9f000904e80008
:1007a0000f003700c09f9f000000eb0005003700de
:1007b000f2ff2700820f5000020032006a01b900e8
:1007c000028040000904780088047800b900fb002a
:1007d0000103b100e98f5000f5ff3600c09f9f0074
:1007e000e0c2b300984f1000020032000080eb001e
:1007f00019003700a0c2b300d84f100007003a001c
:10080000cf8897000180e900c08f9f00100078001a
:10081000a09f9f000804e800100037000000eb00d4
:10082000a09f9f008800780005003700f3ff270095
:10083000830f5000020032006a02b9000400410038
:1008400001047800880078003101fb000203b10048
:10085000e90f5100f5ff3600a09f9f0098447800f3
:100860008900fb00a08e20003f0107000000e0008f
:10087000020032000804e800010037008044eb0069
:10088000c97f9f0080c6b30080cf540004003a00a7
:1008900098cf14000a003a00664050000600370066
:1008a000c0c6b30080cf540005003a0098cf1400b2
:1008b00003003a0065404000c07f9f000804e80044
:1008c0001801fb00e3fb2f008f81410081f92f000d
:1008d0008f804000a0f92f000f004000100007009b
:1008e0000000e00009003a00e1fb2f008f8040008b
:1008f000a0f92f000f004000560207000000e000a2
:10090000020035000804e80061ff37000080eb00ba
:100910004f0578004f04be000080fa00000006007a
:10092000889fbe008a9fbe00e4c6b300844f51007a
:10093000be00320010003c006b425200844f510058
:100940001800320005003c0054c2b300844f51002f
:10095000f600320084c5b3000f00370044c6b30070
:10096000844f51001400320065424200844f510010
:10097000f1003a001000370004c7b300844f510063
:10098000dd0032005600350065424200844f5100c0
:100990005300320063424200844f5100e6003a00a7
:1009a0004f0037001181e90082087800f0009000c4
:1009b00012417800de00370020629000c5c6b30007
:1009c000854f520007003a0091027800648252007d
:1009d000840878001402be004fabde008603780066
:1009e0001400370015c7b300854f520003003a00ca
:1009f000110478006802540005003700a5c6b30052
:100a0000854f520006003a00910478006882540035
:100a1000840878005403be004402be00050037007d
:100a20001182e9008408780014027800cfa2de0069
:100a3000612bb9000498be000690be00a060900033
:100a400088c6b30088cf50000d00320028c6b3001e
:100a500088cf500004003a000402fb00cfa2de0061
:100a6000612bb9000800370048c7b30088cf500099
:100a7000030032006644440088cf500004003a006e
:100a8000cfa2de00612bb9000498be000690be0024
:100a90003002be002003be00f0009000e00f5200c4
:100aa000e08f5a00e00f5b00e08f5b0002003d002a
:100ab000d4c2b30008003700001290000418a3004d
:100ac00002003200b4c2b300030037000408a300e0
:100ad0005100320004c2b30084f178004c003700aa
:100ae00020629000c5c6b300854f520008003a004e
:100af0001105780064025500840878001404be00d3
:100b00006055b8000802be000a03be00140037009a
:100b100015c7b300854f520003003a0091047800d6
:100b20006882540005003700a5c6b300854f520007
:100b300006003a0011057800680255008408780024
:100b40005403be004402be00050037001182e900d4
:100b500084087800140278008002eb006033b8004b
:100b60000498be000690be00a060900088c6b30046
:100b700088cf50000d00320028c6b30088cf500047
:100b800004003a000482fb008002eb006033b800ee
:100b90000800370048c7b30088cf50000300320078
:100ba0006644440088cf500004003a008002eb0005
:100bb0006033b8000498be000690be00801090001c
:100bc0000138a300140032003002be002003be0032
:100bd000e00f5200e08f5a00e00f5b00e08f5b00f7
:100be0000d00320081c7b300814f51000300320075
:100bf00081c5b300814f510007003a00f00090001a
:100c000004c3b30084f178008100e80082f1780029
:100c10008100e80071009800f0009000818141009f
:100c200063009800824078003e003700a061900089
:100c3000c4c6b3001181e90084cf51002200320004
:100c40000a003c006442520084cf5100250032006b
:100c500004c2e80084cf5100130032006842520001
:100c600084cf51001e003a000a00370044c7b30089
:100c700084cf51001b0032006642420084cf5100f5
:100c8000180032006942520084cf510014003a002b
:100c900005003700820878009200780040589000e4
:100ca000804878002c003700820878009200780095
:100cb000600a9000cfa2de00612bb9008498be00cc
:100cc0008690be00240037008208780092007800e9
:100cd00060099000cf91de008288be001e003700c0
:100ce0001181e90082087800920078006008900085
:100cf00080087800180037001181e9008208780028
:100d000012027800cfa2de00612bb9000498be0069
:100d10000690be00f00090008181410063009800c1
:100d200081c7b3001c0007000b003700f0009000e3
:100d300082f1780006003700f000900081814100c8
:100d40000204e00001003a0052c2b3008249780078
:100d50008100e800710098000000eb004f05be0024
:100d60004f04be0000000600020037000304e0004c
:100d7000060032000001780002007800b0417800df
:100d800081cf5100f9ff3a00010037000001eb006c
:100d90000200780000000600fc874700889fbe0024
:100da0008a9fbe008c9fbe008e1f780000067800d0
:100db00080c5b30080cf50000a0032007740400069
:100dc00080cf50000a0032006940400080cf5000c0
:100dd0000b003200908d200080bf9f00ae002000ed
:100de0000a003700828c200082bf9f000600370077
:100df000938d200083bf9f008e00200003003700ea
:100e0000948d200084bf9f000e0120003c02be0094
:100e10002c03be000605be000404be0040c6b3009d
:100e200080cf5000030032006540400080cf50006a
:100e30000b003a00e00f5200e08f5a00e00f5b0019
:100e4000e08f5b0006003d006000b8006011b80054
:100e50000404500085845800060559008785590010
:100e6000e80f57000400320040002000f00f570048
:100e700038003a000100370030002000e00f540035
:100e8000e08f5c00e00f5d00e08f5d0004003a0041
:100e9000dc0890008d0120000100e0000600320017
:100ea0008e00e900888060008fba9700e5c0780066
:100eb000f1ef9f007d012000800078008100e900b3
:100ec000050033008b05d1000a85d3008984d30047
:100ed0000884d300f9ff3700089ebe000a96be00c2
:100ee000120037008d06e9008e00e9008480600062
:100ef0000fb99700e2c1780082fd2f000f01410079
:100f000003f17e00800078008100e90005003300d5
:100f10008783d1000683d3008582d3000482d30067
:100f2000f9ff3700049ebe000696be003c02be00dc
:100f30002c03be00e00f5200e08f5a00e00f5b0070
:100f4000e08f5b008b0034000d00e000e5ff3c000b
:100f5000880037002c60900081c6b300814f50009c
:100f60000b00320006003c000004e00008003200e4
:100f7000e6c05000814f50004e003a000400370098
:100f8000c1c6b300814f50004a003a00210037002b
:100f90000800e00004003a005c0890008d01200089
:100fa0000000e00006003200110009000e84d800a5
:100fb0000fb99700e2c07800f1ef9f007d0120009b
:100fc000110009000e84d8000a0037001100090042
:100fd0000e04d8008d06e9000e81b9000204540009
:100fe0008fb8970061417c0081fd2f008f80400009
:100ff00082f07e00000478000800e0000200320069
:101000000d00e000f1ff3c00cfc4de00614db900ef
:1010100025003700e00f5400e08f5c0004003a0028
:101020005c0890008d0120000000e0000700320005
:101030006171b9000800be00630107008fb9970015
:10104000e3417800f3ef9f007d0120006171b9005a
:101050000800be004c0107000b0037006171b900a9
:101060000800be00390107008d06e90000f1b90053
:10107000020454000fba9700e4427c0084fd2f0064
:101080000f02420005f27e000004be00e00f500097
:10109000e08f5800020032000d00e000efff3c003e
:1010a0004fcdde008a057800089ebe000a96be007d
:1010b00030003700e00f5400e08f5c00e00f5d006f
:1010c000e08f5d0004003a005c0890008d01200074
:1010d0000000e000090032006172b900612bb90024
:1010e0000800be000a01be00da0107000fba97002f
:1010f00064427800f4ef9f007d0120006172b90026
:10110000612bb9000800be000a01be00ca01070039
:101110000d0037006172b900612bb9000800be00f4
:101120000a01be00cf0107008d06e90000f2b900f8
:10113000040454008fba970065427c0085fd2f009f
:101140008f82420084f27e00009ebe000296be00a6
:101150003c04be002c05be00e00f5400e08f5c0094
:10116000e00f5d00e08f5d00020034000d00e00044
:10117000e8ff3c00e80f570010003a000c10900008
:101180000038a3000d003200f78f560006003e0025
:1011900085fd2f008f824200e5c07e0000c3b300b2
:1011a00080cf5000050032008d06e90002c3b30075
:1011b00081fd2f008f80400082f07e007881160034
:1011c000120e98006c00900083fd2f008f8141006b
:1011d0008d804100f3fc07001c089000dc089000a3
:1011e000810f500006003d0000805000000e980066
:1011f0000c1090000040a100001698000f0037006e
:101200000100e0000d003d008c109000f4806000b3
:10121000f08f500009003a007c099000fc0090001b
:10122000810051000c099000828050000080500025
:101230004240a90001003400000e98004f077800da
:101240004f06be004f05be004f04be00cf01b100e7
:10125000000006000400fa00889fbe008a9fbe00be
:101260008c1f78000004780001067800f80d9000cb
:101270007800900080855500080890008085550012
:10128000180890008085550028089000808555003a
:1012900038089000808555004808900080855500ea
:1012a0000002220090bf9f0000032300a0bf9f0008
:1012b000081090000028a30015003a000b00e00081
:1012c000130034000b0578008a047800e20f550003
:1012d0000100360029002000c801900009017800b3
:1012e000ee80570058009000030001005004980061
:1012f0000000e0008c003200680890000900400007
:10130000600c9800090555004240a900eeff3c0022
:10131000780190000200e0000c003400c801900049
:101320008c007800580090000300010050049800e1
:101330008080eb000000e0007c003200e8089000b4
:101340007800900000804000600c9800880c9000ad
:101350000900e0001100340009057800e28f540014
:10136000010036002a002000c80190000a01780020
:10137000ec805700580090000300010050049800d2
:101380000000e00068003200680890000a00400099
:10139000600c98008a845400edff37001809900013
:1013a0000200e0000c003400c8019000e80090004a
:1013b0005800900003000100500498008080eb006a
:1013c0000000e00059003200e80890001808900082
:1013d00000804000600c9800a80c90000900e0001c
:1013e0001100340009057800e28f54000100360036
:1013f0002a002000c80190000a017800ec80570004
:101400005800900003000100500498000000e00024
:1014100045003200680890000a004000600c980007
:101420008a845400edff3700380990000200e00084
:101430000e003400e8009000180890008080400002
:10144000c80190005800900003000100500498006b
:101450008080eb000000e00034003200e8089000db
:101460003808900000804000600c9800c80c900084
:101470000900e0001100340009057800e28f5400f3
:10148000010036002a002000c80190000a017800ff
:10149000ec805700580090000300010050049800b1
:1014a0000000e00020003200680890000a004000c0
:1014b000600c98008a845400edff370008109000fb
:1014c0008000eb000028a300180032000b00e000b1
:1014d000160034008b04780009057800e28f540070
:1014e000010036002a002000c80190000a0178009f
:1014f000ee8057005800900003000100500498004f
:101500000000e00008003200680890000a00400077
:10151000600c98008a8454004240a900eeff3c0011
:101520008000eb00010037008080eb0001007800b4
:101530004f0678004f05be004f04be000080fa0041
:10154000000006000108780000000600839f680084
:101550000100e00002003d0060001000e080180083
:101560000300e00002003d0060011100e08119006d
:10157000050007004f00e00002003b006000100083
:10158000e0801800000006006022b800060220007b
:101590000000d0008180d2000482d2008582d20077
:1015a0000000a0000202520083825a0003003100b2
:1015b0000202420083824a000000a1000603e90003
:1015c000f3ff3a0000000600efff07000400be0032
:1015d00000000600889fbe008a9fbe0030044200c3
:1015e000b0844a0030054b0090854b006000b1008c
:1015f0000898be000a90be000440e10005c8e10062
:1016000006d0e10007d8e100020031006800400088
:101610001008e8004f05be004f04be0000000600a1
:10162000889fbe008a9fbe003004be002005be0019
:101630000418540005985c0006185d0007985d00ca
:10164000110020000440e10005c8e10006d0e100df
:1016500007d8e100010039008000eb00108810007d
:101660004f05be004f04be00000006001200fa0045
:10167000889fbe008a9fbe008c9fbe00e0b79f007f
:10168000f1b79f0082bf9f0093bf9f000605be0079
:101690000404be000000eb00d0b79f00c0b79f005d
:1016a000b0b79f00a0b79f0090b79f000006eb0067
:1016b0005fb19700cfb09700820141003fb0970023
:1016c0000200e00004003d00370007007e80570064
:1016d000c0ff070003003700330007007e8057007b
:1016e000cfff0700dfb697000d00e0000c003500cb
:1016f0006fb29700ffb297000fbb97009fbb970098
:1017000010002000010020006011b80000027200eb
:101710008182720002037300838373001b00070041
:101720000c06e80001042000810f5600e0ff3a009b
:101730000d00e00004003d000802be000a03be00e8
:101740007e805700a3ff07005fa897000000e0001d
:1017500005003a001fb29700afb297003fb3970061
:10176000cfb39700090007006fb09700ffb0970054
:101770000fb997009fb997004f06be004f05be00f6
:101780004f04be000080fa000000060001000700c0
:1017900000000600a4b79f00b5b79f00c6b79f0022
:1017a000d7b79f00000006004f09de00828171005c
:1017b000b3b79f004f01de0081804000828070003f
:1017c000a1b79f008fb097004f09de0000004000d6
:1017d0000200700090b79f007fa897004f01de00c5
:1017e000818040008280700081b79f000d0007005b
:1017f0004f3ade000000400004007000f0af9f0090
:10180000080007000402420085824a0006034b00dc
:1018100087834b00dfff07000802be000a03be00fb
:10182000000006002fb29700bfb297004fb3970099
:10183000dfb3970000000600881f78001800200022
:10184000881f780089ff07008f87e9004f04780020
:1018500000000600801feb0084ff07008f87e9006f
:1018600000000600889fbe008a9fbe00e00f500067
:10187000e08f5800e00f5900e08f59000c003d0048
:101880006044b8006055b8000000540081805c00de
:1018900002015d0083815d00180020001500070033
:1018a00008003d00180007000004eb0005003700a9
:1018b0000004eb000f00070002003d0012000700cb
:1018c00018002000dcff07000800e00006003200de
:1018d0006022b8006033b8000000520081805a00d6
:1018e00002015b0083815b004f05be004f04be0018
:1018f00000000600e00f5200e08f5a00e00f5b008e
:10190000e08f5b00000006006044b8006055b8003e
:101910000402540085825c0006035d0087835d003d
:1019200000000600889fbe008a9fbe008c1f7800c2
:10193000e00f5000e08f5800e00f5900e08f590091
:101940000d003d006044b8006055b8000000540030
:1019500081805c0002015d0083815d001c0020002d
:101960000820e10009a8e1000ab0e1000bb8e1009d
:101970000d003d00080037000006eb00e00f5200ac
:10198000e08f5a00e00f5b00e08f5b0006003d0037
:101990006044b8006055b8000402540085825c00c1
:1019a00006035d0087835d00aaff07000c00e000ce
:1019b000060032006022b8006033b8000000520018
:1019c00081805a0002015b0083815b004f06780032
:0c19d0004f05be004f04be0000000600e2
:020000040000fa
:1019dc0073790000732000007265000073650000cd
:1019ec00740d00000a0000006d610000632000000f
:1019fc007265000073650000740d00000a000000a1
:101a0c006d6100006320000073650000742000000d
:101a1c0064650000766100006464000072200000c0
:101a2c0030300000314100004433000045450000d7
:101a3c000d0a0000006d00006163000020730000bf
:101a4c0065740000206e0000776b0000736b000063
:101a5c00657900002032000042370000453100005b
:101a6c00353100003632000038410000454400009a
:101a7c003241000036410000424600003731000080
:101a8c00353800003830000039430000463400007f
:101a9c0046330000430d00000a0000006d61000099
:101aac00632000007365000074200000617000006a
:101abc00707300006b65000079200000324200005a
:101acc003745000031350000313600003238000057
:101adc004145000044320000413600004142000004
:101aec00463700003135000038380000303900002e
:101afc004346000034460000334300000d0a00004a
:101b0c00006d000061630000206a00006f69000036
:101b1c006e20000061620000700d00000a000000e1
:101b2c006d610000632000007365000074200000ec
:101b3c0061640000722000006f6e00000d0a00004e
:101b4c00006d0000616300002073000061760000ee
:101b5c00650d00000a0000006d61000063200000ac
:101b6c0074780000207500006e6300006e66000043
:101b7c0020310000203100003233000041420000cf
:101b8c00430d00000a0000006d610000632000009e
:101b9c0074780000206300006e66000020310000a5
:101bac00202500005825000058250000582500006d
:101bbc00582500005825000058250000580d00003d
:101bcc000a000000524e0000323900003033000091
:101bdc00203000002e3900002e350000205300006c
:101bec006570000020300000322000003230000010
:101bfc003135000020310000373a00003139000047
:101c0c003a350000350d00000a0000006f6b000033
:101c1c000d0a0000006f00006b0d00000a6100004f
:101c2c00636300006570000074650000640d0000c3
:101c3c000a0000006f6b00000d0a00006d610000cf
:101c4c00635f0000747800005f6f00006b0d000094
:041c5c000a0000007a
:020000040000fa
:101c60000400fa0016c8bf000004e000a5003a0016
:101c700010c0b30016e8b70010c0b300004f7800e2
:101c80002068ef00a04080008000eb00d200200020
:101c900003002000820f5000838f580079003e001f
:101ca000006001000d0037001300370019003700f5
:101cb0001f003700250037002b0037007100370068
:101cc000700037006f0037006e0037002f003700bc
:101cd000350037003b0037004300370010822000fa
:101ce000c2002000e1ce28002efa070020002000cc
:101cf000c04088006900370010822000c200200028
:101d0000a1cf280027fa070020002000c04088004b
:101d10006200370010822000b201200061d028004c
:101d200020fa070020002000c04088005b00370038
:101d3000108220003203200011d2280019fa070077
:101d400020002000c040880054003700108220008e
:101d50003203200041d5280012fa0700200020009d
:101d6000c04088004d00370010822000f2002000a3
:101d700071d828000bfa0700e0012000c04088005d
:101d800010c0b30020e8b7004400370010822000e4
:101d90001201200061d9280002fa0700200020006b
:101da000c04088003d00370010822000b2002000b3
:101db00071da2800fbf9070050002000c0408800bd
:101dc00036003700108220008201200021db28002d
:101dd000f4f90700e0012000c040880010c0b30003
:101de00020e8b7002d0037001cc8bf00e14f5000ad
:101df00020003a00a7c8bf008083fb00a6c8bf0030
:101e00000083fb00a5c8bf008082fb00a4c8bf0000
:101e10000082fb00a3c8bf008081fb00a2c8bf00f6
:101e20000081fb00a1c8bf008080fb001082200061
:101e3000871f7800861f7800851f7800841f780030
:101e4000831f7800821f7800811f7800a1dc2800a2
:101e5000811f7800f1f90700f0875700e0012000aa
:101e6000c040880010c0b30020e8b7001c68ef0035
:101e70000a0037000040eb00004f78001e28ef00fa
:101e8000060037001428ef000040eb00004f7800f8
:101e9000d0ff2f00f0408800000000001e407800b6
:101ea000e14f50009d003a000000eb001007980041
:101eb000080037009e00900010862000008040003f
:101ec0008040eb00014878001e0090000000e80010
:101ed000100798009e009000f0032000808f5000b3
:101ee000f4ff3600008020008000eb0031009800f5
:101ef00010822000c201070010002000f04088007e
:101f00008600370016c8bf00e14f500083003a003a
:101f10000080200010409000e14f500079003a000e
:101f20000080eb00f0408800a04080008000eb00c3
:101f3000d200200003002000820f5000838f580041
:101f400055003e00006001000d003700130037000f
:101f5000190037001f003700250037002b0037001d
:101f60004d0037004c0037004b0037004a00370067
:101f70002d00370033003700390037003f003700ad
:101f80001086200081de28008df907000000e000a7
:101f900045003a001e28ef0056003700108620004a
:101fa000c1e0280086f907000000e00040003a0088
:101fb0001e28ef004f00370010862000c1e02800e7
:101fc0007ff907000000e0003b003a001e28ef0008
:101fd0004800370010862000c1e0280078f907008b
:101fe0000000e00036003a001e28ef0041003700f4
:101ff00010862000c1e0280071f907000000e00011
:1020000031003a001e28ef003a0037001086200009
:1020100011e128006af907000000e0002c003a00f6
:102020001e28ef003300370010862000c1e0280092
:1020300063f907000000e00027003a001e28ef00c7
:102040002c00370010862000c1e028005cf9070052
:102050000000e00022003a001e28ef0025003700b3
:102060001086200001e2280055f907000000e0007a
:102070001d003a001e28ef001e00370010862000c9
:1020800001e228004ef907000000e00018003a00c5
:102090001e28ef00170037001428ef00d0ff2f0094
:1020a000f0408800130037000000000011003700e6
:1020b000000000000f003700000000000d00370096
:1020c000000000000b00370000000000090037008e
:1020d0000000000007003700000000000500370086
:1020e000000000000300370000000000010037007e
:1020f00000000000008020008040eb0011409800ac
:1021000006003700c04080000000e00003003a00f5
:102110001668ef00e0ff2f00f04088000080fa0012
:10212000000006000600fa00000f78001107980072
:1021300022079800f0408000e10f500015003200a7
:10214000f04080000000e00007003a009e007800a8
:10215000a14088001a68ef00e0012000904088004c
:102160001668ef000b0037001ac8bf000040e800f7
:102170001ae8b7001ac8bf008080fb002e0090004c
:10218000808f5000030039009e009000a14088001d
:102190001a68ef000080fa00000006000000fa0054
:1021a000affe0700a04080008000eb00d2002000be
:1021b00003002000820f5000838f580041003e0032
:1021c000006001000d0037001100370015003700d6
:1021d000190037001d003700210037003900370093
:1021e000380037003700370036003700210037004d
:1021f00025003700290037002d003700520020004d
:102200008000eb0010002000c6ff07002f00370001
:10221000320020008000eb0020002000c1ff0700fa
:102220002a003700320020008000eb003000200040
:10223000bcff070025003700320020008000eb00c3
:1022400040002000b7ff07002000370032002000c8
:102250008000eb0050002000b2ff07001b00370099
:10226000320020008000eb00a0002000adff07003e
:1022700016003700320020008000eb00b000200084
:10228000a8ff070011003700320020008000eb009b
:10229000d0002000a3ff07000c0037003200200010
:1022a0008000eb00200020009eff070007003700a1
:1022b000320020008000eb00d000200099ff0700d2
:1022c000020037001428ef00000000000080fa0030
:1022d000000006000000fa00113a8000f08f2f0085
:1022e000808060000050200001007000103a8800db
:1022f0004247a9004227a9004207a90045e7a900d3
:10230000213a8000f0ff280000806000203a880019
:102310004567a900213a8000f08f2f0000806000ff
:10232000203a8800e024ef00e224ef0005e1a80055
:1023300021088000f0cf2f00008060000090a000f6
:102340002008880021088000f0fc2f000080600039
:10235000200888000421a80021e2a90021a2a800e9
:102360002342a800c222ef00ca22ef00c022ef00e1
:10237000c822ef00c082a800c882a800c9e2a80055
:102380006e00a8006e20a8006200a8006220a800cd
:102390008460a9009460a8008560a9009560a800e9
:1023a0008660a9009660a8008d00a9009d00a80085
:1023b0000080fa00000006000000fa0020468000bd
:1023c0000000e80020468800c2c8bf000080fb0073
:1023d000e20f50002b003200e20f500005003c00dd
:1023e0000000e0000a003200e10f50001700320048
:1023f0005c003700e40f50003e003200e40f500054
:102400002e003500e50f500048003200550037001f
:1024100021468000301f2000808f500001003600d0
:10242000c428ef0021468000900f2000808f5000cc
:1024300003003e00cb22a800cb02a9004c003700cd
:10244000cb22a900cb02a80049003700cb22a9006b
:1024500021468000703e2000808f50000100360031
:10246000c428ef0021468000301f2000808f5000dc
:1024700002003e00cb02a8003d003700cb02a900bd
:102480003b003700cb02a90021468000703e2000af
:10249000808f500001003600c428ef0021468000e4
:1024a00030062000808f500002003e00cb22a800a2
:1024b0002f003700cb22a9002d003700cb22a90026
:1024c00021468000f0a52e00808f500001003600cc
:1024d000c428ef002146800030062000808f500085
:1024e00002003e00cb02a80021003700cb02a90069
:1024f0001f003700cb02a90021468000703e20005b
:10250000808f500001003600c428ef002146800073
:10251000301f2000808f500002003e00cb22a80018
:1025200013003700cb22a90011003700cb02a9000d
:1025300021468000301f2000808f500001003600af
:10254000c428ef002146800030062000808f500014
:1025500002003e00cb22a80005003700cb22a900d4
:1025600003003700c428ef00cb22a900cb02a9004a
:082570000080fa0000000600e3
:020000040000fa
:10257800c20800000600000000000000000800007b
:10258800c200000000000000ea0800001a00000075
:1025980002000000686a6c00747a4c0000000100b8
:1025a80000020000040008000010000000002000e5
:1025b8002b2d230030000000c80800002200000076
:1025c800020000003031320033343500363738002d
:1025d800394142004344450046003000313233005f
:1025e8003435360037383900616263006465660047
:0825f8000000000000000000db
:020000040000fa
:102600000600fa00200798000000eb00000f780099
:102610000e0037002e0090001e0040009040780011
:10262000214798002e4090000080fb002011880078
:1026300000000000111180000010200000806000e8
:102640000000e000fbff3a001e0fe8002e009000a3
:102650001e004000104078000004e000edff3a004a
:102660000080fa00000006000000fa0019ff0700d1
:0826700051ff0700feff3700d7
:020000040000fa
:0200000401f009
:04000000ffff0000fe
:020000040000fa
:0200000401f009
:04000800ffff0000f6
:020000040000fa
:0200000401f009
:04000c005fff000092
:020000040000fa
:0200000401f009
:04001000fbff0000f2
:020000040000fa
:0200000401f009
:040014005fff00008a
:020000040000fa
:0200000401f009
:04001800fcff0000e9
:020000040000fa
:0200000401f009
:04001c00feff0000e3
:00000001FF
