:020000040000fa
:080000000002040000000000f2
:020000040000fa
:040008007003000081
:020000040000fa
:04000c00700300007d
:020000040000fa
:040010007003000079
:020000040000fa
:040014007003000075
:020000040000fa
:040018007003000071
:020000040000fa
:04001c00700300006d
:020000040000fa
:040020007003000069
:020000040000fa
:040024007003000065
:020000040000fa
:040028007003000061
:020000040000fa
:04002c00700300005d
:020000040000fa
:040030007003000059
:020000040000fa
:04003400c8020000fe
:020000040000fa
:040038007003000051
:020000040000fa
:04003c00700300004d
:020000040000fa
:040040007003000049
:020000040000fa
:040044007003000045
:020000040000fa
:040048007003000041
:020000040000fa
:04004c00700300003d
:020000040000fa
:040050007003000039
:020000040000fa
:04005400ee020000b8
:020000040000fa
:040058007003000031
:020000040000fa
:04005c00700300002d
:020000040000fa
:040060007003000029
:020000040000fa
:040064007003000025
:020000040000fa
:040068007003000021
:020000040000fa
:04006c00700300001d
:020000040000fa
:040070007003000019
:020000040000fa
:04007400180300006d
:020000040000fa
:040078007003000011
:020000040000fa
:04007c00700300000d
:020000040000fa
:040080007003000009
:020000040000fa
:040084007003000005
:020000040000fa
:040088007003000001
:020000040000fa
:04008c0070030000fd
:020000040000fa
:0400900070030000f9
:020000040000fa
:0400940070030000f5
:020000040000fa
:0400980070030000f1
:020000040000fa
:04009c0070030000ed
:020000040000fa
:0400a00070030000e9
:020000040000fa
:0400a40070030000e5
:020000040000fa
:0400a80070030000e1
:020000040000fa
:0400ac0070030000dd
:020000040000fa
:0400b00070030000d9
:020000040000fa
:0400b40070030000d5
:020000040000fa
:0400b80070030000d1
:020000040000fa
:0400bc0070030000cd
:020000040000fa
:0400c00070030000c9
:020000040000fa
:0400c40070030000c5
:020000040000fa
:0400c80070030000c1
:020000040000fa
:0400cc0070030000bd
:020000040000fa
:0400d00070030000b9
:020000040000fa
:0400d40070030000b5
:020000040000fa
:0400d80070030000b1
:020000040000fa
:0400dc0070030000ad
:020000040000fa
:0400e00070030000a9
:020000040000fa
:0400e40070030000a5
:020000040000fa
:0400e80070030000a1
:020000040000fa
:0400ec00700300009d
:020000040000fa
:0400f0007003000099
:020000040000fa
:0400f4007003000095
:020000040000fa
:0400f8007003000091
:020000040000fa
:0400fc00700300008d
:020000040000fa
:040100007003000088
:020000040000fa
:040104007003000084
:020000040000fa
:040108007003000080
:020000040000fa
:04010c00700300007c
:020000040000fa
:040110007003000078
:020000040000fa
:040114007003000074
:020000040000fa
:040118007003000070
:020000040000fa
:04011c00700300006c
:020000040000fa
:040120007003000068
:020000040000fa
:040124007003000064
:020000040000fa
:040128007003000060
:020000040000fa
:04012c00700300005c
:020000040000fa
:040130007003000058
:020000040000fa
:040134007003000054
:020000040000fa
:040138007003000050
:020000040000fa
:04013c00700300004c
:020000040000fa
:040140007003000048
:020000040000fa
:040144007003000044
:020000040000fa
:040148005c03000054
:020000040000fa
:04014c00700300003c
:020000040000fa
:040150007003000038
:020000040000fa
:040154007003000034
:020000040000fa
:040158007003000030
:020000040000fa
:04015c00700300002c
:020000040000fa
:040160007003000028
:020000040000fa
:040164007003000024
:020000040000fa
:040168007003000020
:020000040000fa
:04020800700300007f
:020000040000fa
:04020c00700300007b
:020000040000fa
:040210007003000077
:020000040000fa
:040214007003000073
:020000040000fa
:04021800700300006f
:020000040000fa
:04021c00700300006b
:020000040000fa
:040220007003000067
:020000040000fa
:040224007003000063
:020000040000fa
:04022800700300005f
:020000040000fa
:04022c00700300005b
:020000040000fa
:040230007003000057
:020000040000fa
:040234007003000053
:020000040000fa
:04023800700300004f
:020000040000fa
:04023c00700300004b
:020000040000fa
:040240007003000047
:020000040000fa
:040244007003000043
:020000040000fa
:04024800700300003f
:020000040000fa
:04024c00700300003b
:020000040000fa
:040250007003000037
:020000040000fa
:040254007003000033
:020000040000fa
:04025800700300002f
:020000040000fa
:04025c00700300002b
:020000040000fa
:040260007003000027
:020000040000fa
:040264007003000023
:020000040000fa
:04026800700300001f
:020000040000fa
:04026c00700300001b
:020000040000fa
:040270007003000017
:020000040000fa
:040274007003000013
:020000040000fa
:04027800700300000f
:020000040000fa
:04027c00700300000b
:020000040000fa
:040280007003000007
:020000040000fa
:040284007003000003
:020000040000fa
:0402880070030000ff
:020000040000fa
:04028c0070030000fb
:020000040000fa
:0402900070030000f7
:020000040000fa
:0402940070030000f3
:020000040000fa
:0402980070030000ef
:020000040000fa
:04029c0070030000eb
:020000040000fa
:0402a00070030000e7
:020000040000fa
:0402a40070030000e3
:020000040000fa
:0402a80070030000df
:020000040000fa
:0402ac0070030000db
:020000040000fa
:0402b00070030000d7
:020000040000fa
:0402b40070030000d3
:020000040000fa
:0402b80070030000cf
:020000040000fa
:0402bc0070030000cb
:020000040000fa
:0402c00070030000c7
:020000040000fa
:0402c40070030000c3
:020000040000fa
:0402c80070030000bf
:020000040000fa
:0402cc0070030000bb
:020000040000fa
:0402d00070030000b7
:020000040000fa
:0402d40070030000b3
:020000040000fa
:0402d80070030000af
:020000040000fa
:0402dc0070030000ab
:020000040000fa
:0402e00070030000a7
:020000040000fa
:0402e40070030000a3
:020000040000fa
:0402e800700300009f
:020000040000fa
:0402ec00700300009b
:020000040000fa
:0402f0007003000097
:020000040000fa
:0402f4007003000093
:020000040000fa
:0402f800700300008f
:020000040000fa
:0402fc00700300008b
:020000040000fa
:040300007003000086
:020000040000fa
:040304007003000082
:020000040000fa
:04030800700300007e
:020000040000fa
:04030c00700300007a
:020000040000fa
:040310007003000076
:020000040000fa
:040314007003000072
:020000040000fa
:04031800700300006e
:020000040000fa
:04031c00700300006a
:020000040000fa
:040320007003000066
:020000040000fa
:040324007003000062
:020000040000fa
:04032800700300005e
:020000040000fa
:04032c00700300005a
:020000040000fa
:040330007003000056
:020000040000fa
:040334007003000052
:020000040000fa
:04033800700300004e
:020000040000fa
:04033c00700300004a
:020000040000fa
:040340007003000046
:020000040000fa
:040344007003000042
:020000040000fa
:04034800700300003e
:020000040000fa
:04034c00700300003a
:020000040000fa
:040350007003000036
:020000040000fa
:040354007003000032
:020000040000fa
:04035800700300002e
:020000040000fa
:04035c00700300002a
:020000040000fa
:040360007003000026
:020000040000fa
:040364007003000022
:020000040000fa
:04036800700300001e
:020000040000fa
:10040000cf9220000e9f20000e0188000000000007
:10041000000020000000e000020032000001200087
:100420002002880014000700af0007000000e00071
:1004300003003a00a0a420000100200002003700c1
:100440000000200001002000810f70000100320038
:1004500014000700000020000000e000020032004d
:1004600000000200000000005e0a02000000000020
:100470000040da000000fe004440a9000010200007
:100480000000e0000300320000002000a00188000e
:100490004440a800000006008a1f78008b1f7800e7
:1004a0000000060091018800800478000000eb0045
:1004b0001a003700e284440032a0b4009905ba0063
:1004c000e284440032a0b4009906ba00e2844400f9
:1004d00032a0b4000006eb00476fde00fd07b2005b
:1004e000636ce10003003a00ebff07000000eb0043
:1004f0000a003700606ce10004003a00005deb0088
:100500008b05e900fdff3e00040037006168e10053
:10051000010032000086eb000b00070019c7ba008b
:100520001905ba000e04e00003003a000a00e000da
:10053000e0ff3a0000000600fe07b2009e018800be
:100540008a047800f5ff3700395dba008b05e900b1
:100550000c003200295dba008b05e900080032006a
:100560000c00e00003003a00e284440032a0b40032
:10057000f5ff370019ddba008b05e900faff3a00f4
:100580008904e800e184440032a0b40000000600c1
:100590003600f800809fbe00829fbe00849fbe0090
:1005a000869fbe003400f80000002000a0018800f3
:1005b0000000fa008460a900b30207000080fa007e
:1005c0003400f9004f03be004f02be004f01be00d1
:1005d0004f00be003600f900004006003600f8006b
:1005e000809fbe00829fbe00849fbe00869fbe008b
:1005f0003400f80000002000a00188000000fa008c
:100600008560a900301180000040780024030700b5
:100610000080fa003400f9004f03be004f02be0014
:100620004f01be004f00be003600f900004006003a
:10063000809fbe003400f80000002000a001880068
:100640000000fa008660a900501680004400de0019
:10065000614060008080fb0022c9bf000080fb0079
:10066000808f500004003200501680004400de00ed
:100670006140600022e9b700101680004400de00ef
:10068000614060008080fb0023c9bf000080fb0048
:10069000808f500004003200101680004400de00fd
:1006a0006140600023e9b7000080fa003400f900df
:1006b0004f00be00004006003400f800881f78009c
:1006c00008002000a80188004f0478000000fa000c
:1006d0008d00a9000080fa003400f90000400600f7
:1006e0000040da000000fe000000050080017800f4
:1006f00002003700b15978000201e9000200e00071
:10070000fcff3a0000000600020037000204e0008f
:100710000b0032008101780000027800304178003f
:10072000b14f5100f9ff3200100020001442780050
:10073000934f5200030031000080eb0000000600e0
:080740000000eb0000000600c0
:020000040000fa
:100748007379000073200000726500007365000073
:10075800740d00000a0000006d61000063200000b5
:100768007265000073650000740d00000a00000047
:100778006d610000632000007365000074200000b4
:100788006465000076610000646400007220000067
:10079800303000003141000044330000454500007e
:1007a8000d0a0000006d0000616300002073000066
:1007b80065740000206e0000776b0000736b00000a
:1007c8006579000020320000423700004531000002
:1007d8003531000036320000384100004544000041
:1007e8003241000036410000424600003731000027
:1007f8003538000038300000394300004634000026
:1008080046330000430d00000a0000006d6100003f
:100818006320000073650000742000006170000010
:10082800707300006b650000792000003242000000
:1008380037450000313500003136000032380000fd
:1008480041450000443200004136000041420000aa
:1008580046370000313500003838000030390000d4
:100868004346000034460000334300000d0a0000f0
:10087800006d000061630000206a00006f690000dd
:100888006e20000061620000700d00000a00000088
:100898006d61000063200000736500007420000093
:1008a80061640000722000006f6e00000d0a0000f5
:1008b800006d000061630000207300006176000095
:1008c800650d00000a0000006d6100006320000053
:1008d80074780000207500006e6300006e660000ea
:1008e8002031000020310000323300004142000076
:1008f800430d00000a0000006f6b00000d0a0000a5
:10090800006f00006b0d00000a61000063630000c7
:100918006570000074650000640d00000a000000a6
:100928006f6b00000d0a00006d610000635f00003e
:10093800747800005f6f00006b0d00000a00000073
:020000040000fa
:100948000000fa00a5c8bf000080fb00cf80de00d1
:10095800d200200003002000820f5000838f58002f
:100968005e003e00006001000d00370013003700f4
:10097800190037001f003700250037002b0037000b
:100988005600370055003700540037005300370031
:100998002f003700350037003b0037004300370091
:1009a800f0812000c2002000413a28004dff0700d6
:1009b80020002000b04088004d003700f081200062
:1009c800c2002000013b280046ff0700200020004d
:1009d800b040880046003700f0812000b2012000b6
:1009e800c13b28003fff070020002000b0408800de
:1009f8003f003700f081200032032000713d2800bd
:100a080038ff070020002000b04088003800370079
:100a1800f081200032032000a140280031ff0700a8
:100a280020002000b040880031003700f08120000d
:100a3800f2002000d14328002aff0700e00120002f
:100a4800b040880010c0b3001ee8b7002800370087
:100a5800f081200012012000c144280021ff070076
:100a680020002000b040880021003700f0812000dd
:100a7800b2002000d14528001aff070050002000ce
:100a8800b04088001a003700f08120008201200061
:100a98008146280013ff0700e0012000b0408800cd
:100aa80010c0b3001ee8b700110037001ac8bf0015
:100ab800e14f500006003a00e0012000b0408800f5
:100ac80010c0b3001ee8b7001a68ef00080037002e
:100ad8009f68ef001c28ef0005003700a568ef00ad
:100ae8009f68ef00d0ff2f00e04088000000000062
:100af8000080fa00000006000000fa00a5c8bf0048
:100b08000080fb00e40f500031003200e40f500079
:100b18000c003c00e10f500018003200e10f5000bb
:100b280003003c000000e000120032004b003700d8
:100b3800e20f500018003200e30f50001d00320091
:100b480046003700ea0f50002f003200ea0f50002d
:100b580003003c00e50f5000240032003f0037003e
:100b6800eb0f50002f003200ed0f50003400320020
:100b78003a0037001c28ef004c003700f0852000b1
:100b880001482800defe07000000e00038003a00b7
:100b98001c28ef0045003700f08520000148280098
:100ba800d7fe07000000e00033003a001c28ef00e1
:100bb8003e003700f085200001482800d0fe0700dd
:100bc8000000e0002e003a001c28ef003700370034
:100bd800f085200001482800c9fe07000000e00059
:100be80029003a001c28ef0030003700f08520006b
:100bf80051482800c2fe07000000e00024003a0027
:100c08001c28ef0029003700f08520000148280043
:100c1800bbfe07000000e0001f003a001c28ef00a0
:100c280022003700f085200001482800b4fe0700a4
:100c38000000e0001a003a001c28ef001b003700f3
:100c4800f085200041492800adfe07000000e000c3
:100c580015003a001c28ef0014003700a568ef00c3
:100c6800d0ff2f00e0408800000000000f00370090
:100c7800000000000d003700000000000b003700e6
:100c880000000000090037000000000007003700de
:100c980000000000050037000000000003003700d6
:100ca8000000000001003700000000000080fa008a
:100cb800000006000200fa0014c8bf000004e000ab
:100cc8001d003a0010c0b30014e8b70010c0b3000c
:100cd8009fe8b7001e68ef0019ff07009fc8bf0014
:100ce800e14f500028003a000000eb00000f7800a8
:100cf80005003700f08520001e0040008040eb0012
:100d0800014878001e0fe800f00320009e007800dc
:100d1800808f5000f7ff3600008020008000eb0035
:100d280031009800f08120008101070010002000a8
:100d3800e04088001400370014c8bf00e14f50009d
:100d480011003a000080200010409000e14f500050
:100d580007003a000080eb00e040880066ff0700cb
:100d6800008020008040eb0011409800060037000a
:100d7800b04080000000e00003003a001468ef0073
:100d8800e0ff2f00e04088000080fa000000060025
:100d98000200fa00004f7800e0408000e10f5000a8
:100da80019003200e04080000000e00008003a002e
:100db8001e417800518a200082487800a768ef0019
:100dc800e0012000904088001468ef000e00370012
:100dd800718a20009140780010c0b300e2cf500023
:100de80001003e000040eb008140e800014178002e
:100df800738a2000824978000004e0000200320073
:100e0800a568ef00a768ef000080fa000000060060
:100e18000000fa00a7ff0700a5c8bf000080fb007c
:100e2800e30f50001b003200e30f500007003c00a6
:100e3800e10f500011003200e10f500012003c0099
:100e48000000e0000a00320021003700e50f5000e2
:100e580016003200e50f500011003500ea0f50006f
:100e680015003200eb0f5000160032001800370052
:100e780010c0b300c6ff07001700370020c0b3003a
:100e8800c3ff07001400370030c0b300c0ff0700dd
:100e98001100370040c0b300bdff07000e00370047
:100ea80050c0b300baff07000b003700a0c0b30062
:100eb800b7ff070008003700b0c0b300b4ff070051
:100ec80005003700d0c0b300b1ff070002003700ab
:100ed800a568ef000000000020c0b300a4e8b70038
:100ee8000080fa00000006000000fa0071ff070009
:100ef800a5c8bf000080fb00ed0f500003003a00ba
:100f0800d0c0b300a2ff070002003700a568ef00b9
:100f18000000000020c0b300a4e8b7000080fa0079
:100f2800000006000000fa00a4c8bf000080fb0013
:100f3800e10f500002003a00b5ff0700010037003a
:100f4800000000000080fa00000006000000fa001f
:100f5800113a8000f08f2f00808060000050200040
:100f680001007000103a88004247a9004227a900f2
:100f78004207a90045e7a900213a8000f0ff2800b0
:100f880000806000203a88004567a900213a800067
:100f9800f08f2f0000806000203a8800e024ef00e6
:100fa800e224ef0005e1a80021088000f0cf2f001f
:100fb800008060000090a0002008880021088000c0
:100fc800f0fc2f0000806000200888000421a800a1
:100fd80021e2a90021a2a8002342a800c222ef0012
:100fe800ca22ef00c022ef00c822ef00c082a8008a
:100ff800c882a800c9e2a8006e00a8006e20a80058
:101008006200a8006220a8008460a9009460a8007b
:101018008560a9009560a8008660a9009660a80070
:101028008d00a9009d00a800c262a800cb22a900db
:10103800cb02a9000080fa00000006000000fa00b8
:10104800a068ef00a468ef00a868ef000808a900ee
:10105800008020008040eb00114098001468ef00e9
:10106800a568ef00f0702200904088001a68ef0031
:10107800a0002000804088000080fa0000000600e0
:101088000000fa00104580000000e80010458800c4
:10109800a0c8bf000080fb00e20f50002b00320008
:1010a800e20f500005003c000000e0000a0032009a
:1010b800e10f5000170032005c003700e40f5000c9
:1010c8003e003200e40f50002e003500e50f5000be
:1010d800480032005500370011458000301f2000bd
:1010e800808f500001003600a228ef0011458000d3
:1010f800900f2000808f500003003e00cb22a800f4
:10110800cb02a9004c003700cb22a900cb02a800d3
:1011180049003700cb22a90011458000703e20000d
:10112800808f500001003600a228ef001145800092
:10113800301f2000808f500002003e00cb02a80024
:101148003d003700cb02a9003b003700cb02a900c5
:1011580011458000703e2000808f5000010036004d
:10116800a228ef001145800030062000808f500033
:1011780002003e00cb22a8002f003700cb22a90096
:101188002d003700cb22a90011458000f0a52e00c4
:10119800808f500001003600a228ef001145800022
:1011a80030062000808f500002003e00cb02a800cd
:1011b80021003700cb02a9001f003700cb02a9008d
:1011c80011458000703e2000808f500001003600dd
:1011d800a228ef0011458000301f2000808f5000aa
:1011e80002003e00cb22a80013003700cb22a90042
:1011f80011003700cb02a90011458000301f2000e4
:10120800808f500001003600a228ef0011458000b1
:1012180030062000808f500002003e00cb22a8003c
:1012280005003700cb22a90003003700a228ef00f1
:10123800cb22a900cb02a9000080fa00000006001a
:101248000000fa00a0c8bf000080fb00e20f5000b9
:1012580007003200e20f500007003c000000e000e9
:1012680007003a0010c0b300a4e8b7000500370033
:1012780000000000030037000000000001003700f4
:10128800000000000080fa00000006000000fa00dc
:101298000080fa00000006000200fa00004f780003
:1012a80000802000104090000004e0001e003a007a
:1012b8000080200030009000f1852000810040006f
:1012c8009e4878008000e8000080200031009800e7
:1012d8001e407800ea4f500008003a001ec8bf00c0
:1012e800e14f500002003a001e68ef00030037008b
:1012f8000080200011c0b300114098000080200039
:10130800b0009000f0032000808f500006003600e7
:10131800008020008000eb00310098000080200051
:101328008040eb00114098000080fa0000000600a1
:101338000400fa00100798000040eb00004f780006
:101348000f0037001e80fb009e00900000804000c8
:1013580090407800114798001e4090000080fb00e4
:1013680020118800000000001111800000102000ea
:10137800008060000000e000fbff3a001e4fe8001c
:101388001e80fb009e009000008040001040780006
:101398000004e000ebff3a000080fa0000000600bd
:1013a8000400fa00000f7800214798001e0078001a
:1013b8008000eb00110098001e007800ae409000fd
:1013c800014878001e0078008040eb00114098002a
:1013d8000080fa00000006000400fa00000f780000
:1013e800214798001e00780010407800e14f500017
:1013f80015003a001e007800100090008000e800f8
:101408001e007800110098001e00780090009000df
:101418001e00780020009000808f50000d003900d9
:101428001e0078008000eb00110098001e00780074
:1014380011c0b300114098001e007800ae40900023
:1014480001487800030037001e0078008000eb0098
:10145800110098000080fa00000006000000fa0061
:101468008040eb0040922000dbff07000080fa007c
:10147800000006000000fa0040922000a1002000b1
:0c148800210098000080fa00000006001f
:020000040000fa
:10149400a0080000840000000000000024090000ef
:1014a400080000000000000000080000a000000088
:0814b400000000000000000030
:020000040000fa
:1014bc000000fa00a4fe0700dffe0700ecff0700a7
:1014cc000060fe005dff070095fe0700fcff370083
:020000040000fa
:0200000401f009
:04000000ffff0000fe
:020000040000fa
:0200000401f009
:04000800ffff0000f6
:020000040000fa
:0200000401f009
:04000c005fff000092
:020000040000fa
:0200000401f009
:04001000fbff0000f2
:020000040000fa
:0200000401f009
:040014005fff00008a
:020000040000fa
:0200000401f009
:04001800fcff0000e9
:020000040000fa
:0200000401f009
:04001c00feff0000e3
:00000001FF
