:020000040000fa
:080000000002040000000000f2
:020000040000fa
:040008007804000078
:020000040000fa
:04000c0038040000b4
:020000040000fa
:0400100048040000a0
:020000040000fa
:04001400580400008c
:020000040000fa
:040018006804000078
:020000040000fa
:04001c007804000064
:020000040000fa
:040020007804000060
:020000040000fa
:04002400780400005c
:020000040000fa
:040028007804000058
:020000040000fa
:04002c007804000054
:020000040000fa
:040030007804000050
:020000040000fa
:04003400c8020000fe
:020000040000fa
:040038007804000048
:020000040000fa
:04003c007804000044
:020000040000fa
:040040007804000040
:020000040000fa
:04004400f4020000c2
:020000040000fa
:040048007804000038
:020000040000fa
:04004c007804000034
:020000040000fa
:040050007804000030
:020000040000fa
:040054005203000053
:020000040000fa
:040058007804000028
:020000040000fa
:04005c007804000024
:020000040000fa
:040060007804000020
:020000040000fa
:04006400780400001c
:020000040000fa
:040068007804000018
:020000040000fa
:04006c007804000014
:020000040000fa
:040070007804000010
:020000040000fa
:040074007c03000009
:020000040000fa
:040078007804000008
:020000040000fa
:04007c007804000004
:020000040000fa
:040080007804000000
:020000040000fa
:0400840078040000fc
:020000040000fa
:0400880078040000f8
:020000040000fa
:04008c0078040000f4
:020000040000fa
:0400900078040000f0
:020000040000fa
:0400940078040000ec
:020000040000fa
:0400980078040000e8
:020000040000fa
:04009c0078040000e4
:020000040000fa
:0400a00078040000e0
:020000040000fa
:0400a40078040000dc
:020000040000fa
:0400a80078040000d8
:020000040000fa
:0400ac0078040000d4
:020000040000fa
:0400b00078040000d0
:020000040000fa
:0400b40078040000cc
:020000040000fa
:0400b80078040000c8
:020000040000fa
:0400bc0078040000c4
:020000040000fa
:0400c00078040000c0
:020000040000fa
:0400c40078040000bc
:020000040000fa
:0400c80078040000b8
:020000040000fa
:0400cc0078040000b4
:020000040000fa
:0400d00078040000b0
:020000040000fa
:0400d40078040000ac
:020000040000fa
:0400d80078040000a8
:020000040000fa
:0400dc0078040000a4
:020000040000fa
:0400e00078040000a0
:020000040000fa
:0400e400780400009c
:020000040000fa
:0400e8007804000098
:020000040000fa
:0400ec007804000094
:020000040000fa
:0400f0007804000090
:020000040000fa
:0400f400780400008c
:020000040000fa
:0400f8007804000088
:020000040000fa
:0400fc007804000084
:020000040000fa
:04010000780400007f
:020000040000fa
:04010400780400007b
:020000040000fa
:040108007804000077
:020000040000fa
:04010c007804000073
:020000040000fa
:04011000780400006f
:020000040000fa
:04011400780400006b
:020000040000fa
:040118007804000067
:020000040000fa
:04011c007804000063
:020000040000fa
:04012000780400005f
:020000040000fa
:04012400780400005b
:020000040000fa
:040128007804000057
:020000040000fa
:04012c007804000053
:020000040000fa
:04013000780400004f
:020000040000fa
:04013400780400004b
:020000040000fa
:040138007804000047
:020000040000fa
:04013c007804000043
:020000040000fa
:04014000780400003f
:020000040000fa
:04014400780400003b
:020000040000fa
:04014800240400008b
:020000040000fa
:04014c007804000033
:020000040000fa
:04015000780400002f
:020000040000fa
:04015400780400002b
:020000040000fa
:040158007804000027
:020000040000fa
:04015c007804000023
:020000040000fa
:04016000780400001f
:020000040000fa
:04016400780400001b
:020000040000fa
:040168007804000017
:020000040000fa
:040208007804000076
:020000040000fa
:04020c007804000072
:020000040000fa
:04021000780400006e
:020000040000fa
:04021400780400006a
:020000040000fa
:040218007804000066
:020000040000fa
:04021c007804000062
:020000040000fa
:04022000780400005e
:020000040000fa
:04022400780400005a
:020000040000fa
:040228007804000056
:020000040000fa
:04022c007804000052
:020000040000fa
:04023000780400004e
:020000040000fa
:04023400780400004a
:020000040000fa
:040238007804000046
:020000040000fa
:04023c007804000042
:020000040000fa
:04024000780400003e
:020000040000fa
:04024400780400003a
:020000040000fa
:040248007804000036
:020000040000fa
:04024c007804000032
:020000040000fa
:04025000780400002e
:020000040000fa
:04025400780400002a
:020000040000fa
:040258007804000026
:020000040000fa
:04025c007804000022
:020000040000fa
:04026000780400001e
:020000040000fa
:04026400780400001a
:020000040000fa
:040268007804000016
:020000040000fa
:04026c007804000012
:020000040000fa
:04027000780400000e
:020000040000fa
:04027400780400000a
:020000040000fa
:040278007804000006
:020000040000fa
:04027c007804000002
:020000040000fa
:0402800078040000fe
:020000040000fa
:0402840078040000fa
:020000040000fa
:0402880078040000f6
:020000040000fa
:04028c0078040000f2
:020000040000fa
:0402900078040000ee
:020000040000fa
:0402940078040000ea
:020000040000fa
:0402980078040000e6
:020000040000fa
:04029c0078040000e2
:020000040000fa
:0402a00078040000de
:020000040000fa
:0402a40078040000da
:020000040000fa
:0402a80078040000d6
:020000040000fa
:0402ac0078040000d2
:020000040000fa
:0402b00078040000ce
:020000040000fa
:0402b40078040000ca
:020000040000fa
:0402b80078040000c6
:020000040000fa
:0402bc0078040000c2
:020000040000fa
:0402c00078040000be
:020000040000fa
:0402c40078040000ba
:020000040000fa
:0402c80078040000b6
:020000040000fa
:0402cc0078040000b2
:020000040000fa
:0402d00078040000ae
:020000040000fa
:0402d40078040000aa
:020000040000fa
:0402d80078040000a6
:020000040000fa
:0402dc0078040000a2
:020000040000fa
:0402e000780400009e
:020000040000fa
:0402e400780400009a
:020000040000fa
:0402e8007804000096
:020000040000fa
:0402ec007804000092
:020000040000fa
:0402f000780400008e
:020000040000fa
:0402f400780400008a
:020000040000fa
:0402f8007804000086
:020000040000fa
:0402fc007804000082
:020000040000fa
:04030000780400007d
:020000040000fa
:040304007804000079
:020000040000fa
:040308007804000075
:020000040000fa
:04030c007804000071
:020000040000fa
:04031000780400006d
:020000040000fa
:040314007804000069
:020000040000fa
:040318007804000065
:020000040000fa
:04031c007804000061
:020000040000fa
:04032000780400005d
:020000040000fa
:040324007804000059
:020000040000fa
:040328007804000055
:020000040000fa
:04032c007804000051
:020000040000fa
:04033000780400004d
:020000040000fa
:040334007804000049
:020000040000fa
:040338007804000045
:020000040000fa
:04033c007804000041
:020000040000fa
:04034000780400003d
:020000040000fa
:040344007804000039
:020000040000fa
:040348007804000035
:020000040000fa
:04034c007804000031
:020000040000fa
:04035000780400002d
:020000040000fa
:040354007804000029
:020000040000fa
:040358007804000025
:020000040000fa
:04035c007804000021
:020000040000fa
:04036000780400001d
:020000040000fa
:040364007804000019
:020000040000fa
:040368007804000015
:020000040000fa
:100400004f9020000e9f20000e0188000000000089
:10041000000020000000e000020032000001200087
:100420002002880014000700330107000000e000ec
:1004300003003a0000032100010020000200370001
:100440000000200001002000810f70000100320038
:1004500014000700000020000000e000020032004d
:1004600000000200000000001e100200000000005a
:100470000040da000000fe004440a900c012200045
:100480000000e0000300320000002000a00188000e
:100490004440a800000006008a1f78008b1f7800e7
:1004a0000000060091018800800478000000eb0045
:1004b0001a003700e284440032a0b4009905ba0063
:1004c000e284440032a0b4009906ba00e2844400f9
:1004d00032a0b4000006eb00476fde00fd07b2005b
:1004e000636ce10003003a00ebff07000000eb0043
:1004f0000a003700606ce10004003a00005deb0088
:100500008b05e900fdff3e00040037006168e10053
:10051000010032000086eb000b00070019c7ba008b
:100520001905ba000e04e00003003a000a00e000da
:10053000e0ff3a0000000600fe07b2009e018800be
:100540008a047800f5ff3700395dba008b05e900b1
:100550000c003200295dba008b05e900080032006a
:100560000c00e00003003a00e284440032a0b40032
:10057000f5ff370019ddba008b05e900faff3a00f4
:100580008904e800e184440032a0b40000000600c1
:100590003600f800809fbe00829fbe00849fbe0090
:1005a000869fbe003400f80000002000a0018800f3
:1005b0000000fa008460a9000021ef000040eb0079
:1005c00090030700340507000080fa003400f900aa
:1005d0004f03be004f02be004f01be004f00be00e1
:1005e0003600f900004006003600f800809fbe008b
:1005f000829fbe00849fbe00869fbe003400f8002c
:1006000000002000a00188000000fa0084e0a9009a
:1006100050c0b30006e1b70010c0b3007903070073
:1006200000c8bf000004e00016003a00114080003e
:10063000700c2000808f5000010036000228ef006f
:100640001140800010c0b30032062000828f50009d
:10065000010036000040eb008100e80011408800f6
:100660000004e00004003200cb22a80000000000db
:10067000cb02a90003003700cb22a9000000000034
:10068000cb02a8000080fa003400f9004f03be003e
:100690004f02be004f01be004f00be003600f90001
:1006a000004006003600f800809fbe00829fbe001a
:1006b000849fbe00869fbe003400f800000020002a
:1006c000a00188000000fa008560a90030118000b8
:1006d00000407800e50507000080fa003400f900ca
:1006e0004f03be004f02be004f01be004f00be00d0
:1006f0003600f900004006003600f800809fbe007a
:10070000829fbe00849fbe00869fbe003400f8001a
:1007100000002000a00188000000fa008660a90007
:10072000101680004400de00614060008080fb0005
:1007300090c8bf000080fb00808f50001a0032007c
:10074000101680004400de006140600090e8b700b1
:1007500010168000700060000000e00007003a0002
:100760008040eb00c08a2000f702070011c0b300f0
:10077000408b2000f40207000b0037008040eb00a4
:10078000408b2000f002070092c8bf000004e00088
:1007900004003a0011c0b300c08a2000ea0207003a
:1007a000010037009268ef00501680004400de0020
:1007b000614060008080fb0091c8bf000080fb00aa
:1007c000808f500018003200501680004400de0078
:1007d0006140600091e8b700501680007000600032
:1007e0000000e0000700320011c0b300c08b200001
:1007f000d50207008040eb00408c2000d2020700a9
:10080000090037008040eb00c08b2000ce020700bb
:100810000fc8bf000004e00003003a0011c0b3009d
:10082000408c2000c80207000080fa003400f90064
:100830004f03be004f02be004f01be004f00be007e
:100840003600f900004006003400f800881f7800e8
:1008500008002000a80188004f0478000000fa007a
:100860008d00a9000080fa003400f9000040060065
:100870003400f800881f780008002000a8018800d4
:100880004f0478000000fa008020a900ffff370025
:100890003400f800881f780008002000a8018800b4
:1008a0004f0478000000fa008060a900ffff3700c5
:1008b0003400f800881f780008002000a801880094
:1008c0004f0478000000fa008040a900ffff3700c5
:1008d0003400f800881f780008002000a801880074
:1008e0004f0478000000fa008080a900ffff370065
:1008f0000040da000000fe000000050080017800e2
:1009000002003700b15978000201e9000200e0005e
:10091000fcff3a000000060080017800020037006a
:10092000815978000201e9000200e000fcff3a0072
:1009300000000600020037000204e0000b00320055
:10094000810178000002780030417800b14f5100f9
:10095000f9ff32001000200014427800934f52003b
:10096000030031000080eb00000006000000eb00f7
:04097000000006007d
:020000040000fa
:100974007379000073200000726500007365000045
:10098400740d00000a0000006d6100006320000087
:100994007265000073650000740d00000a00000019
:1009a4006d61000063200000736100007665000043
:1009b4000d0a00000072000061640000696f00000d
:1009c4002073000065740000206d00006f64000057
:1009d400206c00006f720000610d00000a0000002e
:1009e40072610000646900006f20000073650000fc
:1009f4007420000066720000657100002039000058
:100a0400323300003330000030300000303000005a
:100a14000d0a00000072000061640000696f0000ac
:100a240020730000657400002070000077720000dd
:100a340020310000340d00000a0000007261000043
:100a4400646900006f2000007365000074200000da
:100a5400736600002073000066310000300d000052
:100a64000a00000072610000646900006f20000049
:100a740073650000742000006372000063200000ae
:100a84006f6e00000d0a0000007200006164000037
:100a9400696f00002073000065740000206300008b
:100aa40072200000342f0000350d00000a00000001
:100ab40072610000646900006f200000736500002b
:100ac40074200000737900006e630000203500007c
:100ad400350d00000a000000726100006469000026
:100ae4006f2000007365000074200000627700002e
:100af40020310000323500000d0a0000006d0000b6
:100b040061630000207000006175000073650000df
:100b14000d0a00000072000061640000696f0000ab
:100b24002074000078200000313000000d0a00001d
:100b34000072000061640000696f0000207400000e
:100b440078200000323000000d0a0000007200001e
:100b540061640000696f00002074000078200000c8
:100b6400333000000d0a00000072000061640000d0
:100b7400696f000020740000782000003430000009
:100b84000d0a00000072000061640000696f00003b
:100b94002074000078200000353000000d0a0000a9
:100ba400006f00006b0d00000a00000034320000ea
:100bb4003934000039360000373200003435000083
:080bc4000d0a00000000000012
:020000040000fa
:100bcc000000fa0006c8bf00e44f50001c003a00b9
:100bdc0010c8bf000080fb00e20f50001000320074
:100bec00e20f500005003c000000e000080032005d
:100bfc00e10f5000080032000f003700e30f5000e7
:100c0c0009003200e40f5000090032000a003700de
:100c1c001168ef00080037001268ef00060037007b
:100c2c001368ef00040037001468ef00020037006f
:100c3c001568ef000000000030c0b30006e8b700f4
:100c4c000080fa00000006000200fa00004f780055
:100c5c0040892000017d200021009800c203200063
:100c6c008000eb004085200028ff07001e41780023
:100c7c0071802000824878001e80fb006101b90061
:100c8c000080eb008080eb00020040008380480075
:100c9c00c200200003002000820f5000838f5800f8
:100cac007f003e00006001000c0037001000370090
:100cbc0014003700180037001c00370020003700e4
:100ccc0024003700280037002c0037003000370094
:100cdc0034003700380037003c00370040852000d6
:100cec00c2002000a14b280001ff0700690037005b
:100cfc0040852000c2002000614c2800fcfe07004b
:100d0c006400370040852000b2002000214d2800ef
:100d1c00f7fe07005f0037004085200052012000dd
:100d2c00d14d2800f2fe07005a0037004085200004
:100d3c00b2012000214f2800edfe070055003700be
:100d4c004085200032012000d1502800e8fe070029
:100d5c00500037004085200042012000015228003d
:100d6c00e3fe07004b0037004085200032012000d5
:100d7c0041532800defe0700460037004085200066
:100d8c003201200071542800d9fe070041003700c1
:100d9c004085200042012000a1552800d4fe070008
:100dac003c0037004085200032012000e15628002d
:100dbc00cffe07003700370040852000c20020001e
:100dcc0011582800cafe07003200370011c8bf00b6
:100ddc000004e0000600320040852000e200200004
:100dec00d1582800c2fe07001068ef002900370018
:100dfc0012c8bf000004e00007003200408520004c
:100e0c00e2002000b1592800b9fe070010c0b30061
:100e1c0010e8b7001f00370013c8bf000004e00043
:100e2c000700320040852000e2002000915a280083
:100e3c00affe070020c0b30010e8b7001500370064
:100e4c0014c8bf000004e0000700320040852000f9
:100e5c00e2002000715b2800a5fe070030c0b30043
:100e6c0010e8b7000b00370015c8bf000004e00005
:100e7c000700320040852000e2002000515c280071
:100e8c009bfe070040c0b30010e8b700010037001c
:100e9c000000000020c0b30016e8b70001003700c6
:100eac00000000000080fa00000006000200fa00ba
:100ebc0010c0b300004f780007c8bf000080fb00d3
:100ecc006101b9000080eb008080eb000200400063
:100edc0083804800c200200003002000820f5000d5
:100eec00838f580087003e00006001000c00370023
:100efc000e003700150037002b003700320037008a
:100f0c003900370040003700470037004e003700eb
:100f1c00550037005c003700630037006e00370067
:100f2c000040eb00004f78008f00370080812000dc
:100f3c00315d28007cfe07000000e00073003a00e1
:100f4c000040eb00004f78008700370080812000c4
:100f5c00315d280074fe07000000e0006d003a00cf
:100f6c000040eb00004f780030c0b30006e8b7003b
:100f7c0010c0b3000ce8b7000fc8bf000004e000bd
:100f8c0006003a0011c0b300408d2000eb000700b2
:100f9c0010c0b30000e8b7007300370030c0b300d6
:100fac0000e8b7007000370080812000315d280018
:100fbc005dfe07000000e00058003a000040eb0026
:100fcc00004f78006800370080812000315d2800d8
:100fdc0055fe07000000e00052003a000040eb0014
:100fec00004f78006000370080812000315d2800c0
:100ffc004dfe07000000e0004c003a000040eb0002
:10100c00004f78005800370080812000315d2800a7
:10101c0045fe07000000e00046003a000040eb00ef
:10102c00004f78005000370080812000315d28008f
:10103c003dfe07000000e00040003a000040eb00dd
:10104c00004f78004800370080812000315d280077
:10105c0035fe07000000e0003a003a000040eb00cb
:10106c00004f78004000370080812000315d28005f
:10107c002dfe07000000e00034003a000040eb00b9
:10108c00004f78003800370080812000315d280047
:10109c0025fe07000000e0002e003a000040eb00a7
:1010ac00004f78003000370080812000815d2800df
:1010bc001dfe07000000e00028003a0030c0b3001d
:1010cc0006e8b70010c0b3000ee8b7000040eb0014
:1010dc00004f78002400370080812000315d28000b
:1010ec0011fe07000000e0001e003a00b4fe0700ed
:1010fc0030c0b30006e8b7000040eb00004f7800aa
:10110c001900370000000000170037000000000035
:10111c00150037000000000013003700000000002d
:10112c0011003700000000000f0037000000000025
:10113c000d003700000000000b003700000000001d
:10114c000900370000000000070037000000000015
:10115c00050037000000000003003700000000000d
:10116c0001003700000000001e4078000080fa00eb
:10117c00000006000000fa0016c8bf000004e000e2
:10118c0065003a0006c8bf000080fb00e10f50006c
:10119c0026003200e10f500003003c000000e0008c
:1011ac000600320063003700e30f500029003200c4
:1011bc00e40f5000440032005e00370011c8bf003d
:1011cc000004e0000c003a0012c8bf000004e0006c
:1011dc0009003a0013c8bf000004e00006003a0002
:1011ec0015c8bf000004e00003003a0014c8bf009b
:1011fc000004e0004a003200408f200010407800cc
:10120c000004e00048003a0011c0b300408f2000f9
:10121c004a000700c262a90000000000c9c2a90070
:10122c002342a8000e68ef004200370007c8bf0039
:10123c00e34f5000010036000768ef0007c8bf00fd
:10124c000040e80007e8b70007c8bf007efe0700b3
:10125c003800370011c8bf000004e0000c003a0051
:10126c0012c8bf000004e00009003a0013c8bf0018
:10127c000004e00006003a0015c8bf000004e000be
:10128c0003003a0014c8bf000004e000060032005e
:10129c0040c0b30006e8b7008040eb00c08e2000d1
:1012ac002600070023003700c08e20001040780075
:1012bc000004e0001e003a0011c0b300c08e2000f4
:1012cc001e0007001b0037000ec8bf000004e00022
:1012dc000e003a0007c8bf00e34f50000300360071
:1012ec0007c8bf00ec4f50000200360030c0b300fe
:1012fc0007e8b70007c8bf000040e80007e8b700e0
:10130c0007c8bf0050fe07000a003700d0c0b3006a
:10131c004dfe0700070037000000000005003700f5
:10132c00000000000300370000000000010037003f
:10133c00000000000080fa00000006000400fa0023
:10134c00000f7800214798001e0078008000eb0009
:10135c00110098001e007800ae4090000148780003
:10136c001e0078008040eb00114098000080fa00cd
:10137c00000006000400fa00000f780021479800d6
:10138c001e00780010407800e14f500015003a0024
:10139c001e007800100090008000e8001e0078000d
:1013ac00110098001e007800900090001e0078003c
:1013bc0020009000808f50000d0039001e00780036
:1013cc008000eb00110098001e00780011c0b300e3
:1013dc00114098001e007800ae4090000148780043
:1013ec00030037001e0078008000eb00110098000d
:1013fc000080fa00000006000200fa00004f78009e
:10140c001e80fb000000e00003003200e10f5000e2
:10141c000e0032002c00370011c0b300c08c20002d
:10142c00d4ff07008040eb00408d2000d1ff070067
:10143c008040eb00c0892000ceff07008040eb000d
:10144c00408a2000cbff07001f0037008040eb00d4
:10145c0040892000c7ff07008040eb00c08a2000b5
:10146c00c4ff07008040eb00408b2000c1ff070049
:10147c008040eb00c08b2000beff07008040eb00db
:10148c00408c2000bbff07008040eb00c08d20008b
:10149c00b8ff07008040eb00408e2000b5ff07002e
:1014ac008040eb00c08e2000b2ff07008040eb00b4
:1014bc00408f2000afff07008040eb00c08f200062
:1014cc00acff0700000000000080fa0000000600de
:1014dc000000fa0040892000017d200021009800c6
:1014ec00c08920006100200021009800408a200063
:1014fc006100200021009800c08a200021032000f8
:10150c0021009800408b2000813821002100980098
:10151c00c08b2000c15d200021009800408c200071
:10152c0081bb200021009800c08c2000011c2200ef
:10153c0021009800408d20003100200021009800ef
:10154c00c08d20006109200021009800408e2000f1
:10155c002103200021009800c08e2000411f200094
:10156c0021009800408f2000813e2000210098002f
:10157c00c08f2000210320002100980011c0b3006f
:10158c00c08c20006dff07000080fa0000000600f0
:10159c000000fa004089200010409000e14f5000fc
:1015ac0007003a00408920008040eb001140980071
:1015bc0020c0b30016e8b7000040eb00f5010700af
:1015cc00c08a200010409000e14f50000c003a00ff
:1015dc00c08a20008040eb001140980040c0b3004e
:1015ec0000e8b70010c0b30011e8b70005e1a8008f
:1015fc0011c0b300c089200050ff0700ad010700e7
:10160c00408b200010409000e14f50000b003a003e
:10161c00408b20008040eb001140980010c0b300bc
:10162c0092e8b70050c0b30000e8b70010c0b30098
:10163c0012e8b70005e1a8009e010700c08b20004e
:10164c0010409000e14f50000c003a00c08b20007d
:10165c008040eb00114098000f68ef0020c0b300f1
:10166c0000e8b70010c0b30014e8b70005e1a8000b
:10167c0011c0b300408a200030ff0700408c2000ce
:10168c0010409000e14f50000b003a00408c2000bd
:10169c008040eb001140980010c0b3000fe8b70079
:1016ac008040eb00408d200024ff070030c0b300c9
:1016bc0000e8b70005e1a800c089200010409000a8
:1016cc00e14f50000b003a00c08920008040eb0035
:1016dc00114098000fc8bf00e14f500003003a00c2
:1016ec0030c0b30000e8b7000200370070c0b30090
:1016fc0000e8b700408a200010409000e14f5000f5
:10170c000b003a00408a20008040eb00114098000a
:10171c000fc8bf00e14f500003003a0030c0b300c7
:10172c0000e8b7000200370070c0b30000e8b70053
:10173c00c08c200010409000e14f500005003a0092
:10174c00c08c20008040eb001140980010c0b3000a
:10175c0013e8b700408d200010409000e14f50007e
:10176c000a003a00408d20008040eb0011409800a8
:10177c0020c0b30000e8b70010c0b30014e8b700f5
:10178c0011c0b300408a2000ecfe0700c08d200081
:10179c0010409000e14f50000f003a00c08d200027
:1017ac008040eb001140980005c8bf000004e00029
:1017bc0002003a00cb22a8000400370005c8bf0085
:1017cc00e14f500001003a00cb02a80011c0b30059
:1017dc00408e2000d9fe0700408e20001040900063
:1017ec00e14f50001b003a00408e20008040eb007f
:1017fc0011409800cb22a90000000000cb02a900e8
:10180c0004c8bf000040e90004e8b70004c8bf00ea
:10181c000004e0000400320011c0b300c08d2000b1
:10182c00c6fe07000b00370000c8bf00e54f500094
:10183c0008003a000fc8bf00e14f500003003a0007
:10184c0030c0b30000e8b7000200370070c0b3002e
:10185c0000e8b700c08e200010409000e14f50000f
:10186c0008003a00c08e20008040eb001140980028
:10187c00c262a800000000002342a900c9c2a8004f
:10188c000668ef00408f200010409000e14f5000a0
:10189c000b003a00408f20008040eb001140980074
:1018ac000cc8bf00e14f500003003a0030c0b30039
:1018bc0006e8b7000200370010c0b30006e8b70016
:1018cc00c08f200010409000e14f500004003a00ff
:1018dc00c08f20008040eb00114098000040fe00bb
:1018ec000080fa00000006000000fa00113a8000a7
:1018fc000070200001007000103a880045e7a90034
:10190c00213a8000f08f2f0000806000203a880080
:10191c00e024ef00e224ef00c222ef00ca22ef0025
:10192c00c062a900c902a900c922a900c9c2a900a4
:10193c0005e1a80021088000f0cf2f000080600096
:10194c000090a0002008880021088000f0fc2f00e7
:10195c00008060000040a000200888000421a8003e
:10196c000021ef00e0752900100888000a41a8004a
:10197c005108800070f82f0000806000500888002b
:10198c0051088000c0ff2f00008060000010a000f4
:10199c005008880050c0b30006e1b70021e2a8004f
:1019ac002162a8002062a8002342a80000012000a8
:1019bc00401188006e00a8006e20a8006200a800ec
:1019cc006220a80057e7a80056a7a800b13a8000eb
:1019dc0000ff2f00008060006000b300b03a880068
:1019ec008460a9009460a80084e0a90094e0a80099
:1019fc008560a9009560a8008660a9009660a80083
:101a0c008d00a9009d00a800c262a9000000000082
:101a1c00cb22a90000000000cb02a9000080fa0034
:101a2c00000006000000fa000068ef000668ef00f6
:101a3c000c68ef000d68ef000768ef001668ef0008
:101a4c00101680004400de006140600090e8b70092
:101a5c00501680004400de006140600091e8b70041
:101a6c0050168000700060000000e00002003a0098
:101a7c0010c0b3000fe8b70011c0b300408f2000b6
:101a8c002efe07000080fa00000006000000fa009d
:101a9c0000c8bf000080fb00e30f50003100320093
:101aac00e30f500007003c00e10f50000e00320025
:101abc00e10f50001c003c000000e0006e00320002
:101acc0068003700e50f500045003200e50f50006c
:101adc0034003500e60f500051003200e70f500083
:101aec005e0032005f003700104080000000e8000c
:101afc0010408800104080000000e00060003200c0
:101b0c000228ef0020c0b30004e8b70010c0b300f7
:101b1c0005e8b700cb02a80011c0b300408e20002e
:101b2c0006fe070061003700104080000000e8004e
:101b3c0010408800104080000000e000520032008d
:101b4c000228ef0050c0b30004e8b7000568ef00ae
:101b5c00cb22a80011c0b300408e2000f7fd070077
:101b6c0052003700104080000000e8001040880050
:101b7c00104080000000e000450032000228ef0019
:101b8c0010c0b30004e8b70010c0b30005e8b700fc
:101b9c00cb02a80011c0b300408e2000e7fd070067
:101bac0042003700104080000000e8001040880020
:101bbc00104080000000e000370032000228ef00e7
:101bcc0020c0b30004e8b7000568ef00cb22a800e2
:101bdc0011c0b300408e2000d8fd07003300370041
:101bec00104080000000e800104088001040800089
:101bfc000000e0002a0032000228ef00a0c0b30071
:101c0c0004e8b70010c0b30005e8b700cb02a80089
:101c1c0011c0b300408e2000c8fd07002300370020
:101c2c00104080000000e800104088001040800048
:101c3c000000e0001c0032000228ef00a0c0b3003e
:101c4c0004e8b7000568ef00cb22a80011c0b30070
:101c5c00408e2000b9fd07001400370005e1a900f3
:101c6c00120037000228ef00cb22a9000000000070
:101c7c00cb02a9000d003700000000000b0037005c
:101c8c0000000000090037000000000007003700ca
:101c9c0000000000050037000000000003003700c2
:101cac000000000001003700000000000080fa0076
:101cbc00000006000000fa000228ef00cb22a90069
:101ccc0000000000cb02a9008460a8000080fa008c
:101cdc00000006000000fa0001802000914078000e
:101cec0001c8bf0080cf50000300320000c8bf0005
:101cfc0001e8b700efff07001016800068006000d5
:101d0c000000e0001b00320004c8bf000004e0002b
:101d1c0018003a00c08a2000104078000004e0004f
:101d2c0014003a00408b2000104078000004e000c2
:101d3c0010003a00c08b2000104078000004e00036
:101d4c000c003a00408c2000104078000004e000a9
:101d5c0008003a00c08f2000104078000004e0001a
:101d6c0007003a0011c0b300c08f200073fd0700bc
:101d7c00030037008040eb00c08f20006ffd070090
:101d8c000080fa00000006000000fa000080fa0053
:101d9c00000006000200fa00004f78001e80fb00d5
:101dac00e10f50000f003200e20f5000180032001b
:101dbc000000e00021003a0009c8bf000040e80024
:101dcc0009e8b70009c8bf00e24f50001d003600fb
:101ddc000968ef001668ef000768ef0078fb070052
:101dec001d0037000ac8bf000040e8000ae8b70031
:101dfc000ac8bf00e24f5000140036000a68ef001a
:101e0c001668ef000768ef006dfb07001200370043
:101e1c000bc8bf000040e8000be8b7000bc8bf00c0
:101e2c00e24f50000b0036000b68ef001668ef0015
:101e3c000768ef0062fb0700070037000000000096
:101e4c000500370000000000030037000000000010
:101e5c0001003700000000000080fa0000000600be
:101e6c000200fa00004f780016c8bf00e14f500086
:101e7c0023003a0017c8bf000081fb0081812000bd
:101e8c00810041009e4878000040e80017e8b70048
:101e9c001e407800ea4f50000b003a0008c8bf0003
:101eac00e14f500002003a000868ef0006003700ce
:101ebc008040eb004089200020fd07000968ef00fe
:101ecc0030c0b30016e8b700718120009140780053
:101edc00b0c3b30080cf5000080036001768ef0085
:101eec008040eb004089200014fd07001668ef00cd
:101efc0010c0b300a7ff0700010037000a68ef000d
:101f0c000080fa00000006000200fa000040eb001e
:101f1c00004f78000f0037001e80fb0041052000a9
:101f2c00808040000080200000804000104078003d
:101f3c000080fb00201188000000000011118000bf
:101f4c0000102000008060000000e000fbff320069
:101f5c001e4fe8001e80fb004105200080804000e1
:101f6c000080200000804000104078000004e00059
:101f7c00e9ff3a000080fa00000006000000fa00b9
:101f8c0016c8bf000080fb00e10f50001e0032009d
:101f9c00e10f50001e003400e20f5000030032002d
:101fac00e30f5000080032001a00370010c0b300d5
:101fbc0016e8b700d4ff070011c0b3004089200019
:101fcc00defc070013003700b8fb07000004e0003c
:101fdc000500320020c0b30016e8b70020c0b300e3
:101fec006cff0700020037001668ef000b68ef006b
:101ffc001768ef00c20320008000eb0080812000f6
:10200c0042fa07000300370000000000010037000f
:10201c000000000010118000620060000000e00071
:10202c00010032002222a9000080fa000000060004
:10203c000000fa002cfe070025fd070079fe0700c2
:10204c0024ff07004bfc0700ccff070050fd0700e6
:04205c00fbff37004f
:020000040000fa
:102060000008000094000000000000009408000038
:0c207000700000000000000000000000f4
:020000040000fa
:0200000401f009
:04000000ffff0000fe
:020000040000fa
:0200000401f009
:04000800ffff0000f6
:020000040000fa
:0200000401f009
:04000c0018ff0000d9
:020000040000fa
:0200000401f009
:04001000dbff000012
:020000040000fa
:0200000401f009
:040014005fff00008a
:020000040000fa
:0200000401f009
:04001800fcff0000e9
:020000040000fa
:0200000401f009
:04001c00feff0000e3
:00000001FF
